{
  "transactions": [
    {
      "hash": "0xa0c847fbb65abcc3e85285aee0b56868daceabc2a7fd7795de7e6ea5995d8a94",
      "transactionType": "CALL",
      "contractName": null,
      "contractAddress": "0xcf7ed3acca5a467e9e704c703e8d87f634fb0fc9",
      "function": "registerContent(string,(uint8,string,string,string,string,string,string),bytes,bytes32)",
      "arguments": [
        "AR-SMK-CODE",
        "(0, sha256:smk-code, , SMK-CODE, Smoke Test Artifact, Ian Moore, )",
        "0x00000000000000000000000000000000000000000000000000000000000000a000000000000000000000000000000000000000000000000000000000000000e00000000000000000000000000000000000000000000000000000000000000120000000000000000000000000000000000000000000000000000000000000016000000000000000000000000000000000000000000000000000000000000001a000000000000000000000000000000000000000000000000000000000000000096769743a736d6f6b65000000000000000000000000000000000000000000000000000000000000000000000000000000000000000000000000000000000000034d495400000000000000000000000000000000000000000000000000000000000000000000000000000000000000000000000000000000000000000000000008536f6c6964697479000000000000000000000000000000000000000000000000000000000000000000000000000000000000000000000000000000000000000676312e302e300000000000000000000000000000000000000000000000000000000000000000000000000000000000000000000000000000000000000000001768747470733a2f2f6769746875622e636f6d2f74657374000000000000000000",
        "0x0000000000000000000000000000000000000000000000000000000000000001"
      ],
      "transaction": {
        "from": "0xf39fd6e51aad88f6f4ce6ab8827279cfffb92266",
        "to": "0xcf7ed3acca5a467e9e704c703e8d87f634fb0fc9",
        "gas": "0x95c1f",
        "value": "0x0",
        "input": "0xcf8bc4b6000000000000000000000000000000000000000000000000000000000000008000000000000000000000000000000000000000000000000000000000000000c000000000000000000000000000000000000000000000000000000000000002e00000000000000000000000000000000000000000000000000000000000000001000000000000000000000000000000000000000000000000000000000000000b41522d534d4b2d434f4445000000000000000000000000000000000000000000000000000000000000000000000000000000000000000000000000000000000000000000000000000000000000000000000000000000000000000000000000e000000000000000000000000000000000000000000000000000000000000001200000000000000000000000000000000000000000000000000000000000000140000000000000000000000000000000000000000000000000000000000000018000000000000000000000000000000000000000000000000000000000000001c00000000000000000000000000000000000000000000000000000000000000200000000000000000000000000000000000000000000000000000000000000000f7368613235363a736d6b2d636f6465000000000000000000000000000000000000000000000000000000000000000000000000000000000000000000000000000000000000000000000000000000000000000000000000000000000000000008534d4b2d434f44450000000000000000000000000000000000000000000000000000000000000000000000000000000000000000000000000000000000000013536d6f6b65205465737420417274696661637400000000000000000000000000000000000000000000000000000000000000000000000000000000000000000949616e204d6f6f72650000000000000000000000000000000000000000000000000000000000000000000000000000000000000000000000000000000000000000000000000000000000000000000000000000000000000000000000000001e000000000000000000000000000000000000000000000000000000000000000a000000000000000000000000000000000000000000000000000000000000000e00000000000000000000000000000000000000000000000000000000000000120000000000000000000000000000000000000000000000000000000000000016000000000000000000000000000000000000000000000000000000000000001a000000000000000000000000000000000000000000000000000000000000000096769743a736d6f6b65000000000000000000000000000000000000000000000000000000000000000000000000000000000000000000000000000000000000034d495400000000000000000000000000000000000000000000000000000000000000000000000000000000000000000000000000000000000000000000000008536f6c6964697479000000000000000000000000000000000000000000000000000000000000000000000000000000000000000000000000000000000000000676312e302e300000000000000000000000000000000000000000000000000000000000000000000000000000000000000000000000000000000000000000001768747470733a2f2f6769746875622e636f6d2f74657374000000000000000000",
        "nonce": "0x7",
        "chainId": "0x7a69"
      },
      "additionalContracts": [],
      "isFixedGasLimit": false
    },
    {
      "hash": "0x39ebc2b2912d1a9e7056b118868313e756960bdf1c05dcc966b93b41f20ce43f",
      "transactionType": "CALL",
      "contractName": null,
      "contractAddress": "0xcf7ed3acca5a467e9e704c703e8d87f634fb0fc9",
      "function": "registerContent(string,(uint8,string,string,string,string,string,string),bytes,bytes32)",
      "arguments": [
        "AR-SMK-MEDIA",
        "(5, sha256:smk-media, , SMK-MEDIA, Smoke Test Artifact, Ian Moore, )",
        "0x00000000000000000000000000000000000000000000000000000000000000c000000000000000000000000000000000000000000000000000000000000001000000000000000000000000000000000000000000000000000000000000000140000000000000000000000000000000000000000000000000000000000000018000000000000000000000000000000000000000000000000000000000000001c000000000000000000000000000000000000000000000000000000000000002000000000000000000000000000000000000000000000000000000000000000009766964656f2f6d703400000000000000000000000000000000000000000000000000000000000000000000000000000000000000000000000000000000000007596f75547562650000000000000000000000000000000000000000000000000000000000000000000000000000000000000000000000000000000000000000034d503400000000000000000000000000000000000000000000000000000000000000000000000000000000000000000000000000000000000000000000000004333a34350000000000000000000000000000000000000000000000000000000000000000000000000000000000000000000000000000000000000000000000095553524331323334350000000000000000000000000000000000000000000000000000000000000000000000000000000000000000000000000000000000001868747470733a2f2f796f75747562652e636f6d2f746573740000000000000000",
        "0x0000000000000000000000000000000000000000000000000000000000000001"
      ],
      "transaction": {
        "from": "0xf39fd6e51aad88f6f4ce6ab8827279cfffb92266",
        "to": "0xcf7ed3acca5a467e9e704c703e8d87f634fb0fc9",
        "gas": "0xb3185",
        "value": "0x0",
        "input": "0xcf8bc4b6000000000000000000000000000000000000000000000000000000000000008000000000000000000000000000000000000000000000000000000000000000c000000000000000000000000000000000000000000000000000000000000002e00000000000000000000000000000000000000000000000000000000000000001000000000000000000000000000000000000000000000000000000000000000c41522d534d4b2d4d454449410000000000000000000000000000000000000000000000000000000000000000000000000000000000000000000000000000000500000000000000000000000000000000000000000000000000000000000000e000000000000000000000000000000000000000000000000000000000000001200000000000000000000000000000000000000000000000000000000000000140000000000000000000000000000000000000000000000000000000000000018000000000000000000000000000000000000000000000000000000000000001c0000000000000000000000000000000000000000000000000000000000000020000000000000000000000000000000000000000000000000000000000000000107368613235363a736d6b2d6d656469610000000000000000000000000000000000000000000000000000000000000000000000000000000000000000000000000000000000000000000000000000000000000000000000000000000000000009534d4b2d4d4544494100000000000000000000000000000000000000000000000000000000000000000000000000000000000000000000000000000000000013536d6f6b65205465737420417274696661637400000000000000000000000000000000000000000000000000000000000000000000000000000000000000000949616e204d6f6f726500000000000000000000000000000000000000000000000000000000000000000000000000000000000000000000000000000000000000000000000000000000000000000000000000000000000000000000000000024000000000000000000000000000000000000000000000000000000000000000c000000000000000000000000000000000000000000000000000000000000001000000000000000000000000000000000000000000000000000000000000000140000000000000000000000000000000000000000000000000000000000000018000000000000000000000000000000000000000000000000000000000000001c000000000000000000000000000000000000000000000000000000000000002000000000000000000000000000000000000000000000000000000000000000009766964656f2f6d703400000000000000000000000000000000000000000000000000000000000000000000000000000000000000000000000000000000000007596f75547562650000000000000000000000000000000000000000000000000000000000000000000000000000000000000000000000000000000000000000034d503400000000000000000000000000000000000000000000000000000000000000000000000000000000000000000000000000000000000000000000000004333a34350000000000000000000000000000000000000000000000000000000000000000000000000000000000000000000000000000000000000000000000095553524331323334350000000000000000000000000000000000000000000000000000000000000000000000000000000000000000000000000000000000001868747470733a2f2f796f75747562652e636f6d2f746573740000000000000000",
        "nonce": "0x8",
        "chainId": "0x7a69"
      },
      "additionalContracts": [],
      "isFixedGasLimit": false
    },
    {
      "hash": "0xa7cee25cd2e82926e62c051de7652055da7bb67639cef1d6ee820e4030979b66",
      "transactionType": "CALL",
      "contractName": null,
      "contractAddress": "0xcf7ed3acca5a467e9e704c703e8d87f634fb0fc9",
      "function": "registerContent(string,(uint8,string,string,string,string,string,string),bytes,bytes32)",
      "arguments": [
        "AR-SMK-TEXT",
        "(6, sha256:smk-text, , SMK-TEXT, Smoke Test Artifact, Ian Moore, )",
        "0x00000000000000000000000000000000000000000000000000000000000000a000000000000000000000000000000000000000000000000000000000000000e00000000000000000000000000000000000000000000000000000000000000120000000000000000000000000000000000000000000000000000000000000016000000000000000000000000000000000000000000000000000000000000001a0000000000000000000000000000000000000000000000000000000000000000741525449434c450000000000000000000000000000000000000000000000000000000000000000000000000000000000000000000000000000000000000000113937382d332d31362d3134383431302d3000000000000000000000000000000000000000000000000000000000000000000000000000000000000000000000084f275265696c6c790000000000000000000000000000000000000000000000000000000000000000000000000000000000000000000000000000000000000007456e676c69736800000000000000000000000000000000000000000000000000000000000000000000000000000000000000000000000000000000000000001b68747470733a2f2f6578616d706c652e636f6d2f61727469636c650000000000",
        "0x0000000000000000000000000000000000000000000000000000000000000001"
      ],
      "transaction": {
        "from": "0xf39fd6e51aad88f6f4ce6ab8827279cfffb92266",
        "to": "0xcf7ed3acca5a467e9e704c703e8d87f634fb0fc9",
        "gas": "0x9c8a8",
        "value": "0x0",
        "input": "0xcf8bc4b6000000000000000000000000000000000000000000000000000000000000008000000000000000000000000000000000000000000000000000000000000000c000000000000000000000000000000000000000000000000000000000000002e00000000000000000000000000000000000000000000000000000000000000001000000000000000000000000000000000000000000000000000000000000000b41522d534d4b2d54455854000000000000000000000000000000000000000000000000000000000000000000000000000000000000000000000000000000000600000000000000000000000000000000000000000000000000000000000000e000000000000000000000000000000000000000000000000000000000000001200000000000000000000000000000000000000000000000000000000000000140000000000000000000000000000000000000000000000000000000000000018000000000000000000000000000000000000000000000000000000000000001c00000000000000000000000000000000000000000000000000000000000000200000000000000000000000000000000000000000000000000000000000000000f7368613235363a736d6b2d74657874000000000000000000000000000000000000000000000000000000000000000000000000000000000000000000000000000000000000000000000000000000000000000000000000000000000000000008534d4b2d544558540000000000000000000000000000000000000000000000000000000000000000000000000000000000000000000000000000000000000013536d6f6b65205465737420417274696661637400000000000000000000000000000000000000000000000000000000000000000000000000000000000000000949616e204d6f6f72650000000000000000000000000000000000000000000000000000000000000000000000000000000000000000000000000000000000000000000000000000000000000000000000000000000000000000000000000001e000000000000000000000000000000000000000000000000000000000000000a000000000000000000000000000000000000000000000000000000000000000e00000000000000000000000000000000000000000000000000000000000000120000000000000000000000000000000000000000000000000000000000000016000000000000000000000000000000000000000000000000000000000000001a0000000000000000000000000000000000000000000000000000000000000000741525449434c450000000000000000000000000000000000000000000000000000000000000000000000000000000000000000000000000000000000000000113937382d332d31362d3134383431302d3000000000000000000000000000000000000000000000000000000000000000000000000000000000000000000000084f275265696c6c790000000000000000000000000000000000000000000000000000000000000000000000000000000000000000000000000000000000000007456e676c69736800000000000000000000000000000000000000000000000000000000000000000000000000000000000000000000000000000000000000001b68747470733a2f2f6578616d706c652e636f6d2f61727469636c650000000000",
        "nonce": "0x9",
        "chainId": "0x7a69"
      },
      "additionalContracts": [],
      "isFixedGasLimit": false
    },
    {
      "hash": "0xb778369dc06e74419ec5eb08d484cc63e6861263a8407b329b20ea51aeec1a76",
      "transactionType": "CALL",
      "contractName": null,
      "contractAddress": "0xcf7ed3acca5a467e9e704c703e8d87f634fb0fc9",
      "function": "registerContent(string,(uint8,string,string,string,string,string,string),bytes,bytes32)",
      "arguments": [
        "AR-SMK-REPORT",
        "(9, sha256:smk-report, , SMK-REPORT, Smoke Test Artifact, Ian Moore, )",
        "0x00000000000000000000000000000000000000000000000000000000000001000000000000000000000000000000000000000000000000000000000000000140000000000000000000000000000000000000000000000000000000000000018000000000000000000000000000000000000000000000000000000000000001c000000000000000000000000000000000000000000000000000000000000002000000000000000000000000000000000000000000000000000000000000000240000000000000000000000000000000000000000000000000000000000000028000000000000000000000000000000000000000000000000000000000000002c0000000000000000000000000000000000000000000000000000000000000000a434f4e53554c54494e4700000000000000000000000000000000000000000000000000000000000000000000000000000000000000000000000000000000000941636d6520436f72700000000000000000000000000000000000000000000000000000000000000000000000000000000000000000000000000000000000000b534d4b2d454e472d303031000000000000000000000000000000000000000000000000000000000000000000000000000000000000000000000000000000000566696e616c000000000000000000000000000000000000000000000000000000000000000000000000000000000000000000000000000000000000000000000949616e204d6f6f72650000000000000000000000000000000000000000000000000000000000000000000000000000000000000000000000000000000000000d486976652041647669736f727900000000000000000000000000000000000000000000000000000000000000000000000000000000000000000000000000001a68747470733a2f2f6578616d706c652e636f6d2f7265706f7274000000000000000000000000000000000000000000000000000000000000000000000000001d7368613235363a7265706f72742d6d616e69666573742d616263313233000000",
        "0x0000000000000000000000000000000000000000000000000000000000000001"
      ],
      "transaction": {
        "from": "0xf39fd6e51aad88f6f4ce6ab8827279cfffb92266",
        "to": "0xcf7ed3acca5a467e9e704c703e8d87f634fb0fc9",
        "gas": "0xe0819",
        "value": "0x0",
        "input": "0xcf8bc4b6000000000000000000000000000000000000000000000000000000000000008000000000000000000000000000000000000000000000000000000000000000c000000000000000000000000000000000000000000000000000000000000002e00000000000000000000000000000000000000000000000000000000000000001000000000000000000000000000000000000000000000000000000000000000d41522d534d4b2d5245504f525400000000000000000000000000000000000000000000000000000000000000000000000000000000000000000000000000000900000000000000000000000000000000000000000000000000000000000000e000000000000000000000000000000000000000000000000000000000000001200000000000000000000000000000000000000000000000000000000000000140000000000000000000000000000000000000000000000000000000000000018000000000000000000000000000000000000000000000000000000000000001c0000000000000000000000000000000000000000000000000000000000000020000000000000000000000000000000000000000000000000000000000000000117368613235363a736d6b2d7265706f72740000000000000000000000000000000000000000000000000000000000000000000000000000000000000000000000000000000000000000000000000000000000000000000000000000000000000a534d4b2d5245504f5254000000000000000000000000000000000000000000000000000000000000000000000000000000000000000000000000000000000013536d6f6b65205465737420417274696661637400000000000000000000000000000000000000000000000000000000000000000000000000000000000000000949616e204d6f6f726500000000000000000000000000000000000000000000000000000000000000000000000000000000000000000000000000000000000000000000000000000000000000000000000000000000000000000000000000030000000000000000000000000000000000000000000000000000000000000001000000000000000000000000000000000000000000000000000000000000000140000000000000000000000000000000000000000000000000000000000000018000000000000000000000000000000000000000000000000000000000000001c000000000000000000000000000000000000000000000000000000000000002000000000000000000000000000000000000000000000000000000000000000240000000000000000000000000000000000000000000000000000000000000028000000000000000000000000000000000000000000000000000000000000002c0000000000000000000000000000000000000000000000000000000000000000a434f4e53554c54494e4700000000000000000000000000000000000000000000000000000000000000000000000000000000000000000000000000000000000941636d6520436f72700000000000000000000000000000000000000000000000000000000000000000000000000000000000000000000000000000000000000b534d4b2d454e472d303031000000000000000000000000000000000000000000000000000000000000000000000000000000000000000000000000000000000566696e616c000000000000000000000000000000000000000000000000000000000000000000000000000000000000000000000000000000000000000000000949616e204d6f6f72650000000000000000000000000000000000000000000000000000000000000000000000000000000000000000000000000000000000000d486976652041647669736f727900000000000000000000000000000000000000000000000000000000000000000000000000000000000000000000000000001a68747470733a2f2f6578616d706c652e636f6d2f7265706f7274000000000000000000000000000000000000000000000000000000000000000000000000001d7368613235363a7265706f72742d6d616e69666573742d616263313233000000",
        "nonce": "0xa",
        "chainId": "0x7a69"
      },
      "additionalContracts": [],
      "isFixedGasLimit": false
    },
    {
      "hash": "0x618e3be3aabb86711baaf155eff765bb3c72f3ff7f90486c1167d0ef028996b1",
      "transactionType": "CALL",
      "contractName": null,
      "contractAddress": "0xcf7ed3acca5a467e9e704c703e8d87f634fb0fc9",
      "function": "registerContent(string,(uint8,string,string,string,string,string,string),bytes,bytes32)",
      "arguments": [
        "AR-SMK-NOTE",
        "(10, sha256:smk-note, , SMK-NOTE, Smoke Test Artifact, Ian Moore, )",
        "0x00000000000000000000000000000000000000000000000000000000000000a000000000000000000000000000000000000000000000000000000000000000e00000000000000000000000000000000000000000000000000000000000000120000000000000000000000000000000000000000000000000000000000000016000000000000000000000000000000000000000000000000000000000000001a000000000000000000000000000000000000000000000000000000000000000074d454554494e4700000000000000000000000000000000000000000000000000000000000000000000000000000000000000000000000000000000000000000a323032362d30332d333000000000000000000000000000000000000000000000000000000000000000000000000000000000000000000000000000000000001549616e204d6f6f72652c204a616e6520536d6974680000000000000000000000000000000000000000000000000000000000000000000000000000000000001968747470733a2f2f6578616d706c652e636f6d2f6e6f74657300000000000000000000000000000000000000000000000000000000000000000000000000001b7368613235363a6e6f74652d6d616e69666573742d6465663435360000000000",
        "0x0000000000000000000000000000000000000000000000000000000000000001"
      ],
      "transaction": {
        "from": "0xf39fd6e51aad88f6f4ce6ab8827279cfffb92266",
        "to": "0xcf7ed3acca5a467e9e704c703e8d87f634fb0fc9",
        "gas": "0x9ca36",
        "value": "0x0",
        "input": "0xcf8bc4b6000000000000000000000000000000000000000000000000000000000000008000000000000000000000000000000000000000000000000000000000000000c000000000000000000000000000000000000000000000000000000000000002e00000000000000000000000000000000000000000000000000000000000000001000000000000000000000000000000000000000000000000000000000000000b41522d534d4b2d4e4f5445000000000000000000000000000000000000000000000000000000000000000000000000000000000000000000000000000000000a00000000000000000000000000000000000000000000000000000000000000e000000000000000000000000000000000000000000000000000000000000001200000000000000000000000000000000000000000000000000000000000000140000000000000000000000000000000000000000000000000000000000000018000000000000000000000000000000000000000000000000000000000000001c00000000000000000000000000000000000000000000000000000000000000200000000000000000000000000000000000000000000000000000000000000000f7368613235363a736d6b2d6e6f7465000000000000000000000000000000000000000000000000000000000000000000000000000000000000000000000000000000000000000000000000000000000000000000000000000000000000000008534d4b2d4e4f54450000000000000000000000000000000000000000000000000000000000000000000000000000000000000000000000000000000000000013536d6f6b65205465737420417274696661637400000000000000000000000000000000000000000000000000000000000000000000000000000000000000000949616e204d6f6f72650000000000000000000000000000000000000000000000000000000000000000000000000000000000000000000000000000000000000000000000000000000000000000000000000000000000000000000000000001e000000000000000000000000000000000000000000000000000000000000000a000000000000000000000000000000000000000000000000000000000000000e00000000000000000000000000000000000000000000000000000000000000120000000000000000000000000000000000000000000000000000000000000016000000000000000000000000000000000000000000000000000000000000001a000000000000000000000000000000000000000000000000000000000000000074d454554494e4700000000000000000000000000000000000000000000000000000000000000000000000000000000000000000000000000000000000000000a323032362d30332d333000000000000000000000000000000000000000000000000000000000000000000000000000000000000000000000000000000000001549616e204d6f6f72652c204a616e6520536d6974680000000000000000000000000000000000000000000000000000000000000000000000000000000000001968747470733a2f2f6578616d706c652e636f6d2f6e6f74657300000000000000000000000000000000000000000000000000000000000000000000000000001b7368613235363a6e6f74652d6d616e69666573742d6465663435360000000000",
        "nonce": "0xb",
        "chainId": "0x7a69"
      },
      "additionalContracts": [],
      "isFixedGasLimit": false
    },
    {
      "hash": "0xbba48c83af0dd1292e2feefa4f7db4c1eeacb4ce0e1a1273c6912ca31237d3d8",
      "transactionType": "CALL",
      "contractName": null,
      "contractAddress": "0xcf7ed3acca5a467e9e704c703e8d87f634fb0fc9",
      "function": "registerContent(string,(uint8,string,string,string,string,string,string),bytes,bytes32)",
      "arguments": [
        "AR-SMK-RECEIPT",
        "(13, sha256:smk-receipt, , SMK-RECEIPT, Smoke Test Artifact, Ian Moore, )",
        "0x00000000000000000000000000000000000000000000000000000000000001000000000000000000000000000000000000000000000000000000000000000140000000000000000000000000000000000000000000000000000000000000018000000000000000000000000000000000000000000000000000000000000001c000000000000000000000000000000000000000000000000000000000000002000000000000000000000000000000000000000000000000000000000000000240000000000000000000000000000000000000000000000000000000000000028000000000000000000000000000000000000000000000000000000000000002c000000000000000000000000000000000000000000000000000000000000000085055524348415345000000000000000000000000000000000000000000000000000000000000000000000000000000000000000000000000000000000000000757617966616972000000000000000000000000000000000000000000000000000000000000000000000000000000000000000000000000000000000000000007313239392e39390000000000000000000000000000000000000000000000000000000000000000000000000000000000000000000000000000000000000000034341440000000000000000000000000000000000000000000000000000000000000000000000000000000000000000000000000000000000000000000000000b4f52442d534d4b2d303031000000000000000000000000000000000000000000000000000000000000000000000000000000000000000000000000000000000773686f7069667900000000000000000000000000000000000000000000000000000000000000000000000000000000000000000000000000000000000000001c68747470733a2f2f776179666169722e636f6d2f6f72646572732f3100000000000000000000000000000000000000000000000000000000000000000000001e7368613235363a726563656970742d6d616e69666573742d6768693738390000",
        "0x0000000000000000000000000000000000000000000000000000000000000001"
      ],
      "transaction": {
        "from": "0xf39fd6e51aad88f6f4ce6ab8827279cfffb92266",
        "to": "0xcf7ed3acca5a467e9e704c703e8d87f634fb0fc9",
        "gas": "0xe0794",
        "value": "0x0",
        "input": "0xcf8bc4b6000000000000000000000000000000000000000000000000000000000000008000000000000000000000000000000000000000000000000000000000000000c000000000000000000000000000000000000000000000000000000000000002e00000000000000000000000000000000000000000000000000000000000000001000000000000000000000000000000000000000000000000000000000000000e41522d534d4b2d52454345495054000000000000000000000000000000000000000000000000000000000000000000000000000000000000000000000000000d00000000000000000000000000000000000000000000000000000000000000e000000000000000000000000000000000000000000000000000000000000001200000000000000000000000000000000000000000000000000000000000000140000000000000000000000000000000000000000000000000000000000000018000000000000000000000000000000000000000000000000000000000000001c0000000000000000000000000000000000000000000000000000000000000020000000000000000000000000000000000000000000000000000000000000000127368613235363a736d6b2d7265636569707400000000000000000000000000000000000000000000000000000000000000000000000000000000000000000000000000000000000000000000000000000000000000000000000000000000000b534d4b2d524543454950540000000000000000000000000000000000000000000000000000000000000000000000000000000000000000000000000000000013536d6f6b65205465737420417274696661637400000000000000000000000000000000000000000000000000000000000000000000000000000000000000000949616e204d6f6f726500000000000000000000000000000000000000000000000000000000000000000000000000000000000000000000000000000000000000000000000000000000000000000000000000000000000000000000000000030000000000000000000000000000000000000000000000000000000000000001000000000000000000000000000000000000000000000000000000000000000140000000000000000000000000000000000000000000000000000000000000018000000000000000000000000000000000000000000000000000000000000001c000000000000000000000000000000000000000000000000000000000000002000000000000000000000000000000000000000000000000000000000000000240000000000000000000000000000000000000000000000000000000000000028000000000000000000000000000000000000000000000000000000000000002c000000000000000000000000000000000000000000000000000000000000000085055524348415345000000000000000000000000000000000000000000000000000000000000000000000000000000000000000000000000000000000000000757617966616972000000000000000000000000000000000000000000000000000000000000000000000000000000000000000000000000000000000000000007313239392e39390000000000000000000000000000000000000000000000000000000000000000000000000000000000000000000000000000000000000000034341440000000000000000000000000000000000000000000000000000000000000000000000000000000000000000000000000000000000000000000000000b4f52442d534d4b2d303031000000000000000000000000000000000000000000000000000000000000000000000000000000000000000000000000000000000773686f7069667900000000000000000000000000000000000000000000000000000000000000000000000000000000000000000000000000000000000000001c68747470733a2f2f776179666169722e636f6d2f6f72646572732f3100000000000000000000000000000000000000000000000000000000000000000000001e7368613235363a726563656970742d6d616e69666573742d6768693738390000",
        "nonce": "0xc",
        "chainId": "0x7a69"
      },
      "additionalContracts": [],
      "isFixedGasLimit": false
    },
    {
      "hash": "0x0a0740a1e5289ed39603467a7d7cedf9430b8c1570001e296d9e04f7c28d6a8d",
      "transactionType": "CALL",
      "contractName": null,
      "contractAddress": "0xcf7ed3acca5a467e9e704c703e8d87f634fb0fc9",
      "function": "registerContent(string,(uint8,string,string,string,string,string,string),bytes,bytes32)",
      "arguments": [
        "AR-SMK-OTHER",
        "(22, sha256:smk-other, , SMK-OTHER, Smoke Test Artifact, Ian Moore, )",
        "0x00000000000000000000000000000000000000000000000000000000000000a000000000000000000000000000000000000000000000000000000000000000e00000000000000000000000000000000000000000000000000000000000000120000000000000000000000000000000000000000000000000000000000000016000000000000000000000000000000000000000000000000000000000000001a00000000000000000000000000000000000000000000000000000000000000006636f75727365000000000000000000000000000000000000000000000000000000000000000000000000000000000000000000000000000000000000000000095468696e6b696669630000000000000000000000000000000000000000000000000000000000000000000000000000000000000000000000000000000000001a68747470733a2f2f7468696e6b696669632e636f6d2f7465737400000000000000000000000000000000000000000000000000000000000000000000000000084465466920313031000000000000000000000000000000000000000000000000000000000000000000000000000000000000000000000000000000000000001c7368613235363a6f746865722d6d616e69666573742d6a6b6c30313200000000",
        "0x0000000000000000000000000000000000000000000000000000000000000001"
      ],
      "transaction": {
        "from": "0xf39fd6e51aad88f6f4ce6ab8827279cfffb92266",
        "to": "0xcf7ed3acca5a467e9e704c703e8d87f634fb0fc9",
        "gas": "0x9c9f7",
        "value": "0x0",
        "input": "0xcf8bc4b6000000000000000000000000000000000000000000000000000000000000008000000000000000000000000000000000000000000000000000000000000000c000000000000000000000000000000000000000000000000000000000000002e00000000000000000000000000000000000000000000000000000000000000001000000000000000000000000000000000000000000000000000000000000000c41522d534d4b2d4f544845520000000000000000000000000000000000000000000000000000000000000000000000000000000000000000000000000000001600000000000000000000000000000000000000000000000000000000000000e000000000000000000000000000000000000000000000000000000000000001200000000000000000000000000000000000000000000000000000000000000140000000000000000000000000000000000000000000000000000000000000018000000000000000000000000000000000000000000000000000000000000001c0000000000000000000000000000000000000000000000000000000000000020000000000000000000000000000000000000000000000000000000000000000107368613235363a736d6b2d6f746865720000000000000000000000000000000000000000000000000000000000000000000000000000000000000000000000000000000000000000000000000000000000000000000000000000000000000009534d4b2d4f5448455200000000000000000000000000000000000000000000000000000000000000000000000000000000000000000000000000000000000013536d6f6b65205465737420417274696661637400000000000000000000000000000000000000000000000000000000000000000000000000000000000000000949616e204d6f6f72650000000000000000000000000000000000000000000000000000000000000000000000000000000000000000000000000000000000000000000000000000000000000000000000000000000000000000000000000001e000000000000000000000000000000000000000000000000000000000000000a000000000000000000000000000000000000000000000000000000000000000e00000000000000000000000000000000000000000000000000000000000000120000000000000000000000000000000000000000000000000000000000000016000000000000000000000000000000000000000000000000000000000000001a00000000000000000000000000000000000000000000000000000000000000006636f75727365000000000000000000000000000000000000000000000000000000000000000000000000000000000000000000000000000000000000000000095468696e6b696669630000000000000000000000000000000000000000000000000000000000000000000000000000000000000000000000000000000000001a68747470733a2f2f7468696e6b696669632e636f6d2f7465737400000000000000000000000000000000000000000000000000000000000000000000000000084465466920313031000000000000000000000000000000000000000000000000000000000000000000000000000000000000000000000000000000000000001c7368613235363a6f746865722d6d616e69666573742d6a6b6c30313200000000",
        "nonce": "0xd",
        "chainId": "0x7a69"
      },
      "additionalContracts": [],
      "isFixedGasLimit": false
    },
    {
      "hash": "0x7aad7fb2eb9e4bbbe7d5b9d2d32e34369f99c0f8bcb581b5abd085fffd779507",
      "transactionType": "CALL",
      "contractName": null,
      "contractAddress": "0xcf7ed3acca5a467e9e704c703e8d87f634fb0fc9",
      "function": "registerContent(string,(uint8,string,string,string,string,string,string),bytes,bytes32)",
      "arguments": [
        "AR-SMK-WEBSITE",
        "(11, sha256:smk-website, , SMK-WEBSITE, Smoke Test Artifact, Ian Moore, )",
        "0x000000000000000000000000000000000000000000000000000000000000006000000000000000000000000000000000000000000000000000000000000000a000000000000000000000000000000000000000000000000000000000000000e0000000000000000000000000000000000000000000000000000000000000001a68747470733a2f2f616e63686f7272656769737472792e636f6d0000000000000000000000000000000000000000000000000000000000000000000000000006637573746f6d0000000000000000000000000000000000000000000000000000000000000000000000000000000000000000000000000000000000000000001c4f6e2d636861696e2070726f76656e616e636520726567697374727900000000",
        "0x0000000000000000000000000000000000000000000000000000000000000001"
      ],
      "transaction": {
        "from": "0xf39fd6e51aad88f6f4ce6ab8827279cfffb92266",
        "to": "0xcf7ed3acca5a467e9e704c703e8d87f634fb0fc9",
        "gas": "0x6f606",
        "value": "0x0",
        "input": "0xcf8bc4b6000000000000000000000000000000000000000000000000000000000000008000000000000000000000000000000000000000000000000000000000000000c000000000000000000000000000000000000000000000000000000000000002e00000000000000000000000000000000000000000000000000000000000000001000000000000000000000000000000000000000000000000000000000000000e41522d534d4b2d57454253495445000000000000000000000000000000000000000000000000000000000000000000000000000000000000000000000000000b00000000000000000000000000000000000000000000000000000000000000e000000000000000000000000000000000000000000000000000000000000001200000000000000000000000000000000000000000000000000000000000000140000000000000000000000000000000000000000000000000000000000000018000000000000000000000000000000000000000000000000000000000000001c0000000000000000000000000000000000000000000000000000000000000020000000000000000000000000000000000000000000000000000000000000000127368613235363a736d6b2d7765627369746500000000000000000000000000000000000000000000000000000000000000000000000000000000000000000000000000000000000000000000000000000000000000000000000000000000000b534d4b2d574542534954450000000000000000000000000000000000000000000000000000000000000000000000000000000000000000000000000000000013536d6f6b65205465737420417274696661637400000000000000000000000000000000000000000000000000000000000000000000000000000000000000000949616e204d6f6f7265000000000000000000000000000000000000000000000000000000000000000000000000000000000000000000000000000000000000000000000000000000000000000000000000000000000000000000000000000120000000000000000000000000000000000000000000000000000000000000006000000000000000000000000000000000000000000000000000000000000000a000000000000000000000000000000000000000000000000000000000000000e0000000000000000000000000000000000000000000000000000000000000001a68747470733a2f2f616e63686f7272656769737472792e636f6d0000000000000000000000000000000000000000000000000000000000000000000000000006637573746f6d0000000000000000000000000000000000000000000000000000000000000000000000000000000000000000000000000000000000000000001c4f6e2d636861696e2070726f76656e616e636520726567697374727900000000",
        "nonce": "0xe",
        "chainId": "0x7a69"
      },
      "additionalContracts": [],
      "isFixedGasLimit": false
    },
    {
      "hash": "0x61d9eaca43509e8d12ac26c911497539752d94bfdef610647a5fd8f40601f768",
      "transactionType": "CALL",
      "contractName": null,
      "contractAddress": "0xcf7ed3acca5a467e9e704c703e8d87f634fb0fc9",
      "function": "registerTargeted(string,(uint8,string,string,string,string,string,string),string,bytes,bytes32)",
      "arguments": [
        "AR-SMK-RETRACT",
        "(17, sha256:smk-retract, AR-SMK-CODE, SMK-RETRACT, Smoke Test Artifact, Ian Moore, )",
        "AR-SMK-CODE",
        "0x00000000000000000000000000000000000000000000000000000000000000400000000000000000000000000000000000000000000000000000000000000080000000000000000000000000000000000000000000000000000000000000001973757065727365646564206279206e65772076657273696f6e000000000000000000000000000000000000000000000000000000000000000000000000000000",
        "0x00000000000000000000000000000000000000000000000000000000deadbeef"
      ],
      "transaction": {
        "from": "0xf39fd6e51aad88f6f4ce6ab8827279cfffb92266",
        "to": "0xcf7ed3acca5a467e9e704c703e8d87f634fb0fc9",
        "gas": "0x514a2",
        "value": "0x0",
        "input": "0x7bd4c63000000000000000000000000000000000000000000000000000000000000000a000000000000000000000000000000000000000000000000000000000000000e00000000000000000000000000000000000000000000000000000000000000320000000000000000000000000000000000000000000000000000000000000036000000000000000000000000000000000000000000000000000000000deadbeef000000000000000000000000000000000000000000000000000000000000000e41522d534d4b2d52455452414354000000000000000000000000000000000000000000000000000000000000000000000000000000000000000000000000001100000000000000000000000000000000000000000000000000000000000000e00000000000000000000000000000000000000000000000000000000000000120000000000000000000000000000000000000000000000000000000000000016000000000000000000000000000000000000000000000000000000000000001a000000000000000000000000000000000000000000000000000000000000001e0000000000000000000000000000000000000000000000000000000000000022000000000000000000000000000000000000000000000000000000000000000127368613235363a736d6b2d726574726163740000000000000000000000000000000000000000000000000000000000000000000000000000000000000000000b41522d534d4b2d434f4445000000000000000000000000000000000000000000000000000000000000000000000000000000000000000000000000000000000b534d4b2d524554524143540000000000000000000000000000000000000000000000000000000000000000000000000000000000000000000000000000000013536d6f6b65205465737420417274696661637400000000000000000000000000000000000000000000000000000000000000000000000000000000000000000949616e204d6f6f726500000000000000000000000000000000000000000000000000000000000000000000000000000000000000000000000000000000000000000000000000000000000000000000000000000000000000000000000000000b41522d534d4b2d434f444500000000000000000000000000000000000000000000000000000000000000000000000000000000000000000000000000000000a000000000000000000000000000000000000000000000000000000000000000400000000000000000000000000000000000000000000000000000000000000080000000000000000000000000000000000000000000000000000000000000001973757065727365646564206279206e65772076657273696f6e000000000000000000000000000000000000000000000000000000000000000000000000000000",
        "nonce": "0xf",
        "chainId": "0x7a69"
      },
      "additionalContracts": [],
      "isFixedGasLimit": false
    }
  ],
  "receipts": [
    {
      "type": "0x2",
      "status": "0x1",
      "cumulativeGasUsed": "0x6c6c0",
      "logs": [
        {
          "address": "0xcf7ed3acca5a467e9e704c703e8d87f634fb0fc9",
          "topics": [
            "0x97a851988ca44ea18ea43e94298eb9986b0ee33a6181558938dd891fa4ac2ae5",
            "0x4ccbf0e3221225e11677ab0775940551b3f3baeb43004a6c80079ec057564d0c",
            "0x000000000000000000000000f39fd6e51aad88f6f4ce6ab8827279cfffb92266",
            "0xc5d2460186f7233c927e7db2dcc703c0e500b653ca82273b7bfad8045d85a470"
          ],
          "data": "0x00000000000000000000000000000000000000000000000000000000000000000000000000000000000000000000000000000000000000000000000000000120000000000000000000000000000000000000000000000000000000000000016000000000000000000000000000000000000000000000000000000000000001a000000000000000000000000000000000000000000000000000000000000001e00000000000000000000000000000000000000000000000000000000000000220000000000000000000000000000000000000000000000000000000000000026000000000000000000000000000000000000000000000000000000000000002800000000000000000000000000000000000000000000000000000000000000001000000000000000000000000000000000000000000000000000000000000000b41522d534d4b2d434f44450000000000000000000000000000000000000000000000000000000000000000000000000000000000000000000000000000000008534d4b2d434f44450000000000000000000000000000000000000000000000000000000000000000000000000000000000000000000000000000000000000013536d6f6b65205465737420417274696661637400000000000000000000000000000000000000000000000000000000000000000000000000000000000000000949616e204d6f6f72650000000000000000000000000000000000000000000000000000000000000000000000000000000000000000000000000000000000000f7368613235363a736d6b2d636f6465000000000000000000000000000000000000000000000000000000000000000000000000000000000000000000000000000000000000000000000000000000000000000000000000000000000000000000",
          "blockHash": "0x27e40cf7d321929674ae81a9c7e69ec0664c0f6b9d90b805d3b866d078dc0c40",
          "blockNumber": "0x9",
          "blockTimestamp": "0x69ce9a03",
          "transactionHash": "0xa0c847fbb65abcc3e85285aee0b56868daceabc2a7fd7795de7e6ea5995d8a94",
          "transactionIndex": "0x0",
          "logIndex": "0x0",
          "removed": false
        }
      ],
      "logsBloom": "0x00000000000000000000000000000000000000000000000000000200000000008000000000000000000000000000080000000000000000000000000000000001000000000000000800000000000000000000000000000000000000000000000000000000000000000000000100000000000000000000008000000000000000000000080008000000000000000000000000000000000000000100000000000000000000000000000000000000000000000000001000000000000100000000000000000000000000200000000000000000000000002000000000000000000000000000000000000400000000000000000000000000000000000000000000000000",
      "transactionHash": "0xa0c847fbb65abcc3e85285aee0b56868daceabc2a7fd7795de7e6ea5995d8a94",
      "transactionIndex": "0x0",
      "blockHash": "0x27e40cf7d321929674ae81a9c7e69ec0664c0f6b9d90b805d3b866d078dc0c40",
      "blockNumber": "0x9",
      "gasUsed": "0x6c6c0",
      "effectiveGasPrice": "0x160a15c3",
      "blobGasPrice": "0x1",
      "from": "0xf39fd6e51aad88f6f4ce6ab8827279cfffb92266",
      "to": "0xcf7ed3acca5a467e9e704c703e8d87f634fb0fc9",
      "contractAddress": null
    },
    {
      "type": "0x2",
      "status": "0x1",
      "cumulativeGasUsed": "0x81a96",
      "logs": [
        {
          "address": "0xcf7ed3acca5a467e9e704c703e8d87f634fb0fc9",
          "topics": [
            "0x97a851988ca44ea18ea43e94298eb9986b0ee33a6181558938dd891fa4ac2ae5",
            "0xa158ebd164c9156dd89ec77d602bac49e0452487baa72b8a0eef9c49846763c4",
            "0x000000000000000000000000f39fd6e51aad88f6f4ce6ab8827279cfffb92266",
            "0xc5d2460186f7233c927e7db2dcc703c0e500b653ca82273b7bfad8045d85a470"
          ],
          "data": "0x00000000000000000000000000000000000000000000000000000000000000050000000000000000000000000000000000000000000000000000000000000120000000000000000000000000000000000000000000000000000000000000016000000000000000000000000000000000000000000000000000000000000001a000000000000000000000000000000000000000000000000000000000000001e00000000000000000000000000000000000000000000000000000000000000220000000000000000000000000000000000000000000000000000000000000026000000000000000000000000000000000000000000000000000000000000002800000000000000000000000000000000000000000000000000000000000000001000000000000000000000000000000000000000000000000000000000000000c41522d534d4b2d4d4544494100000000000000000000000000000000000000000000000000000000000000000000000000000000000000000000000000000009534d4b2d4d4544494100000000000000000000000000000000000000000000000000000000000000000000000000000000000000000000000000000000000013536d6f6b65205465737420417274696661637400000000000000000000000000000000000000000000000000000000000000000000000000000000000000000949616e204d6f6f7265000000000000000000000000000000000000000000000000000000000000000000000000000000000000000000000000000000000000107368613235363a736d6b2d6d656469610000000000000000000000000000000000000000000000000000000000000000000000000000000000000000000000000000000000000000000000000000000000000000000000000000000000000000",
          "blockHash": "0xdac0c8035f273e9cc5ac72eb3a807fcc81be51e34deb1e9a14c585b4e1b819f0",
          "blockNumber": "0xa",
          "blockTimestamp": "0x69ce9a03",
          "transactionHash": "0x39ebc2b2912d1a9e7056b118868313e756960bdf1c05dcc966b93b41f20ce43f",
          "transactionIndex": "0x0",
          "logIndex": "0x0",
          "removed": false
        }
      ],
      "logsBloom": "0x00000000000000000000000000000000000000000000000000000000000000008000000000000000000000000000080000800000000000000000000000000001000000000000000800000000000000000000000000000000000000000000000000000000000000000010000100000000000000000000008000000000000000000000080008000000000000000000000000000000000000000000000000000000000000000000000000000000000000000000001000000000000000000000000000000000000000200000000000000000000000002000000000000000000020000000000000000400000000000000000000000000000000000000000000000000",
      "transactionHash": "0x39ebc2b2912d1a9e7056b118868313e756960bdf1c05dcc966b93b41f20ce43f",
      "transactionIndex": "0x0",
      "blockHash": "0xdac0c8035f273e9cc5ac72eb3a807fcc81be51e34deb1e9a14c585b4e1b819f0",
      "blockNumber": "0xa",
      "gasUsed": "0x81a96",
      "effectiveGasPrice": "0x135db462",
      "blobGasPrice": "0x1",
      "from": "0xf39fd6e51aad88f6f4ce6ab8827279cfffb92266",
      "to": "0xcf7ed3acca5a467e9e704c703e8d87f634fb0fc9",
      "contractAddress": null
    },
    {
      "type": "0x2",
      "status": "0x1",
      "cumulativeGasUsed": "0x71554",
      "logs": [
        {
          "address": "0xcf7ed3acca5a467e9e704c703e8d87f634fb0fc9",
          "topics": [
            "0x97a851988ca44ea18ea43e94298eb9986b0ee33a6181558938dd891fa4ac2ae5",
            "0x51127fadc670ccdad4d777fc676af421c597649c08af3569dcd6899e80b8cf50",
            "0x000000000000000000000000f39fd6e51aad88f6f4ce6ab8827279cfffb92266",
            "0xc5d2460186f7233c927e7db2dcc703c0e500b653ca82273b7bfad8045d85a470"
          ],
          "data": "0x00000000000000000000000000000000000000000000000000000000000000060000000000000000000000000000000000000000000000000000000000000120000000000000000000000000000000000000000000000000000000000000016000000000000000000000000000000000000000000000000000000000000001a000000000000000000000000000000000000000000000000000000000000001e00000000000000000000000000000000000000000000000000000000000000220000000000000000000000000000000000000000000000000000000000000026000000000000000000000000000000000000000000000000000000000000002800000000000000000000000000000000000000000000000000000000000000001000000000000000000000000000000000000000000000000000000000000000b41522d534d4b2d544558540000000000000000000000000000000000000000000000000000000000000000000000000000000000000000000000000000000008534d4b2d544558540000000000000000000000000000000000000000000000000000000000000000000000000000000000000000000000000000000000000013536d6f6b65205465737420417274696661637400000000000000000000000000000000000000000000000000000000000000000000000000000000000000000949616e204d6f6f72650000000000000000000000000000000000000000000000000000000000000000000000000000000000000000000000000000000000000f7368613235363a736d6b2d74657874000000000000000000000000000000000000000000000000000000000000000000000000000000000000000000000000000000000000000000000000000000000000000000000000000000000000000000",
          "blockHash": "0x1245f3e47e6b6bdc94ee35184511eb547870b8ba5f30711500caf9619bd90cc0",
          "blockNumber": "0xb",
          "blockTimestamp": "0x69ce9a03",
          "transactionHash": "0xb778369dc06e74419ec5eb08d484cc63e6861263a8407b329b20ea51aeec1a76",
          "transactionIndex": "0x0",
          "logIndex": "0x0",
          "removed": false
        }
      ],
      "logsBloom": "0x00000000000000000000000000000000000000000000000000000000000000008000000000000000000000000100080000000000000000000000000000000001000000000000000800000000000000000000000000000000000000000000000000000000000000000000000100000000000800000000008000000000000000000000080008000000000000000000000000000000000000000000000000000000000000000000000000000000000000004000001000000000000000000000000000000000000000200000000000000000000000002000000000000000000000000000000000000400000000000000000000000000000000000000000000000000",
      "transactionHash": "0xb778369dc06e74419ec5eb08d484cc63e6861263a8407b329b20ea51aeec1a76",
      "transactionIndex": "0x0",
      "blockHash": "0x1245f3e47e6b6bdc94ee35184511eb547870b8ba5f30711500caf9619bd90cc0",
      "blockNumber": "0xb",
      "gasUsed": "0x71554",
      "effectiveGasPrice": "0x1107eeeb",
      "blobGasPrice": "0x1",
      "from": "0xf39fd6e51aad88f6f4ce6ab8827279cfffb92266",
      "to": "0xcf7ed3acca5a467e9e704c703e8d87f634fb0fc9",
      "contractAddress": null
    },
    {
      "type": "0x2",
      "status": "0x1",
      "cumulativeGasUsed": "0x113df2",
      "logs": [
        {
          "address": "0xcf7ed3acca5a467e9e704c703e8d87f634fb0fc9",
          "topics": [
            "0x97a851988ca44ea18ea43e94298eb9986b0ee33a6181558938dd891fa4ac2ae5",
            "0x9711e3e8de4b29c03711395bfc1bfe268780577eea8b8aa3c31f27465bd46b5d",
            "0x000000000000000000000000f39fd6e51aad88f6f4ce6ab8827279cfffb92266",
            "0xc5d2460186f7233c927e7db2dcc703c0e500b653ca82273b7bfad8045d85a470"
          ],
          "data": "0x00000000000000000000000000000000000000000000000000000000000000090000000000000000000000000000000000000000000000000000000000000120000000000000000000000000000000000000000000000000000000000000016000000000000000000000000000000000000000000000000000000000000001a000000000000000000000000000000000000000000000000000000000000001e00000000000000000000000000000000000000000000000000000000000000220000000000000000000000000000000000000000000000000000000000000026000000000000000000000000000000000000000000000000000000000000002800000000000000000000000000000000000000000000000000000000000000001000000000000000000000000000000000000000000000000000000000000000d41522d534d4b2d5245504f525400000000000000000000000000000000000000000000000000000000000000000000000000000000000000000000000000000a534d4b2d5245504f5254000000000000000000000000000000000000000000000000000000000000000000000000000000000000000000000000000000000013536d6f6b65205465737420417274696661637400000000000000000000000000000000000000000000000000000000000000000000000000000000000000000949616e204d6f6f7265000000000000000000000000000000000000000000000000000000000000000000000000000000000000000000000000000000000000117368613235363a736d6b2d7265706f727400000000000000000000000000000000000000000000000000000000000000000000000000000000000000000000000000000000000000000000000000000000000000000000000000000000000000",
          "blockHash": "0x1245f3e47e6b6bdc94ee35184511eb547870b8ba5f30711500caf9619bd90cc0",
          "blockNumber": "0xb",
          "blockTimestamp": "0x69ce9a03",
          "transactionHash": "0x618e3be3aabb86711baaf155eff765bb3c72f3ff7f90486c1167d0ef028996b1",
          "transactionIndex": "0x1",
          "logIndex": "0x1",
          "removed": false
        }
      ],
      "logsBloom": "0x00000000000000000000000000000800000000000000000000000000000080008000000000000000000000000000080000000000000000000000000000000001000000000000000800000000000000200000000000000000000000000000000000000000000000000000000100000000000000000000008000000000000000000000080008000000000000000000000000000000000000000000000000000000000000000000000000000000000000000000001000000000000000000000000000000000000000200000000000000000000000002000000000000000000000000000000000000400000000000000000000000000000000000000000000000000",
      "transactionHash": "0x618e3be3aabb86711baaf155eff765bb3c72f3ff7f90486c1167d0ef028996b1",
      "transactionIndex": "0x1",
      "blockHash": "0x1245f3e47e6b6bdc94ee35184511eb547870b8ba5f30711500caf9619bd90cc0",
      "blockNumber": "0xb",
      "gasUsed": "0xa289e",
      "effectiveGasPrice": "0x1107eeeb",
      "blobGasPrice": "0x1",
      "from": "0xf39fd6e51aad88f6f4ce6ab8827279cfffb92266",
      "to": "0xcf7ed3acca5a467e9e704c703e8d87f634fb0fc9",
      "contractAddress": null
    },
    {
      "type": "0x2",
      "status": "0x1",
      "cumulativeGasUsed": "0x185466",
      "logs": [
        {
          "address": "0xcf7ed3acca5a467e9e704c703e8d87f634fb0fc9",
          "topics": [
            "0x97a851988ca44ea18ea43e94298eb9986b0ee33a6181558938dd891fa4ac2ae5",
            "0x413be863eb1debf7baee72dc23a8d28c128164fee2f4157b7df57acb86284cb4",
            "0x000000000000000000000000f39fd6e51aad88f6f4ce6ab8827279cfffb92266",
            "0xc5d2460186f7233c927e7db2dcc703c0e500b653ca82273b7bfad8045d85a470"
          ],
          "data": "0x000000000000000000000000000000000000000000000000000000000000000a0000000000000000000000000000000000000000000000000000000000000120000000000000000000000000000000000000000000000000000000000000016000000000000000000000000000000000000000000000000000000000000001a000000000000000000000000000000000000000000000000000000000000001e00000000000000000000000000000000000000000000000000000000000000220000000000000000000000000000000000000000000000000000000000000026000000000000000000000000000000000000000000000000000000000000002800000000000000000000000000000000000000000000000000000000000000001000000000000000000000000000000000000000000000000000000000000000b41522d534d4b2d4e4f54450000000000000000000000000000000000000000000000000000000000000000000000000000000000000000000000000000000008534d4b2d4e4f54450000000000000000000000000000000000000000000000000000000000000000000000000000000000000000000000000000000000000013536d6f6b65205465737420417274696661637400000000000000000000000000000000000000000000000000000000000000000000000000000000000000000949616e204d6f6f72650000000000000000000000000000000000000000000000000000000000000000000000000000000000000000000000000000000000000f7368613235363a736d6b2d6e6f7465000000000000000000000000000000000000000000000000000000000000000000000000000000000000000000000000000000000000000000000000000000000000000000000000000000000000000000",
          "blockHash": "0x1245f3e47e6b6bdc94ee35184511eb547870b8ba5f30711500caf9619bd90cc0",
          "blockNumber": "0xb",
          "blockTimestamp": "0x69ce9a03",
          "transactionHash": "0xa7cee25cd2e82926e62c051de7652055da7bb67639cef1d6ee820e4030979b66",
          "transactionIndex": "0x2",
          "logIndex": "0x2",
          "removed": false
        }
      ],
      "logsBloom": "0x00000000000000000000000000000000000000000000000000000000000000008000000000000000000000000000080000000000000000000000040000000001000000000000000800000000000000000000000000000000000000000000000000000000000000000000000100000000000000040000008000000000000000000000080008000000000000000000000000000000000000000000000000000000000000000000000000000000000000000000001000000000000000000000000000000000000000200000000000000000000000002000000000000000000000000000000000000400000080000000000000000000000000000000000000000000",
      "transactionHash": "0xa7cee25cd2e82926e62c051de7652055da7bb67639cef1d6ee820e4030979b66",
      "transactionIndex": "0x2",
      "blockHash": "0x1245f3e47e6b6bdc94ee35184511eb547870b8ba5f30711500caf9619bd90cc0",
      "blockNumber": "0xb",
      "gasUsed": "0x71674",
      "effectiveGasPrice": "0x1107eeeb",
      "blobGasPrice": "0x1",
      "from": "0xf39fd6e51aad88f6f4ce6ab8827279cfffb92266",
      "to": "0xcf7ed3acca5a467e9e704c703e8d87f634fb0fc9",
      "contractAddress": null
    },
    {
      "type": "0x2",
      "status": "0x1",
      "cumulativeGasUsed": "0xa283e",
      "logs": [
        {
          "address": "0xcf7ed3acca5a467e9e704c703e8d87f634fb0fc9",
          "topics": [
            "0x97a851988ca44ea18ea43e94298eb9986b0ee33a6181558938dd891fa4ac2ae5",
            "0x186c4688e09059d804662a727a2b0a146299d1e95f7419ab55e230d49cb72611",
            "0x000000000000000000000000f39fd6e51aad88f6f4ce6ab8827279cfffb92266",
            "0xc5d2460186f7233c927e7db2dcc703c0e500b653ca82273b7bfad8045d85a470"
          ],
          "data": "0x000000000000000000000000000000000000000000000000000000000000000d0000000000000000000000000000000000000000000000000000000000000120000000000000000000000000000000000000000000000000000000000000016000000000000000000000000000000000000000000000000000000000000001a000000000000000000000000000000000000000000000000000000000000001e00000000000000000000000000000000000000000000000000000000000000220000000000000000000000000000000000000000000000000000000000000026000000000000000000000000000000000000000000000000000000000000002800000000000000000000000000000000000000000000000000000000000000001000000000000000000000000000000000000000000000000000000000000000e41522d534d4b2d52454345495054000000000000000000000000000000000000000000000000000000000000000000000000000000000000000000000000000b534d4b2d524543454950540000000000000000000000000000000000000000000000000000000000000000000000000000000000000000000000000000000013536d6f6b65205465737420417274696661637400000000000000000000000000000000000000000000000000000000000000000000000000000000000000000949616e204d6f6f7265000000000000000000000000000000000000000000000000000000000000000000000000000000000000000000000000000000000000127368613235363a736d6b2d72656365697074000000000000000000000000000000000000000000000000000000000000000000000000000000000000000000000000000000000000000000000000000000000000000000000000000000000000",
          "blockHash": "0x1652eec75af2f38c04990cf505bbe35f498137988e0c55060c965dc5724768fc",
          "blockNumber": "0xc",
          "blockTimestamp": "0x69ce9a03",
          "transactionHash": "0x0a0740a1e5289ed39603467a7d7cedf9430b8c1570001e296d9e04f7c28d6a8d",
          "transactionIndex": "0x0",
          "logIndex": "0x0",
          "removed": false
        }
      ],
      "logsBloom": "0x00000000000000000000000000000000000000000000000000000000000000008000000000000000000001000000080000000000000000000000000000000001000000000000000800000000000000000000000000000000000000000000000000000000400000000000000100000000000000000000008000000000000000000000080008000000000000000000000000000000000000000000000000000000000000000000000000000000000000000000001000000000000000000000000000000000000000200000000000000000000000002000000000000040000000000000000000000400000000000000000000000000000000000000000000000000",
      "transactionHash": "0x0a0740a1e5289ed39603467a7d7cedf9430b8c1570001e296d9e04f7c28d6a8d",
      "transactionIndex": "0x0",
      "blockHash": "0x1652eec75af2f38c04990cf505bbe35f498137988e0c55060c965dc5724768fc",
      "blockNumber": "0xc",
      "gasUsed": "0xa283e",
      "effectiveGasPrice": "0xf20df87",
      "blobGasPrice": "0x1",
      "from": "0xf39fd6e51aad88f6f4ce6ab8827279cfffb92266",
      "to": "0xcf7ed3acca5a467e9e704c703e8d87f634fb0fc9",
      "contractAddress": null
    },
    {
      "type": "0x2",
      "status": "0x1",
      "cumulativeGasUsed": "0x71647",
      "logs": [
        {
          "address": "0xcf7ed3acca5a467e9e704c703e8d87f634fb0fc9",
          "topics": [
            "0x97a851988ca44ea18ea43e94298eb9986b0ee33a6181558938dd891fa4ac2ae5",
            "0xa15ebd6df38d24807fa9d05662eeeda4b63432ec096b4ef42999f904839f2442",
            "0x000000000000000000000000f39fd6e51aad88f6f4ce6ab8827279cfffb92266",
            "0xc5d2460186f7233c927e7db2dcc703c0e500b653ca82273b7bfad8045d85a470"
          ],
          "data": "0x00000000000000000000000000000000000000000000000000000000000000160000000000000000000000000000000000000000000000000000000000000120000000000000000000000000000000000000000000000000000000000000016000000000000000000000000000000000000000000000000000000000000001a000000000000000000000000000000000000000000000000000000000000001e00000000000000000000000000000000000000000000000000000000000000220000000000000000000000000000000000000000000000000000000000000026000000000000000000000000000000000000000000000000000000000000002800000000000000000000000000000000000000000000000000000000000000001000000000000000000000000000000000000000000000000000000000000000c41522d534d4b2d4f5448455200000000000000000000000000000000000000000000000000000000000000000000000000000000000000000000000000000009534d4b2d4f5448455200000000000000000000000000000000000000000000000000000000000000000000000000000000000000000000000000000000000013536d6f6b65205465737420417274696661637400000000000000000000000000000000000000000000000000000000000000000000000000000000000000000949616e204d6f6f7265000000000000000000000000000000000000000000000000000000000000000000000000000000000000000000000000000000000000107368613235363a736d6b2d6f746865720000000000000000000000000000000000000000000000000000000000000000000000000000000000000000000000000000000000000000000000000000000000000000000000000000000000000000",
          "blockHash": "0x619b8c448f2506f9295c4780b6715c6e3ba830130bd37e6c10163733a21dbcfe",
          "blockNumber": "0xd",
          "blockTimestamp": "0x69ce9a03",
          "transactionHash": "0x7aad7fb2eb9e4bbbe7d5b9d2d32e34369f99c0f8bcb581b5abd085fffd779507",
          "transactionIndex": "0x0",
          "logIndex": "0x0",
          "removed": false
        }
      ],
      "logsBloom": "0x00000000000000000004000000000000000000000000000000000000000000008000000000000000000000000002080000000000000000000000000000000001000020000000000800000000000000000000000000000000000000000000000000000000000000000000000100000000000000000000008000000000000000000000080008000000000000000000000000000000000000000000000000000000000000000000000000000000000000000000001000000000000000000000000000000000000000200000000000000000000000002000000000000000000000000000000000000400000000000000000000000000000000000000000000000000",
      "transactionHash": "0x7aad7fb2eb9e4bbbe7d5b9d2d32e34369f99c0f8bcb581b5abd085fffd779507",
      "transactionIndex": "0x0",
      "blockHash": "0x619b8c448f2506f9295c4780b6715c6e3ba830130bd37e6c10163733a21dbcfe",
      "blockNumber": "0xd",
      "gasUsed": "0x71647",
      "effectiveGasPrice": "0xd523f60",
      "blobGasPrice": "0x1",
      "from": "0xf39fd6e51aad88f6f4ce6ab8827279cfffb92266",
      "to": "0xcf7ed3acca5a467e9e704c703e8d87f634fb0fc9",
      "contractAddress": null
    },
    {
      "type": "0x2",
      "status": "0x1",
      "cumulativeGasUsed": "0xc206f",
      "logs": [
        {
          "address": "0xcf7ed3acca5a467e9e704c703e8d87f634fb0fc9",
          "topics": [
            "0x97a851988ca44ea18ea43e94298eb9986b0ee33a6181558938dd891fa4ac2ae5",
            "0x3e74faf477099a8e66b1d274b087c918129be4aacdc52f33aee532083d2d330f",
            "0x000000000000000000000000f39fd6e51aad88f6f4ce6ab8827279cfffb92266",
            "0xc5d2460186f7233c927e7db2dcc703c0e500b653ca82273b7bfad8045d85a470"
          ],
          "data": "0x000000000000000000000000000000000000000000000000000000000000000b0000000000000000000000000000000000000000000000000000000000000120000000000000000000000000000000000000000000000000000000000000016000000000000000000000000000000000000000000000000000000000000001a000000000000000000000000000000000000000000000000000000000000001e00000000000000000000000000000000000000000000000000000000000000220000000000000000000000000000000000000000000000000000000000000026000000000000000000000000000000000000000000000000000000000000002800000000000000000000000000000000000000000000000000000000000000001000000000000000000000000000000000000000000000000000000000000000e41522d534d4b2d57454253495445000000000000000000000000000000000000000000000000000000000000000000000000000000000000000000000000000b534d4b2d574542534954450000000000000000000000000000000000000000000000000000000000000000000000000000000000000000000000000000000013536d6f6b65205465737420417274696661637400000000000000000000000000000000000000000000000000000000000000000000000000000000000000000949616e204d6f6f7265000000000000000000000000000000000000000000000000000000000000000000000000000000000000000000000000000000000000127368613235363a736d6b2d77656273697465000000000000000000000000000000000000000000000000000000000000000000000000000000000000000000000000000000000000000000000000000000000000000000000000000000000000",
          "blockHash": "0x619b8c448f2506f9295c4780b6715c6e3ba830130bd37e6c10163733a21dbcfe",
          "blockNumber": "0xd",
          "blockTimestamp": "0x69ce9a03",
          "transactionHash": "0x61d9eaca43509e8d12ac26c911497539752d94bfdef610647a5fd8f40601f768",
          "transactionIndex": "0x1",
          "logIndex": "0x1",
          "removed": false
        }
      ],
      "logsBloom": "0x00000000000000000000000000000000000000000000000000010000000000008000000000000000000000000000080000000000000000000000000000000001000000000000000800000000000000000000000000000000001000000000000008000000000000000000000100000000000000000000008000000000000000000000080008000000000000000000000000000000000000000000000000000000000000000000000000000000000000000000001000000000000000000000000000000000000000200000000000000000000000002000000000000000000000000000000000000400000000000000000000000000000000000000000000000000",
      "transactionHash": "0x61d9eaca43509e8d12ac26c911497539752d94bfdef610647a5fd8f40601f768",
      "transactionIndex": "0x1",
      "blockHash": "0x619b8c448f2506f9295c4780b6715c6e3ba830130bd37e6c10163733a21dbcfe",
      "blockNumber": "0xd",
      "gasUsed": "0x50a28",
      "effectiveGasPrice": "0xd523f60",
      "blobGasPrice": "0x1",
      "from": "0xf39fd6e51aad88f6f4ce6ab8827279cfffb92266",
      "to": "0xcf7ed3acca5a467e9e704c703e8d87f634fb0fc9",
      "contractAddress": null
    },
    {
      "type": "0x2",
      "status": "0x1",
      "cumulativeGasUsed": "0xf99c2",
      "logs": [
        {
          "address": "0xcf7ed3acca5a467e9e704c703e8d87f634fb0fc9",
          "topics": [
            "0x97a851988ca44ea18ea43e94298eb9986b0ee33a6181558938dd891fa4ac2ae5",
            "0xd5fa284203357206c7099f578be421a81b98cb2cfd96f4f13d4e472bd2e57de9",
            "0x000000000000000000000000f39fd6e51aad88f6f4ce6ab8827279cfffb92266",
            "0xc5d2460186f7233c927e7db2dcc703c0e500b653ca82273b7bfad8045d85a470"
          ],
          "data": "0x00000000000000000000000000000000000000000000000000000000000000110000000000000000000000000000000000000000000000000000000000000120000000000000000000000000000000000000000000000000000000000000016000000000000000000000000000000000000000000000000000000000000001a000000000000000000000000000000000000000000000000000000000000001e00000000000000000000000000000000000000000000000000000000000000220000000000000000000000000000000000000000000000000000000000000026000000000000000000000000000000000000000000000000000000000000002a000000000000000000000000000000000000000000000000000000000deadbeef000000000000000000000000000000000000000000000000000000000000000e41522d534d4b2d52455452414354000000000000000000000000000000000000000000000000000000000000000000000000000000000000000000000000000b534d4b2d524554524143540000000000000000000000000000000000000000000000000000000000000000000000000000000000000000000000000000000013536d6f6b65205465737420417274696661637400000000000000000000000000000000000000000000000000000000000000000000000000000000000000000949616e204d6f6f7265000000000000000000000000000000000000000000000000000000000000000000000000000000000000000000000000000000000000127368613235363a736d6b2d726574726163740000000000000000000000000000000000000000000000000000000000000000000000000000000000000000000b41522d534d4b2d434f44450000000000000000000000000000000000000000000000000000000000000000000000000000000000000000000000000000000000",
          "blockHash": "0x619b8c448f2506f9295c4780b6715c6e3ba830130bd37e6c10163733a21dbcfe",
          "blockNumber": "0xd",
          "blockTimestamp": "0x69ce9a03",
          "transactionHash": "0xbba48c83af0dd1292e2feefa4f7db4c1eeacb4ce0e1a1273c6912ca31237d3d8",
          "transactionIndex": "0x2",
          "logIndex": "0x2",
          "removed": false
        },
        {
          "address": "0xcf7ed3acca5a467e9e704c703e8d87f634fb0fc9",
          "topics": [
            "0xaf0c98c5c4879ef897a044cdac758c7bd233c9d4ac8cdbb360f44280e7b0047d",
            "0xd5fa284203357206c7099f578be421a81b98cb2cfd96f4f13d4e472bd2e57de9",
            "0x4ccbf0e3221225e11677ab0775940551b3f3baeb43004a6c80079ec057564d0c"
          ],
          "data": "0x00000000000000000000000000000000000000000000000000000000000000200000000000000000000000000000000000000000000000000000000000000000",
          "blockHash": "0x619b8c448f2506f9295c4780b6715c6e3ba830130bd37e6c10163733a21dbcfe",
          "blockNumber": "0xd",
          "blockTimestamp": "0x69ce9a03",
          "transactionHash": "0xbba48c83af0dd1292e2feefa4f7db4c1eeacb4ce0e1a1273c6912ca31237d3d8",
          "transactionIndex": "0x2",
          "logIndex": "0x3",
          "removed": false
        }
      ],
      "logsBloom": "0x00000000000000000000000000000000000000000000000000000200000000008000000000000000000000000000080000000000000000002000000000000001000000000000000800000000000000000000000000000000000000000000000000000000000000000000000100000000000000000000008000000000000000000000080008000000000000000000000000000000000000000100000000000000000100000000000000002000000000000000001000000100000100000000000000000000000000200000080000000000000000002000000000000000000000000000000000000400000000000010000000000000000000000000000000000000",
      "transactionHash": "0xbba48c83af0dd1292e2feefa4f7db4c1eeacb4ce0e1a1273c6912ca31237d3d8",
      "transactionIndex": "0x2",
      "blockHash": "0x619b8c448f2506f9295c4780b6715c6e3ba830130bd37e6c10163733a21dbcfe",
      "blockNumber": "0xd",
      "gasUsed": "0x37953",
      "effectiveGasPrice": "0xd523f60",
      "blobGasPrice": "0x1",
      "from": "0xf39fd6e51aad88f6f4ce6ab8827279cfffb92266",
      "to": "0xcf7ed3acca5a467e9e704c703e8d87f634fb0fc9",
      "contractAddress": null
    }
  ],
  "libraries": [],
  "pending": [],
  "returns": {},
  "timestamp": 1775147523428,
  "chain": 31337,
  "commit": "1ec3be7"
}