{
  "transactions": [
    {
      "hash": "0xe369b64a63f8b9326e30f25d8226726ab1b23b9bfee6b68a1a8fb9a4f04f9f61",
      "transactionType": "CALL",
      "contractName": null,
      "contractAddress": "0x5fbdb2315678afecb367f032d93f642f64180aa3",
      "function": "registerContent(string,(uint8,string,string,string,string,string,string),bytes,bytes32)",
      "arguments": [
        "AR-SMK-CODE",
        "(0, sha256:smk-code, , SMK-CODE, Smoke Test Artifact, Ian Moore, )",
        "0x00000000000000000000000000000000000000000000000000000000000000a000000000000000000000000000000000000000000000000000000000000000e00000000000000000000000000000000000000000000000000000000000000120000000000000000000000000000000000000000000000000000000000000016000000000000000000000000000000000000000000000000000000000000001a000000000000000000000000000000000000000000000000000000000000000096769743a736d6f6b65000000000000000000000000000000000000000000000000000000000000000000000000000000000000000000000000000000000000034d495400000000000000000000000000000000000000000000000000000000000000000000000000000000000000000000000000000000000000000000000008536f6c6964697479000000000000000000000000000000000000000000000000000000000000000000000000000000000000000000000000000000000000000676312e302e300000000000000000000000000000000000000000000000000000000000000000000000000000000000000000000000000000000000000000001768747470733a2f2f6769746875622e636f6d2f74657374000000000000000000",
        "0x0000000000000000000000000000000000000000000000000000000000000001"
      ],
      "transaction": {
        "from": "0x3c44cdddb6a900fa2b585dd299e03d12fa4293bc",
        "to": "0x5fbdb2315678afecb367f032d93f642f64180aa3",
        "gas": "0x95c1f",
        "value": "0x0",
        "input": "0xcf8bc4b6000000000000000000000000000000000000000000000000000000000000008000000000000000000000000000000000000000000000000000000000000000c000000000000000000000000000000000000000000000000000000000000002e00000000000000000000000000000000000000000000000000000000000000001000000000000000000000000000000000000000000000000000000000000000b41522d534d4b2d434f4445000000000000000000000000000000000000000000000000000000000000000000000000000000000000000000000000000000000000000000000000000000000000000000000000000000000000000000000000e000000000000000000000000000000000000000000000000000000000000001200000000000000000000000000000000000000000000000000000000000000140000000000000000000000000000000000000000000000000000000000000018000000000000000000000000000000000000000000000000000000000000001c00000000000000000000000000000000000000000000000000000000000000200000000000000000000000000000000000000000000000000000000000000000f7368613235363a736d6b2d636f6465000000000000000000000000000000000000000000000000000000000000000000000000000000000000000000000000000000000000000000000000000000000000000000000000000000000000000008534d4b2d434f44450000000000000000000000000000000000000000000000000000000000000000000000000000000000000000000000000000000000000013536d6f6b65205465737420417274696661637400000000000000000000000000000000000000000000000000000000000000000000000000000000000000000949616e204d6f6f72650000000000000000000000000000000000000000000000000000000000000000000000000000000000000000000000000000000000000000000000000000000000000000000000000000000000000000000000000001e000000000000000000000000000000000000000000000000000000000000000a000000000000000000000000000000000000000000000000000000000000000e00000000000000000000000000000000000000000000000000000000000000120000000000000000000000000000000000000000000000000000000000000016000000000000000000000000000000000000000000000000000000000000001a000000000000000000000000000000000000000000000000000000000000000096769743a736d6f6b65000000000000000000000000000000000000000000000000000000000000000000000000000000000000000000000000000000000000034d495400000000000000000000000000000000000000000000000000000000000000000000000000000000000000000000000000000000000000000000000008536f6c6964697479000000000000000000000000000000000000000000000000000000000000000000000000000000000000000000000000000000000000000676312e302e300000000000000000000000000000000000000000000000000000000000000000000000000000000000000000000000000000000000000000001768747470733a2f2f6769746875622e636f6d2f74657374000000000000000000",
        "nonce": "0x0",
        "chainId": "0x7a69"
      },
      "additionalContracts": [],
      "isFixedGasLimit": false
    },
    {
      "hash": "0x53eb3dbdda433cd9a8bffdc561c1bd33642e4d185a3be5fa9914af8fa55b9a0b",
      "transactionType": "CALL",
      "contractName": null,
      "contractAddress": "0x5fbdb2315678afecb367f032d93f642f64180aa3",
      "function": "registerContent(string,(uint8,string,string,string,string,string,string),bytes,bytes32)",
      "arguments": [
        "AR-SMK-MEDIA",
        "(5, sha256:smk-media, , SMK-MEDIA, Smoke Test Artifact, Ian Moore, )",
        "0x00000000000000000000000000000000000000000000000000000000000000c000000000000000000000000000000000000000000000000000000000000001000000000000000000000000000000000000000000000000000000000000000140000000000000000000000000000000000000000000000000000000000000018000000000000000000000000000000000000000000000000000000000000001c000000000000000000000000000000000000000000000000000000000000002000000000000000000000000000000000000000000000000000000000000000009766964656f2f6d703400000000000000000000000000000000000000000000000000000000000000000000000000000000000000000000000000000000000007596f75547562650000000000000000000000000000000000000000000000000000000000000000000000000000000000000000000000000000000000000000034d503400000000000000000000000000000000000000000000000000000000000000000000000000000000000000000000000000000000000000000000000004333a34350000000000000000000000000000000000000000000000000000000000000000000000000000000000000000000000000000000000000000000000095553524331323334350000000000000000000000000000000000000000000000000000000000000000000000000000000000000000000000000000000000001868747470733a2f2f796f75747562652e636f6d2f746573740000000000000000",
        "0x0000000000000000000000000000000000000000000000000000000000000001"
      ],
      "transaction": {
        "from": "0x3c44cdddb6a900fa2b585dd299e03d12fa4293bc",
        "to": "0x5fbdb2315678afecb367f032d93f642f64180aa3",
        "gas": "0xb3185",
        "value": "0x0",
        "input": "0xcf8bc4b6000000000000000000000000000000000000000000000000000000000000008000000000000000000000000000000000000000000000000000000000000000c000000000000000000000000000000000000000000000000000000000000002e00000000000000000000000000000000000000000000000000000000000000001000000000000000000000000000000000000000000000000000000000000000c41522d534d4b2d4d454449410000000000000000000000000000000000000000000000000000000000000000000000000000000000000000000000000000000500000000000000000000000000000000000000000000000000000000000000e000000000000000000000000000000000000000000000000000000000000001200000000000000000000000000000000000000000000000000000000000000140000000000000000000000000000000000000000000000000000000000000018000000000000000000000000000000000000000000000000000000000000001c0000000000000000000000000000000000000000000000000000000000000020000000000000000000000000000000000000000000000000000000000000000107368613235363a736d6b2d6d656469610000000000000000000000000000000000000000000000000000000000000000000000000000000000000000000000000000000000000000000000000000000000000000000000000000000000000009534d4b2d4d4544494100000000000000000000000000000000000000000000000000000000000000000000000000000000000000000000000000000000000013536d6f6b65205465737420417274696661637400000000000000000000000000000000000000000000000000000000000000000000000000000000000000000949616e204d6f6f726500000000000000000000000000000000000000000000000000000000000000000000000000000000000000000000000000000000000000000000000000000000000000000000000000000000000000000000000000024000000000000000000000000000000000000000000000000000000000000000c000000000000000000000000000000000000000000000000000000000000001000000000000000000000000000000000000000000000000000000000000000140000000000000000000000000000000000000000000000000000000000000018000000000000000000000000000000000000000000000000000000000000001c000000000000000000000000000000000000000000000000000000000000002000000000000000000000000000000000000000000000000000000000000000009766964656f2f6d703400000000000000000000000000000000000000000000000000000000000000000000000000000000000000000000000000000000000007596f75547562650000000000000000000000000000000000000000000000000000000000000000000000000000000000000000000000000000000000000000034d503400000000000000000000000000000000000000000000000000000000000000000000000000000000000000000000000000000000000000000000000004333a34350000000000000000000000000000000000000000000000000000000000000000000000000000000000000000000000000000000000000000000000095553524331323334350000000000000000000000000000000000000000000000000000000000000000000000000000000000000000000000000000000000001868747470733a2f2f796f75747562652e636f6d2f746573740000000000000000",
        "nonce": "0x1",
        "chainId": "0x7a69"
      },
      "additionalContracts": [],
      "isFixedGasLimit": false
    },
    {
      "hash": "0x2b2238e205f3e6fbb9f62ebf2bbb3165d9a2041d7ce8680712d7c9f3b0f79e09",
      "transactionType": "CALL",
      "contractName": null,
      "contractAddress": "0x5fbdb2315678afecb367f032d93f642f64180aa3",
      "function": "registerContent(string,(uint8,string,string,string,string,string,string),bytes,bytes32)",
      "arguments": [
        "AR-SMK-TEXT",
        "(6, sha256:smk-text, , SMK-TEXT, Smoke Test Artifact, Ian Moore, )",
        "0x00000000000000000000000000000000000000000000000000000000000000a000000000000000000000000000000000000000000000000000000000000000e00000000000000000000000000000000000000000000000000000000000000120000000000000000000000000000000000000000000000000000000000000016000000000000000000000000000000000000000000000000000000000000001a0000000000000000000000000000000000000000000000000000000000000000741525449434c450000000000000000000000000000000000000000000000000000000000000000000000000000000000000000000000000000000000000000113937382d332d31362d3134383431302d3000000000000000000000000000000000000000000000000000000000000000000000000000000000000000000000084f275265696c6c790000000000000000000000000000000000000000000000000000000000000000000000000000000000000000000000000000000000000007456e676c69736800000000000000000000000000000000000000000000000000000000000000000000000000000000000000000000000000000000000000001b68747470733a2f2f6578616d706c652e636f6d2f61727469636c650000000000",
        "0x0000000000000000000000000000000000000000000000000000000000000001"
      ],
      "transaction": {
        "from": "0x3c44cdddb6a900fa2b585dd299e03d12fa4293bc",
        "to": "0x5fbdb2315678afecb367f032d93f642f64180aa3",
        "gas": "0x9c8a8",
        "value": "0x0",
        "input": "0xcf8bc4b6000000000000000000000000000000000000000000000000000000000000008000000000000000000000000000000000000000000000000000000000000000c000000000000000000000000000000000000000000000000000000000000002e00000000000000000000000000000000000000000000000000000000000000001000000000000000000000000000000000000000000000000000000000000000b41522d534d4b2d54455854000000000000000000000000000000000000000000000000000000000000000000000000000000000000000000000000000000000600000000000000000000000000000000000000000000000000000000000000e000000000000000000000000000000000000000000000000000000000000001200000000000000000000000000000000000000000000000000000000000000140000000000000000000000000000000000000000000000000000000000000018000000000000000000000000000000000000000000000000000000000000001c00000000000000000000000000000000000000000000000000000000000000200000000000000000000000000000000000000000000000000000000000000000f7368613235363a736d6b2d74657874000000000000000000000000000000000000000000000000000000000000000000000000000000000000000000000000000000000000000000000000000000000000000000000000000000000000000008534d4b2d544558540000000000000000000000000000000000000000000000000000000000000000000000000000000000000000000000000000000000000013536d6f6b65205465737420417274696661637400000000000000000000000000000000000000000000000000000000000000000000000000000000000000000949616e204d6f6f72650000000000000000000000000000000000000000000000000000000000000000000000000000000000000000000000000000000000000000000000000000000000000000000000000000000000000000000000000001e000000000000000000000000000000000000000000000000000000000000000a000000000000000000000000000000000000000000000000000000000000000e00000000000000000000000000000000000000000000000000000000000000120000000000000000000000000000000000000000000000000000000000000016000000000000000000000000000000000000000000000000000000000000001a0000000000000000000000000000000000000000000000000000000000000000741525449434c450000000000000000000000000000000000000000000000000000000000000000000000000000000000000000000000000000000000000000113937382d332d31362d3134383431302d3000000000000000000000000000000000000000000000000000000000000000000000000000000000000000000000084f275265696c6c790000000000000000000000000000000000000000000000000000000000000000000000000000000000000000000000000000000000000007456e676c69736800000000000000000000000000000000000000000000000000000000000000000000000000000000000000000000000000000000000000001b68747470733a2f2f6578616d706c652e636f6d2f61727469636c650000000000",
        "nonce": "0x2",
        "chainId": "0x7a69"
      },
      "additionalContracts": [],
      "isFixedGasLimit": false
    },
    {
      "hash": "0x39db1e0cb5318605cda35e64db919da43aac9ca9b9efd6ca28d410f785e5ab32",
      "transactionType": "CALL",
      "contractName": null,
      "contractAddress": "0x5fbdb2315678afecb367f032d93f642f64180aa3",
      "function": "registerContent(string,(uint8,string,string,string,string,string,string),bytes,bytes32)",
      "arguments": [
        "AR-SMK-REPORT",
        "(9, sha256:smk-report, , SMK-REPORT, Smoke Test Artifact, Ian Moore, )",
        "0x00000000000000000000000000000000000000000000000000000000000001000000000000000000000000000000000000000000000000000000000000000140000000000000000000000000000000000000000000000000000000000000018000000000000000000000000000000000000000000000000000000000000001c000000000000000000000000000000000000000000000000000000000000002000000000000000000000000000000000000000000000000000000000000000240000000000000000000000000000000000000000000000000000000000000028000000000000000000000000000000000000000000000000000000000000002c0000000000000000000000000000000000000000000000000000000000000000a434f4e53554c54494e4700000000000000000000000000000000000000000000000000000000000000000000000000000000000000000000000000000000000941636d6520436f72700000000000000000000000000000000000000000000000000000000000000000000000000000000000000000000000000000000000000b534d4b2d454e472d303031000000000000000000000000000000000000000000000000000000000000000000000000000000000000000000000000000000000566696e616c000000000000000000000000000000000000000000000000000000000000000000000000000000000000000000000000000000000000000000000949616e204d6f6f72650000000000000000000000000000000000000000000000000000000000000000000000000000000000000000000000000000000000000d486976652041647669736f727900000000000000000000000000000000000000000000000000000000000000000000000000000000000000000000000000001a68747470733a2f2f6578616d706c652e636f6d2f7265706f7274000000000000000000000000000000000000000000000000000000000000000000000000001d7368613235363a7265706f72742d6d616e69666573742d616263313233000000",
        "0x0000000000000000000000000000000000000000000000000000000000000001"
      ],
      "transaction": {
        "from": "0x3c44cdddb6a900fa2b585dd299e03d12fa4293bc",
        "to": "0x5fbdb2315678afecb367f032d93f642f64180aa3",
        "gas": "0xe0819",
        "value": "0x0",
        "input": "0xcf8bc4b6000000000000000000000000000000000000000000000000000000000000008000000000000000000000000000000000000000000000000000000000000000c000000000000000000000000000000000000000000000000000000000000002e00000000000000000000000000000000000000000000000000000000000000001000000000000000000000000000000000000000000000000000000000000000d41522d534d4b2d5245504f525400000000000000000000000000000000000000000000000000000000000000000000000000000000000000000000000000000900000000000000000000000000000000000000000000000000000000000000e000000000000000000000000000000000000000000000000000000000000001200000000000000000000000000000000000000000000000000000000000000140000000000000000000000000000000000000000000000000000000000000018000000000000000000000000000000000000000000000000000000000000001c0000000000000000000000000000000000000000000000000000000000000020000000000000000000000000000000000000000000000000000000000000000117368613235363a736d6b2d7265706f72740000000000000000000000000000000000000000000000000000000000000000000000000000000000000000000000000000000000000000000000000000000000000000000000000000000000000a534d4b2d5245504f5254000000000000000000000000000000000000000000000000000000000000000000000000000000000000000000000000000000000013536d6f6b65205465737420417274696661637400000000000000000000000000000000000000000000000000000000000000000000000000000000000000000949616e204d6f6f726500000000000000000000000000000000000000000000000000000000000000000000000000000000000000000000000000000000000000000000000000000000000000000000000000000000000000000000000000030000000000000000000000000000000000000000000000000000000000000001000000000000000000000000000000000000000000000000000000000000000140000000000000000000000000000000000000000000000000000000000000018000000000000000000000000000000000000000000000000000000000000001c000000000000000000000000000000000000000000000000000000000000002000000000000000000000000000000000000000000000000000000000000000240000000000000000000000000000000000000000000000000000000000000028000000000000000000000000000000000000000000000000000000000000002c0000000000000000000000000000000000000000000000000000000000000000a434f4e53554c54494e4700000000000000000000000000000000000000000000000000000000000000000000000000000000000000000000000000000000000941636d6520436f72700000000000000000000000000000000000000000000000000000000000000000000000000000000000000000000000000000000000000b534d4b2d454e472d303031000000000000000000000000000000000000000000000000000000000000000000000000000000000000000000000000000000000566696e616c000000000000000000000000000000000000000000000000000000000000000000000000000000000000000000000000000000000000000000000949616e204d6f6f72650000000000000000000000000000000000000000000000000000000000000000000000000000000000000000000000000000000000000d486976652041647669736f727900000000000000000000000000000000000000000000000000000000000000000000000000000000000000000000000000001a68747470733a2f2f6578616d706c652e636f6d2f7265706f7274000000000000000000000000000000000000000000000000000000000000000000000000001d7368613235363a7265706f72742d6d616e69666573742d616263313233000000",
        "nonce": "0x3",
        "chainId": "0x7a69"
      },
      "additionalContracts": [],
      "isFixedGasLimit": false
    },
    {
      "hash": "0x63e0a9a3f55298f7c145d5d78b3299c8b27379066fbbe596b5d5c32020004835",
      "transactionType": "CALL",
      "contractName": null,
      "contractAddress": "0x5fbdb2315678afecb367f032d93f642f64180aa3",
      "function": "registerContent(string,(uint8,string,string,string,string,string,string),bytes,bytes32)",
      "arguments": [
        "AR-SMK-NOTE",
        "(10, sha256:smk-note, , SMK-NOTE, Smoke Test Artifact, Ian Moore, )",
        "0x00000000000000000000000000000000000000000000000000000000000000a000000000000000000000000000000000000000000000000000000000000000e00000000000000000000000000000000000000000000000000000000000000120000000000000000000000000000000000000000000000000000000000000016000000000000000000000000000000000000000000000000000000000000001a000000000000000000000000000000000000000000000000000000000000000074d454554494e4700000000000000000000000000000000000000000000000000000000000000000000000000000000000000000000000000000000000000000a323032362d30332d333000000000000000000000000000000000000000000000000000000000000000000000000000000000000000000000000000000000001549616e204d6f6f72652c204a616e6520536d6974680000000000000000000000000000000000000000000000000000000000000000000000000000000000001968747470733a2f2f6578616d706c652e636f6d2f6e6f74657300000000000000000000000000000000000000000000000000000000000000000000000000001b7368613235363a6e6f74652d6d616e69666573742d6465663435360000000000",
        "0x0000000000000000000000000000000000000000000000000000000000000001"
      ],
      "transaction": {
        "from": "0x3c44cdddb6a900fa2b585dd299e03d12fa4293bc",
        "to": "0x5fbdb2315678afecb367f032d93f642f64180aa3",
        "gas": "0x9ca36",
        "value": "0x0",
        "input": "0xcf8bc4b6000000000000000000000000000000000000000000000000000000000000008000000000000000000000000000000000000000000000000000000000000000c000000000000000000000000000000000000000000000000000000000000002e00000000000000000000000000000000000000000000000000000000000000001000000000000000000000000000000000000000000000000000000000000000b41522d534d4b2d4e4f5445000000000000000000000000000000000000000000000000000000000000000000000000000000000000000000000000000000000a00000000000000000000000000000000000000000000000000000000000000e000000000000000000000000000000000000000000000000000000000000001200000000000000000000000000000000000000000000000000000000000000140000000000000000000000000000000000000000000000000000000000000018000000000000000000000000000000000000000000000000000000000000001c00000000000000000000000000000000000000000000000000000000000000200000000000000000000000000000000000000000000000000000000000000000f7368613235363a736d6b2d6e6f7465000000000000000000000000000000000000000000000000000000000000000000000000000000000000000000000000000000000000000000000000000000000000000000000000000000000000000008534d4b2d4e4f54450000000000000000000000000000000000000000000000000000000000000000000000000000000000000000000000000000000000000013536d6f6b65205465737420417274696661637400000000000000000000000000000000000000000000000000000000000000000000000000000000000000000949616e204d6f6f72650000000000000000000000000000000000000000000000000000000000000000000000000000000000000000000000000000000000000000000000000000000000000000000000000000000000000000000000000001e000000000000000000000000000000000000000000000000000000000000000a000000000000000000000000000000000000000000000000000000000000000e00000000000000000000000000000000000000000000000000000000000000120000000000000000000000000000000000000000000000000000000000000016000000000000000000000000000000000000000000000000000000000000001a000000000000000000000000000000000000000000000000000000000000000074d454554494e4700000000000000000000000000000000000000000000000000000000000000000000000000000000000000000000000000000000000000000a323032362d30332d333000000000000000000000000000000000000000000000000000000000000000000000000000000000000000000000000000000000001549616e204d6f6f72652c204a616e6520536d6974680000000000000000000000000000000000000000000000000000000000000000000000000000000000001968747470733a2f2f6578616d706c652e636f6d2f6e6f74657300000000000000000000000000000000000000000000000000000000000000000000000000001b7368613235363a6e6f74652d6d616e69666573742d6465663435360000000000",
        "nonce": "0x4",
        "chainId": "0x7a69"
      },
      "additionalContracts": [],
      "isFixedGasLimit": false
    },
    {
      "hash": "0x33b4724ce03a6229baf89c384b11162ee135ae14b5bc0d34ef43409fca6edfdf",
      "transactionType": "CALL",
      "contractName": null,
      "contractAddress": "0x5fbdb2315678afecb367f032d93f642f64180aa3",
      "function": "registerContent(string,(uint8,string,string,string,string,string,string),bytes,bytes32)",
      "arguments": [
        "AR-SMK-RECEIPT",
        "(13, sha256:smk-receipt, , SMK-RECEIPT, Smoke Test Artifact, Ian Moore, )",
        "0x00000000000000000000000000000000000000000000000000000000000001000000000000000000000000000000000000000000000000000000000000000140000000000000000000000000000000000000000000000000000000000000018000000000000000000000000000000000000000000000000000000000000001c000000000000000000000000000000000000000000000000000000000000002000000000000000000000000000000000000000000000000000000000000000240000000000000000000000000000000000000000000000000000000000000028000000000000000000000000000000000000000000000000000000000000002c000000000000000000000000000000000000000000000000000000000000000085055524348415345000000000000000000000000000000000000000000000000000000000000000000000000000000000000000000000000000000000000000757617966616972000000000000000000000000000000000000000000000000000000000000000000000000000000000000000000000000000000000000000007313239392e39390000000000000000000000000000000000000000000000000000000000000000000000000000000000000000000000000000000000000000034341440000000000000000000000000000000000000000000000000000000000000000000000000000000000000000000000000000000000000000000000000b4f52442d534d4b2d303031000000000000000000000000000000000000000000000000000000000000000000000000000000000000000000000000000000000773686f7069667900000000000000000000000000000000000000000000000000000000000000000000000000000000000000000000000000000000000000001c68747470733a2f2f776179666169722e636f6d2f6f72646572732f3100000000000000000000000000000000000000000000000000000000000000000000001e7368613235363a726563656970742d6d616e69666573742d6768693738390000",
        "0x0000000000000000000000000000000000000000000000000000000000000001"
      ],
      "transaction": {
        "from": "0x3c44cdddb6a900fa2b585dd299e03d12fa4293bc",
        "to": "0x5fbdb2315678afecb367f032d93f642f64180aa3",
        "gas": "0xe0794",
        "value": "0x0",
        "input": "0xcf8bc4b6000000000000000000000000000000000000000000000000000000000000008000000000000000000000000000000000000000000000000000000000000000c000000000000000000000000000000000000000000000000000000000000002e00000000000000000000000000000000000000000000000000000000000000001000000000000000000000000000000000000000000000000000000000000000e41522d534d4b2d52454345495054000000000000000000000000000000000000000000000000000000000000000000000000000000000000000000000000000d00000000000000000000000000000000000000000000000000000000000000e000000000000000000000000000000000000000000000000000000000000001200000000000000000000000000000000000000000000000000000000000000140000000000000000000000000000000000000000000000000000000000000018000000000000000000000000000000000000000000000000000000000000001c0000000000000000000000000000000000000000000000000000000000000020000000000000000000000000000000000000000000000000000000000000000127368613235363a736d6b2d7265636569707400000000000000000000000000000000000000000000000000000000000000000000000000000000000000000000000000000000000000000000000000000000000000000000000000000000000b534d4b2d524543454950540000000000000000000000000000000000000000000000000000000000000000000000000000000000000000000000000000000013536d6f6b65205465737420417274696661637400000000000000000000000000000000000000000000000000000000000000000000000000000000000000000949616e204d6f6f726500000000000000000000000000000000000000000000000000000000000000000000000000000000000000000000000000000000000000000000000000000000000000000000000000000000000000000000000000030000000000000000000000000000000000000000000000000000000000000001000000000000000000000000000000000000000000000000000000000000000140000000000000000000000000000000000000000000000000000000000000018000000000000000000000000000000000000000000000000000000000000001c000000000000000000000000000000000000000000000000000000000000002000000000000000000000000000000000000000000000000000000000000000240000000000000000000000000000000000000000000000000000000000000028000000000000000000000000000000000000000000000000000000000000002c000000000000000000000000000000000000000000000000000000000000000085055524348415345000000000000000000000000000000000000000000000000000000000000000000000000000000000000000000000000000000000000000757617966616972000000000000000000000000000000000000000000000000000000000000000000000000000000000000000000000000000000000000000007313239392e39390000000000000000000000000000000000000000000000000000000000000000000000000000000000000000000000000000000000000000034341440000000000000000000000000000000000000000000000000000000000000000000000000000000000000000000000000000000000000000000000000b4f52442d534d4b2d303031000000000000000000000000000000000000000000000000000000000000000000000000000000000000000000000000000000000773686f7069667900000000000000000000000000000000000000000000000000000000000000000000000000000000000000000000000000000000000000001c68747470733a2f2f776179666169722e636f6d2f6f72646572732f3100000000000000000000000000000000000000000000000000000000000000000000001e7368613235363a726563656970742d6d616e69666573742d6768693738390000",
        "nonce": "0x5",
        "chainId": "0x7a69"
      },
      "additionalContracts": [],
      "isFixedGasLimit": false
    },
    {
      "hash": "0x69cd0094e9a45e99aae7b879bbae6a7bf82081bef4748ab858ae7d2783279e99",
      "transactionType": "CALL",
      "contractName": null,
      "contractAddress": "0x5fbdb2315678afecb367f032d93f642f64180aa3",
      "function": "registerContent(string,(uint8,string,string,string,string,string,string),bytes,bytes32)",
      "arguments": [
        "AR-SMK-OTHER",
        "(22, sha256:smk-other, , SMK-OTHER, Smoke Test Artifact, Ian Moore, )",
        "0x00000000000000000000000000000000000000000000000000000000000000a000000000000000000000000000000000000000000000000000000000000000e00000000000000000000000000000000000000000000000000000000000000120000000000000000000000000000000000000000000000000000000000000016000000000000000000000000000000000000000000000000000000000000001a00000000000000000000000000000000000000000000000000000000000000006636f75727365000000000000000000000000000000000000000000000000000000000000000000000000000000000000000000000000000000000000000000095468696e6b696669630000000000000000000000000000000000000000000000000000000000000000000000000000000000000000000000000000000000001a68747470733a2f2f7468696e6b696669632e636f6d2f7465737400000000000000000000000000000000000000000000000000000000000000000000000000084465466920313031000000000000000000000000000000000000000000000000000000000000000000000000000000000000000000000000000000000000001c7368613235363a6f746865722d6d616e69666573742d6a6b6c30313200000000",
        "0x0000000000000000000000000000000000000000000000000000000000000001"
      ],
      "transaction": {
        "from": "0x3c44cdddb6a900fa2b585dd299e03d12fa4293bc",
        "to": "0x5fbdb2315678afecb367f032d93f642f64180aa3",
        "gas": "0x9c9f7",
        "value": "0x0",
        "input": "0xcf8bc4b6000000000000000000000000000000000000000000000000000000000000008000000000000000000000000000000000000000000000000000000000000000c000000000000000000000000000000000000000000000000000000000000002e00000000000000000000000000000000000000000000000000000000000000001000000000000000000000000000000000000000000000000000000000000000c41522d534d4b2d4f544845520000000000000000000000000000000000000000000000000000000000000000000000000000000000000000000000000000001600000000000000000000000000000000000000000000000000000000000000e000000000000000000000000000000000000000000000000000000000000001200000000000000000000000000000000000000000000000000000000000000140000000000000000000000000000000000000000000000000000000000000018000000000000000000000000000000000000000000000000000000000000001c0000000000000000000000000000000000000000000000000000000000000020000000000000000000000000000000000000000000000000000000000000000107368613235363a736d6b2d6f746865720000000000000000000000000000000000000000000000000000000000000000000000000000000000000000000000000000000000000000000000000000000000000000000000000000000000000009534d4b2d4f5448455200000000000000000000000000000000000000000000000000000000000000000000000000000000000000000000000000000000000013536d6f6b65205465737420417274696661637400000000000000000000000000000000000000000000000000000000000000000000000000000000000000000949616e204d6f6f72650000000000000000000000000000000000000000000000000000000000000000000000000000000000000000000000000000000000000000000000000000000000000000000000000000000000000000000000000001e000000000000000000000000000000000000000000000000000000000000000a000000000000000000000000000000000000000000000000000000000000000e00000000000000000000000000000000000000000000000000000000000000120000000000000000000000000000000000000000000000000000000000000016000000000000000000000000000000000000000000000000000000000000001a00000000000000000000000000000000000000000000000000000000000000006636f75727365000000000000000000000000000000000000000000000000000000000000000000000000000000000000000000000000000000000000000000095468696e6b696669630000000000000000000000000000000000000000000000000000000000000000000000000000000000000000000000000000000000001a68747470733a2f2f7468696e6b696669632e636f6d2f7465737400000000000000000000000000000000000000000000000000000000000000000000000000084465466920313031000000000000000000000000000000000000000000000000000000000000000000000000000000000000000000000000000000000000001c7368613235363a6f746865722d6d616e69666573742d6a6b6c30313200000000",
        "nonce": "0x6",
        "chainId": "0x7a69"
      },
      "additionalContracts": [],
      "isFixedGasLimit": false
    }
  ],
  "receipts": [
    {
      "type": "0x2",
      "status": "0x1",
      "cumulativeGasUsed": "0x6c6c0",
      "logs": [
        {
          "address": "0x5fbdb2315678afecb367f032d93f642f64180aa3",
          "topics": [
            "0x97a851988ca44ea18ea43e94298eb9986b0ee33a6181558938dd891fa4ac2ae5",
            "0x4ccbf0e3221225e11677ab0775940551b3f3baeb43004a6c80079ec057564d0c",
            "0x0000000000000000000000003c44cdddb6a900fa2b585dd299e03d12fa4293bc",
            "0xc5d2460186f7233c927e7db2dcc703c0e500b653ca82273b7bfad8045d85a470"
          ],
          "data": "0x00000000000000000000000000000000000000000000000000000000000000000000000000000000000000000000000000000000000000000000000000000120000000000000000000000000000000000000000000000000000000000000016000000000000000000000000000000000000000000000000000000000000001a000000000000000000000000000000000000000000000000000000000000001e00000000000000000000000000000000000000000000000000000000000000220000000000000000000000000000000000000000000000000000000000000026000000000000000000000000000000000000000000000000000000000000002800000000000000000000000000000000000000000000000000000000000000001000000000000000000000000000000000000000000000000000000000000000b41522d534d4b2d434f44450000000000000000000000000000000000000000000000000000000000000000000000000000000000000000000000000000000008534d4b2d434f44450000000000000000000000000000000000000000000000000000000000000000000000000000000000000000000000000000000000000013536d6f6b65205465737420417274696661637400000000000000000000000000000000000000000000000000000000000000000000000000000000000000000949616e204d6f6f72650000000000000000000000000000000000000000000000000000000000000000000000000000000000000000000000000000000000000f7368613235363a736d6b2d636f6465000000000000000000000000000000000000000000000000000000000000000000000000000000000000000000000000000000000000000000000000000000000000000000000000000000000000000000",
          "blockHash": "0x16e814da2bcd7460ff781faefdbc89d949f356ab70d4d8358c4e3d07e78e0ab7",
          "blockNumber": "0x2",
          "blockTimestamp": "0x69ce8c9e",
          "transactionHash": "0xe369b64a63f8b9326e30f25d8226726ab1b23b9bfee6b68a1a8fb9a4f04f9f61",
          "transactionIndex": "0x0",
          "logIndex": "0x0",
          "removed": false
        }
      ],
      "logsBloom": "0x00000000000000000000000000000000000000000000000000000200000000008000000000000000000000000000000000000000000000000000000000100000000000000000000800000000000000000000000000000000000000000000000000000040000000000000000000000000000800000000008000000000000000000000080000000000000000000000000000000000000000000100000200000000000000000000200000000000000000000000001000000000000100000000000000000040000000000000000000000000000000000000000000000000000000000000000000000400000000000000000000000000000000000000000000000000",
      "transactionHash": "0xe369b64a63f8b9326e30f25d8226726ab1b23b9bfee6b68a1a8fb9a4f04f9f61",
      "transactionIndex": "0x0",
      "blockHash": "0x16e814da2bcd7460ff781faefdbc89d949f356ab70d4d8358c4e3d07e78e0ab7",
      "blockNumber": "0x2",
      "gasUsed": "0x6c6c0",
      "effectiveGasPrice": "0x35253ccb",
      "blobGasPrice": "0x1",
      "from": "0x3c44cdddb6a900fa2b585dd299e03d12fa4293bc",
      "to": "0x5fbdb2315678afecb367f032d93f642f64180aa3",
      "contractAddress": null
    },
    {
      "type": "0x2",
      "status": "0x1",
      "cumulativeGasUsed": "0x81a96",
      "logs": [
        {
          "address": "0x5fbdb2315678afecb367f032d93f642f64180aa3",
          "topics": [
            "0x97a851988ca44ea18ea43e94298eb9986b0ee33a6181558938dd891fa4ac2ae5",
            "0xa158ebd164c9156dd89ec77d602bac49e0452487baa72b8a0eef9c49846763c4",
            "0x0000000000000000000000003c44cdddb6a900fa2b585dd299e03d12fa4293bc",
            "0xc5d2460186f7233c927e7db2dcc703c0e500b653ca82273b7bfad8045d85a470"
          ],
          "data": "0x00000000000000000000000000000000000000000000000000000000000000050000000000000000000000000000000000000000000000000000000000000120000000000000000000000000000000000000000000000000000000000000016000000000000000000000000000000000000000000000000000000000000001a000000000000000000000000000000000000000000000000000000000000001e00000000000000000000000000000000000000000000000000000000000000220000000000000000000000000000000000000000000000000000000000000026000000000000000000000000000000000000000000000000000000000000002800000000000000000000000000000000000000000000000000000000000000001000000000000000000000000000000000000000000000000000000000000000c41522d534d4b2d4d4544494100000000000000000000000000000000000000000000000000000000000000000000000000000000000000000000000000000009534d4b2d4d4544494100000000000000000000000000000000000000000000000000000000000000000000000000000000000000000000000000000000000013536d6f6b65205465737420417274696661637400000000000000000000000000000000000000000000000000000000000000000000000000000000000000000949616e204d6f6f7265000000000000000000000000000000000000000000000000000000000000000000000000000000000000000000000000000000000000107368613235363a736d6b2d6d656469610000000000000000000000000000000000000000000000000000000000000000000000000000000000000000000000000000000000000000000000000000000000000000000000000000000000000000",
          "blockHash": "0xdb415a26b69b53bb0fbc5a13b755ed044e82233a9f4a5516145e393c56ecddad",
          "blockNumber": "0x3",
          "blockTimestamp": "0x69ce8c9e",
          "transactionHash": "0x53eb3dbdda433cd9a8bffdc561c1bd33642e4d185a3be5fa9914af8fa55b9a0b",
          "transactionIndex": "0x0",
          "logIndex": "0x0",
          "removed": false
        }
      ],
      "logsBloom": "0x00000000000000000000000000000000000000000000000000000000000000008000000000000000000000000000000000800000000000000000000000100000000000000000000800000000000000000000000000000000000000000000000000000040000000000010000000000000000800000000008000000000000000000000080000000000000000000000000000000000000000000000000200000000000000000000200000000000000000000000001000000000000000000000000000000040000000000000000000000000000000000000000000000000000020000000000000000400000000000000000000000000000000000000000000000000",
      "transactionHash": "0x53eb3dbdda433cd9a8bffdc561c1bd33642e4d185a3be5fa9914af8fa55b9a0b",
      "transactionIndex": "0x0",
      "blockHash": "0xdb415a26b69b53bb0fbc5a13b755ed044e82233a9f4a5516145e393c56ecddad",
      "blockNumber": "0x3",
      "gasUsed": "0x81a96",
      "effectiveGasPrice": "0x2eb2eedd",
      "blobGasPrice": "0x1",
      "from": "0x3c44cdddb6a900fa2b585dd299e03d12fa4293bc",
      "to": "0x5fbdb2315678afecb367f032d93f642f64180aa3",
      "contractAddress": null
    },
    {
      "type": "0x2",
      "status": "0x1",
      "cumulativeGasUsed": "0x71554",
      "logs": [
        {
          "address": "0x5fbdb2315678afecb367f032d93f642f64180aa3",
          "topics": [
            "0x97a851988ca44ea18ea43e94298eb9986b0ee33a6181558938dd891fa4ac2ae5",
            "0x51127fadc670ccdad4d777fc676af421c597649c08af3569dcd6899e80b8cf50",
            "0x0000000000000000000000003c44cdddb6a900fa2b585dd299e03d12fa4293bc",
            "0xc5d2460186f7233c927e7db2dcc703c0e500b653ca82273b7bfad8045d85a470"
          ],
          "data": "0x00000000000000000000000000000000000000000000000000000000000000060000000000000000000000000000000000000000000000000000000000000120000000000000000000000000000000000000000000000000000000000000016000000000000000000000000000000000000000000000000000000000000001a000000000000000000000000000000000000000000000000000000000000001e00000000000000000000000000000000000000000000000000000000000000220000000000000000000000000000000000000000000000000000000000000026000000000000000000000000000000000000000000000000000000000000002800000000000000000000000000000000000000000000000000000000000000001000000000000000000000000000000000000000000000000000000000000000b41522d534d4b2d544558540000000000000000000000000000000000000000000000000000000000000000000000000000000000000000000000000000000008534d4b2d544558540000000000000000000000000000000000000000000000000000000000000000000000000000000000000000000000000000000000000013536d6f6b65205465737420417274696661637400000000000000000000000000000000000000000000000000000000000000000000000000000000000000000949616e204d6f6f72650000000000000000000000000000000000000000000000000000000000000000000000000000000000000000000000000000000000000f7368613235363a736d6b2d74657874000000000000000000000000000000000000000000000000000000000000000000000000000000000000000000000000000000000000000000000000000000000000000000000000000000000000000000",
          "blockHash": "0x2214a92f820b60e14b2e0323262ffc909c6cbfbf0ac22cf77c18dbc44251561d",
          "blockNumber": "0x4",
          "blockTimestamp": "0x69ce8c9e",
          "transactionHash": "0x63e0a9a3f55298f7c145d5d78b3299c8b27379066fbbe596b5d5c32020004835",
          "transactionIndex": "0x0",
          "logIndex": "0x0",
          "removed": false
        }
      ],
      "logsBloom": "0x00000000000000000000000000000000000000000000000000000000000000008000000000000000000000000100000000000000000000000000000000100000000000000000000800000000000000000000000000000000000000000000000000000040000000000000000000000000000800000000008000000000000000000000080000000000000000000000000000000000000000000000000200000000000000000000200000000000000000004000001000000000000000000000000000000040000000000000000000000000000000000000000000000000000000000000000000000400000000000000000000000000000000000000000000000000",
      "transactionHash": "0x63e0a9a3f55298f7c145d5d78b3299c8b27379066fbbe596b5d5c32020004835",
      "transactionIndex": "0x0",
      "blockHash": "0x2214a92f820b60e14b2e0323262ffc909c6cbfbf0ac22cf77c18dbc44251561d",
      "blockNumber": "0x4",
      "gasUsed": "0x71554",
      "effectiveGasPrice": "0x291179f4",
      "blobGasPrice": "0x1",
      "from": "0x3c44cdddb6a900fa2b585dd299e03d12fa4293bc",
      "to": "0x5fbdb2315678afecb367f032d93f642f64180aa3",
      "contractAddress": null
    },
    {
      "type": "0x2",
      "status": "0x1",
      "cumulativeGasUsed": "0xa289e",
      "logs": [
        {
          "address": "0x5fbdb2315678afecb367f032d93f642f64180aa3",
          "topics": [
            "0x97a851988ca44ea18ea43e94298eb9986b0ee33a6181558938dd891fa4ac2ae5",
            "0x9711e3e8de4b29c03711395bfc1bfe268780577eea8b8aa3c31f27465bd46b5d",
            "0x0000000000000000000000003c44cdddb6a900fa2b585dd299e03d12fa4293bc",
            "0xc5d2460186f7233c927e7db2dcc703c0e500b653ca82273b7bfad8045d85a470"
          ],
          "data": "0x00000000000000000000000000000000000000000000000000000000000000090000000000000000000000000000000000000000000000000000000000000120000000000000000000000000000000000000000000000000000000000000016000000000000000000000000000000000000000000000000000000000000001a000000000000000000000000000000000000000000000000000000000000001e00000000000000000000000000000000000000000000000000000000000000220000000000000000000000000000000000000000000000000000000000000026000000000000000000000000000000000000000000000000000000000000002800000000000000000000000000000000000000000000000000000000000000001000000000000000000000000000000000000000000000000000000000000000d41522d534d4b2d5245504f525400000000000000000000000000000000000000000000000000000000000000000000000000000000000000000000000000000a534d4b2d5245504f5254000000000000000000000000000000000000000000000000000000000000000000000000000000000000000000000000000000000013536d6f6b65205465737420417274696661637400000000000000000000000000000000000000000000000000000000000000000000000000000000000000000949616e204d6f6f7265000000000000000000000000000000000000000000000000000000000000000000000000000000000000000000000000000000000000117368613235363a736d6b2d7265706f727400000000000000000000000000000000000000000000000000000000000000000000000000000000000000000000000000000000000000000000000000000000000000000000000000000000000000",
          "blockHash": "0x527ff1099a22ff947205422ee57535d2fe3fa28317dc938556add268bbee8e9a",
          "blockNumber": "0x5",
          "blockTimestamp": "0x69ce8c9e",
          "transactionHash": "0x33b4724ce03a6229baf89c384b11162ee135ae14b5bc0d34ef43409fca6edfdf",
          "transactionIndex": "0x0",
          "logIndex": "0x0",
          "removed": false
        }
      ],
      "logsBloom": "0x00000000000000000000000000000800000000000000000000000000000080008000000000000000000000000000000000000000000000000000000000100000000000000000000800000000000000200000000000000000000000000000000000000040000000000000000000000000000800000000008000000000000000000000080000000000000000000000000000000000000000000000000200000000000000000000200000000000000000000000001000000000000000000000000000000040000000000000000000000000000000000000000000000000000000000000000000000400000000000000000000000000000000000000000000000000",
      "transactionHash": "0x33b4724ce03a6229baf89c384b11162ee135ae14b5bc0d34ef43409fca6edfdf",
      "transactionIndex": "0x0",
      "blockHash": "0x527ff1099a22ff947205422ee57535d2fe3fa28317dc938556add268bbee8e9a",
      "blockNumber": "0x5",
      "gasUsed": "0xa289e",
      "effectiveGasPrice": "0x2417f668",
      "blobGasPrice": "0x1",
      "from": "0x3c44cdddb6a900fa2b585dd299e03d12fa4293bc",
      "to": "0x5fbdb2315678afecb367f032d93f642f64180aa3",
      "contractAddress": null
    },
    {
      "type": "0x2",
      "status": "0x1",
      "cumulativeGasUsed": "0x113f12",
      "logs": [
        {
          "address": "0x5fbdb2315678afecb367f032d93f642f64180aa3",
          "topics": [
            "0x97a851988ca44ea18ea43e94298eb9986b0ee33a6181558938dd891fa4ac2ae5",
            "0x413be863eb1debf7baee72dc23a8d28c128164fee2f4157b7df57acb86284cb4",
            "0x0000000000000000000000003c44cdddb6a900fa2b585dd299e03d12fa4293bc",
            "0xc5d2460186f7233c927e7db2dcc703c0e500b653ca82273b7bfad8045d85a470"
          ],
          "data": "0x000000000000000000000000000000000000000000000000000000000000000a0000000000000000000000000000000000000000000000000000000000000120000000000000000000000000000000000000000000000000000000000000016000000000000000000000000000000000000000000000000000000000000001a000000000000000000000000000000000000000000000000000000000000001e00000000000000000000000000000000000000000000000000000000000000220000000000000000000000000000000000000000000000000000000000000026000000000000000000000000000000000000000000000000000000000000002800000000000000000000000000000000000000000000000000000000000000001000000000000000000000000000000000000000000000000000000000000000b41522d534d4b2d4e4f54450000000000000000000000000000000000000000000000000000000000000000000000000000000000000000000000000000000008534d4b2d4e4f54450000000000000000000000000000000000000000000000000000000000000000000000000000000000000000000000000000000000000013536d6f6b65205465737420417274696661637400000000000000000000000000000000000000000000000000000000000000000000000000000000000000000949616e204d6f6f72650000000000000000000000000000000000000000000000000000000000000000000000000000000000000000000000000000000000000f7368613235363a736d6b2d6e6f7465000000000000000000000000000000000000000000000000000000000000000000000000000000000000000000000000000000000000000000000000000000000000000000000000000000000000000000",
          "blockHash": "0x527ff1099a22ff947205422ee57535d2fe3fa28317dc938556add268bbee8e9a",
          "blockNumber": "0x5",
          "blockTimestamp": "0x69ce8c9e",
          "transactionHash": "0x39db1e0cb5318605cda35e64db919da43aac9ca9b9efd6ca28d410f785e5ab32",
          "transactionIndex": "0x1",
          "logIndex": "0x1",
          "removed": false
        }
      ],
      "logsBloom": "0x00000000000000000000000000000000000000000000000000000000000000008000000000000000000000000000000000000000000000000000040000100000000000000000000800000000000000000000000000000000000000000000000000000040000000000000000000000000000800040000008000000000000000000000080000000000000000000000000000000000000000000000000200000000000000000000200000000000000000000000001000000000000000000000000000000040000000000000000000000000000000000000000000000000000000000000000000000400000080000000000000000000000000000000000000000000",
      "transactionHash": "0x39db1e0cb5318605cda35e64db919da43aac9ca9b9efd6ca28d410f785e5ab32",
      "transactionIndex": "0x1",
      "blockHash": "0x527ff1099a22ff947205422ee57535d2fe3fa28317dc938556add268bbee8e9a",
      "blockNumber": "0x5",
      "gasUsed": "0x71674",
      "effectiveGasPrice": "0x2417f668",
      "blobGasPrice": "0x1",
      "from": "0x3c44cdddb6a900fa2b585dd299e03d12fa4293bc",
      "to": "0x5fbdb2315678afecb367f032d93f642f64180aa3",
      "contractAddress": null
    },
    {
      "type": "0x2",
      "status": "0x1",
      "cumulativeGasUsed": "0xa283e",
      "logs": [
        {
          "address": "0x5fbdb2315678afecb367f032d93f642f64180aa3",
          "topics": [
            "0x97a851988ca44ea18ea43e94298eb9986b0ee33a6181558938dd891fa4ac2ae5",
            "0x186c4688e09059d804662a727a2b0a146299d1e95f7419ab55e230d49cb72611",
            "0x0000000000000000000000003c44cdddb6a900fa2b585dd299e03d12fa4293bc",
            "0xc5d2460186f7233c927e7db2dcc703c0e500b653ca82273b7bfad8045d85a470"
          ],
          "data": "0x000000000000000000000000000000000000000000000000000000000000000d0000000000000000000000000000000000000000000000000000000000000120000000000000000000000000000000000000000000000000000000000000016000000000000000000000000000000000000000000000000000000000000001a000000000000000000000000000000000000000000000000000000000000001e00000000000000000000000000000000000000000000000000000000000000220000000000000000000000000000000000000000000000000000000000000026000000000000000000000000000000000000000000000000000000000000002800000000000000000000000000000000000000000000000000000000000000001000000000000000000000000000000000000000000000000000000000000000e41522d534d4b2d52454345495054000000000000000000000000000000000000000000000000000000000000000000000000000000000000000000000000000b534d4b2d524543454950540000000000000000000000000000000000000000000000000000000000000000000000000000000000000000000000000000000013536d6f6b65205465737420417274696661637400000000000000000000000000000000000000000000000000000000000000000000000000000000000000000949616e204d6f6f7265000000000000000000000000000000000000000000000000000000000000000000000000000000000000000000000000000000000000127368613235363a736d6b2d72656365697074000000000000000000000000000000000000000000000000000000000000000000000000000000000000000000000000000000000000000000000000000000000000000000000000000000000000",
          "blockHash": "0x70cf2d1671078c76b94699ae04b7f2b3dd0758a343c628f35b570c1bc8734b10",
          "blockNumber": "0x6",
          "blockTimestamp": "0x69ce8c9e",
          "transactionHash": "0x69cd0094e9a45e99aae7b879bbae6a7bf82081bef4748ab858ae7d2783279e99",
          "transactionIndex": "0x0",
          "logIndex": "0x0",
          "removed": false
        }
      ],
      "logsBloom": "0x00000000000000000000000000000000000000000000000000000000000000008000000000000000000001000000000000000000000000000000000000100000000000000000000800000000000000000000000000000000000000000000000000000040400000000000000000000000000800000000008000000000000000000000080000000000000000000000000000000000000000000000000200000000000000000000200000000000000000000000001000000000000000000000000000000040000000000000000000000000000000000000000000000040000000000000000000000400000000000000000000000000000000000000000000000000",
      "transactionHash": "0x69cd0094e9a45e99aae7b879bbae6a7bf82081bef4748ab858ae7d2783279e99",
      "transactionIndex": "0x0",
      "blockHash": "0x70cf2d1671078c76b94699ae04b7f2b3dd0758a343c628f35b570c1bc8734b10",
      "blockNumber": "0x6",
      "gasUsed": "0xa283e",
      "effectiveGasPrice": "0x1febff2a",
      "blobGasPrice": "0x1",
      "from": "0x3c44cdddb6a900fa2b585dd299e03d12fa4293bc",
      "to": "0x5fbdb2315678afecb367f032d93f642f64180aa3",
      "contractAddress": null
    },
    {
      "type": "0x2",
      "status": "0x1",
      "cumulativeGasUsed": "0x113e85",
      "logs": [
        {
          "address": "0x5fbdb2315678afecb367f032d93f642f64180aa3",
          "topics": [
            "0x97a851988ca44ea18ea43e94298eb9986b0ee33a6181558938dd891fa4ac2ae5",
            "0xa15ebd6df38d24807fa9d05662eeeda4b63432ec096b4ef42999f904839f2442",
            "0x0000000000000000000000003c44cdddb6a900fa2b585dd299e03d12fa4293bc",
            "0xc5d2460186f7233c927e7db2dcc703c0e500b653ca82273b7bfad8045d85a470"
          ],
          "data": "0x00000000000000000000000000000000000000000000000000000000000000160000000000000000000000000000000000000000000000000000000000000120000000000000000000000000000000000000000000000000000000000000016000000000000000000000000000000000000000000000000000000000000001a000000000000000000000000000000000000000000000000000000000000001e00000000000000000000000000000000000000000000000000000000000000220000000000000000000000000000000000000000000000000000000000000026000000000000000000000000000000000000000000000000000000000000002800000000000000000000000000000000000000000000000000000000000000001000000000000000000000000000000000000000000000000000000000000000c41522d534d4b2d4f5448455200000000000000000000000000000000000000000000000000000000000000000000000000000000000000000000000000000009534d4b2d4f5448455200000000000000000000000000000000000000000000000000000000000000000000000000000000000000000000000000000000000013536d6f6b65205465737420417274696661637400000000000000000000000000000000000000000000000000000000000000000000000000000000000000000949616e204d6f6f7265000000000000000000000000000000000000000000000000000000000000000000000000000000000000000000000000000000000000107368613235363a736d6b2d6f746865720000000000000000000000000000000000000000000000000000000000000000000000000000000000000000000000000000000000000000000000000000000000000000000000000000000000000000",
          "blockHash": "0x70cf2d1671078c76b94699ae04b7f2b3dd0758a343c628f35b570c1bc8734b10",
          "blockNumber": "0x6",
          "blockTimestamp": "0x69ce8c9e",
          "transactionHash": "0x2b2238e205f3e6fbb9f62ebf2bbb3165d9a2041d7ce8680712d7c9f3b0f79e09",
          "transactionIndex": "0x1",
          "logIndex": "0x1",
          "removed": false
        }
      ],
      "logsBloom": "0x00000000000000000004000000000000000000000000000000000000000000008000000000000000000000000002000000000000000000000000000000100000000020000000000800000000000000000000000000000000000000000000000000000040000000000000000000000000000800000000008000000000000000000000080000000000000000000000000000000000000000000000000200000000000000000000200000000000000000000000001000000000000000000000000000000040000000000000000000000000000000000000000000000000000000000000000000000400000000000000000000000000000000000000000000000000",
      "transactionHash": "0x2b2238e205f3e6fbb9f62ebf2bbb3165d9a2041d7ce8680712d7c9f3b0f79e09",
      "transactionIndex": "0x1",
      "blockHash": "0x70cf2d1671078c76b94699ae04b7f2b3dd0758a343c628f35b570c1bc8734b10",
      "blockNumber": "0x6",
      "gasUsed": "0x71647",
      "effectiveGasPrice": "0x1febff2a",
      "blobGasPrice": "0x1",
      "from": "0x3c44cdddb6a900fa2b585dd299e03d12fa4293bc",
      "to": "0x5fbdb2315678afecb367f032d93f642f64180aa3",
      "contractAddress": null
    }
  ],
  "libraries": [],
  "pending": [],
  "returns": {},
  "timestamp": 1775144094274,
  "chain": 31337,
  "commit": "b3884ba"
}