{
  "transactions": [
    {
      "hash": "0x301866bb125ccc1de14884a7061984d09d6bcbe545fc680a05359cc48cfa7dec",
      "transactionType": "CALL",
      "contractName": "AnchorRegistry",
      "contractAddress": "0x44468d4e98f04ed644146f76f0903e56e8434804",
      "function": "registerContent(string,(uint8,string,string,string,string,string,string),bytes)",
      "arguments": [
        "AR-SMK-CODE",
        "(0, sha256:smk-code, , SMK-CODE, Smoke Test Artifact, Ian Moore, )",
        "0x00000000000000000000000000000000000000000000000000000000000000a000000000000000000000000000000000000000000000000000000000000000e00000000000000000000000000000000000000000000000000000000000000120000000000000000000000000000000000000000000000000000000000000016000000000000000000000000000000000000000000000000000000000000001a000000000000000000000000000000000000000000000000000000000000000096769743a736d6f6b65000000000000000000000000000000000000000000000000000000000000000000000000000000000000000000000000000000000000034d495400000000000000000000000000000000000000000000000000000000000000000000000000000000000000000000000000000000000000000000000008536f6c6964697479000000000000000000000000000000000000000000000000000000000000000000000000000000000000000000000000000000000000000676312e302e300000000000000000000000000000000000000000000000000000000000000000000000000000000000000000000000000000000000000000001768747470733a2f2f6769746875622e636f6d2f74657374000000000000000000"
      ],
      "transaction": {
        "from": "0xc7a7afde1177fbf0bb265ea5a616d1b8d7ed8c44",
        "to": "0x44468d4e98f04ed644146f76f0903e56e8434804",
        "gas": "0x8dd53",
        "value": "0x0",
        "input": "0x9555824c000000000000000000000000000000000000000000000000000000000000006000000000000000000000000000000000000000000000000000000000000000a000000000000000000000000000000000000000000000000000000000000002c0000000000000000000000000000000000000000000000000000000000000000b41522d534d4b2d434f4445000000000000000000000000000000000000000000000000000000000000000000000000000000000000000000000000000000000000000000000000000000000000000000000000000000000000000000000000e000000000000000000000000000000000000000000000000000000000000001200000000000000000000000000000000000000000000000000000000000000140000000000000000000000000000000000000000000000000000000000000018000000000000000000000000000000000000000000000000000000000000001c00000000000000000000000000000000000000000000000000000000000000200000000000000000000000000000000000000000000000000000000000000000f7368613235363a736d6b2d636f6465000000000000000000000000000000000000000000000000000000000000000000000000000000000000000000000000000000000000000000000000000000000000000000000000000000000000000008534d4b2d434f44450000000000000000000000000000000000000000000000000000000000000000000000000000000000000000000000000000000000000013536d6f6b65205465737420417274696661637400000000000000000000000000000000000000000000000000000000000000000000000000000000000000000949616e204d6f6f72650000000000000000000000000000000000000000000000000000000000000000000000000000000000000000000000000000000000000000000000000000000000000000000000000000000000000000000000000001e000000000000000000000000000000000000000000000000000000000000000a000000000000000000000000000000000000000000000000000000000000000e00000000000000000000000000000000000000000000000000000000000000120000000000000000000000000000000000000000000000000000000000000016000000000000000000000000000000000000000000000000000000000000001a000000000000000000000000000000000000000000000000000000000000000096769743a736d6f6b65000000000000000000000000000000000000000000000000000000000000000000000000000000000000000000000000000000000000034d495400000000000000000000000000000000000000000000000000000000000000000000000000000000000000000000000000000000000000000000000008536f6c6964697479000000000000000000000000000000000000000000000000000000000000000000000000000000000000000000000000000000000000000676312e302e300000000000000000000000000000000000000000000000000000000000000000000000000000000000000000000000000000000000000000001768747470733a2f2f6769746875622e636f6d2f74657374000000000000000000",
        "nonce": "0x3c",
        "chainId": "0xaa36a7"
      },
      "additionalContracts": [],
      "isFixedGasLimit": false
    },
    {
      "hash": "0x3c66e0598a827275e3ec90bd5907740422fb54e092fd50d25b614b117983bea8",
      "transactionType": "CALL",
      "contractName": "AnchorRegistry",
      "contractAddress": "0x44468d4e98f04ed644146f76f0903e56e8434804",
      "function": "registerContent(string,(uint8,string,string,string,string,string,string),bytes)",
      "arguments": [
        "AR-SMK-MEDIA",
        "(5, sha256:smk-media, , SMK-MEDIA, Smoke Test Artifact, Ian Moore, )",
        "0x00000000000000000000000000000000000000000000000000000000000000c000000000000000000000000000000000000000000000000000000000000001000000000000000000000000000000000000000000000000000000000000000140000000000000000000000000000000000000000000000000000000000000018000000000000000000000000000000000000000000000000000000000000001c000000000000000000000000000000000000000000000000000000000000002000000000000000000000000000000000000000000000000000000000000000009766964656f2f6d703400000000000000000000000000000000000000000000000000000000000000000000000000000000000000000000000000000000000007596f75547562650000000000000000000000000000000000000000000000000000000000000000000000000000000000000000000000000000000000000000034d503400000000000000000000000000000000000000000000000000000000000000000000000000000000000000000000000000000000000000000000000004333a34350000000000000000000000000000000000000000000000000000000000000000000000000000000000000000000000000000000000000000000000095553524331323334350000000000000000000000000000000000000000000000000000000000000000000000000000000000000000000000000000000000001868747470733a2f2f796f75747562652e636f6d2f746573740000000000000000"
      ],
      "transaction": {
        "from": "0xc7a7afde1177fbf0bb265ea5a616d1b8d7ed8c44",
        "to": "0x44468d4e98f04ed644146f76f0903e56e8434804",
        "gas": "0xb53d3",
        "value": "0x0",
        "input": "0x9555824c000000000000000000000000000000000000000000000000000000000000006000000000000000000000000000000000000000000000000000000000000000a000000000000000000000000000000000000000000000000000000000000002c0000000000000000000000000000000000000000000000000000000000000000c41522d534d4b2d4d454449410000000000000000000000000000000000000000000000000000000000000000000000000000000000000000000000000000000500000000000000000000000000000000000000000000000000000000000000e000000000000000000000000000000000000000000000000000000000000001200000000000000000000000000000000000000000000000000000000000000140000000000000000000000000000000000000000000000000000000000000018000000000000000000000000000000000000000000000000000000000000001c0000000000000000000000000000000000000000000000000000000000000020000000000000000000000000000000000000000000000000000000000000000107368613235363a736d6b2d6d656469610000000000000000000000000000000000000000000000000000000000000000000000000000000000000000000000000000000000000000000000000000000000000000000000000000000000000009534d4b2d4d4544494100000000000000000000000000000000000000000000000000000000000000000000000000000000000000000000000000000000000013536d6f6b65205465737420417274696661637400000000000000000000000000000000000000000000000000000000000000000000000000000000000000000949616e204d6f6f726500000000000000000000000000000000000000000000000000000000000000000000000000000000000000000000000000000000000000000000000000000000000000000000000000000000000000000000000000024000000000000000000000000000000000000000000000000000000000000000c000000000000000000000000000000000000000000000000000000000000001000000000000000000000000000000000000000000000000000000000000000140000000000000000000000000000000000000000000000000000000000000018000000000000000000000000000000000000000000000000000000000000001c000000000000000000000000000000000000000000000000000000000000002000000000000000000000000000000000000000000000000000000000000000009766964656f2f6d703400000000000000000000000000000000000000000000000000000000000000000000000000000000000000000000000000000000000007596f75547562650000000000000000000000000000000000000000000000000000000000000000000000000000000000000000000000000000000000000000034d503400000000000000000000000000000000000000000000000000000000000000000000000000000000000000000000000000000000000000000000000004333a34350000000000000000000000000000000000000000000000000000000000000000000000000000000000000000000000000000000000000000000000095553524331323334350000000000000000000000000000000000000000000000000000000000000000000000000000000000000000000000000000000000001868747470733a2f2f796f75747562652e636f6d2f746573740000000000000000",
        "nonce": "0x3d",
        "chainId": "0xaa36a7"
      },
      "additionalContracts": [],
      "isFixedGasLimit": false
    },
    {
      "hash": "0x55be947ab43493ac67f520cc99efb31f56d7f8959d2178949a7bd4347a216c9f",
      "transactionType": "CALL",
      "contractName": "AnchorRegistry",
      "contractAddress": "0x44468d4e98f04ed644146f76f0903e56e8434804",
      "function": "registerContent(string,(uint8,string,string,string,string,string,string),bytes)",
      "arguments": [
        "AR-SMK-TEXT",
        "(6, sha256:smk-text, , SMK-TEXT, Smoke Test Artifact, Ian Moore, )",
        "0x00000000000000000000000000000000000000000000000000000000000000a000000000000000000000000000000000000000000000000000000000000000e00000000000000000000000000000000000000000000000000000000000000120000000000000000000000000000000000000000000000000000000000000016000000000000000000000000000000000000000000000000000000000000001a0000000000000000000000000000000000000000000000000000000000000000741525449434c450000000000000000000000000000000000000000000000000000000000000000000000000000000000000000000000000000000000000000113937382d332d31362d3134383431302d3000000000000000000000000000000000000000000000000000000000000000000000000000000000000000000000084f275265696c6c790000000000000000000000000000000000000000000000000000000000000000000000000000000000000000000000000000000000000007456e676c69736800000000000000000000000000000000000000000000000000000000000000000000000000000000000000000000000000000000000000001b68747470733a2f2f6578616d706c652e636f6d2f61727469636c650000000000"
      ],
      "transaction": {
        "from": "0xc7a7afde1177fbf0bb265ea5a616d1b8d7ed8c44",
        "to": "0x44468d4e98f04ed644146f76f0903e56e8434804",
        "gas": "0x949dc",
        "value": "0x0",
        "input": "0x9555824c000000000000000000000000000000000000000000000000000000000000006000000000000000000000000000000000000000000000000000000000000000a000000000000000000000000000000000000000000000000000000000000002c0000000000000000000000000000000000000000000000000000000000000000b41522d534d4b2d54455854000000000000000000000000000000000000000000000000000000000000000000000000000000000000000000000000000000000600000000000000000000000000000000000000000000000000000000000000e000000000000000000000000000000000000000000000000000000000000001200000000000000000000000000000000000000000000000000000000000000140000000000000000000000000000000000000000000000000000000000000018000000000000000000000000000000000000000000000000000000000000001c00000000000000000000000000000000000000000000000000000000000000200000000000000000000000000000000000000000000000000000000000000000f7368613235363a736d6b2d74657874000000000000000000000000000000000000000000000000000000000000000000000000000000000000000000000000000000000000000000000000000000000000000000000000000000000000000008534d4b2d544558540000000000000000000000000000000000000000000000000000000000000000000000000000000000000000000000000000000000000013536d6f6b65205465737420417274696661637400000000000000000000000000000000000000000000000000000000000000000000000000000000000000000949616e204d6f6f72650000000000000000000000000000000000000000000000000000000000000000000000000000000000000000000000000000000000000000000000000000000000000000000000000000000000000000000000000001e000000000000000000000000000000000000000000000000000000000000000a000000000000000000000000000000000000000000000000000000000000000e00000000000000000000000000000000000000000000000000000000000000120000000000000000000000000000000000000000000000000000000000000016000000000000000000000000000000000000000000000000000000000000001a0000000000000000000000000000000000000000000000000000000000000000741525449434c450000000000000000000000000000000000000000000000000000000000000000000000000000000000000000000000000000000000000000113937382d332d31362d3134383431302d3000000000000000000000000000000000000000000000000000000000000000000000000000000000000000000000084f275265696c6c790000000000000000000000000000000000000000000000000000000000000000000000000000000000000000000000000000000000000007456e676c69736800000000000000000000000000000000000000000000000000000000000000000000000000000000000000000000000000000000000000001b68747470733a2f2f6578616d706c652e636f6d2f61727469636c650000000000",
        "nonce": "0x3e",
        "chainId": "0xaa36a7"
      },
      "additionalContracts": [],
      "isFixedGasLimit": false
    },
    {
      "hash": "0x44632da407c9186a9c1953f8708e466ca21f79dcdaa467feaa1421d2553b13ab",
      "transactionType": "CALL",
      "contractName": "AnchorRegistry",
      "contractAddress": "0x44468d4e98f04ed644146f76f0903e56e8434804",
      "function": "registerContent(string,(uint8,string,string,string,string,string,string),bytes)",
      "arguments": [
        "AR-SMK-REPORT",
        "(9, sha256:smk-report, , SMK-REPORT, Smoke Test Artifact, Ian Moore, )",
        "0x00000000000000000000000000000000000000000000000000000000000001000000000000000000000000000000000000000000000000000000000000000140000000000000000000000000000000000000000000000000000000000000018000000000000000000000000000000000000000000000000000000000000001c000000000000000000000000000000000000000000000000000000000000002000000000000000000000000000000000000000000000000000000000000000240000000000000000000000000000000000000000000000000000000000000028000000000000000000000000000000000000000000000000000000000000002c0000000000000000000000000000000000000000000000000000000000000000a434f4e53554c54494e4700000000000000000000000000000000000000000000000000000000000000000000000000000000000000000000000000000000000941636d6520436f72700000000000000000000000000000000000000000000000000000000000000000000000000000000000000000000000000000000000000b534d4b2d454e472d303031000000000000000000000000000000000000000000000000000000000000000000000000000000000000000000000000000000000566696e616c000000000000000000000000000000000000000000000000000000000000000000000000000000000000000000000000000000000000000000000949616e204d6f6f72650000000000000000000000000000000000000000000000000000000000000000000000000000000000000000000000000000000000000d486976652041647669736f727900000000000000000000000000000000000000000000000000000000000000000000000000000000000000000000000000001a68747470733a2f2f6578616d706c652e636f6d2f7265706f7274000000000000000000000000000000000000000000000000000000000000000000000000001d7368613235363a7265706f72742d6d616e69666573742d616263313233000000"
      ],
      "transaction": {
        "from": "0xc7a7afde1177fbf0bb265ea5a616d1b8d7ed8c44",
        "to": "0x44468d4e98f04ed644146f76f0903e56e8434804",
        "gas": "0xe5526",
        "value": "0x0",
        "input": "0x9555824c000000000000000000000000000000000000000000000000000000000000006000000000000000000000000000000000000000000000000000000000000000a000000000000000000000000000000000000000000000000000000000000002c0000000000000000000000000000000000000000000000000000000000000000d41522d534d4b2d5245504f525400000000000000000000000000000000000000000000000000000000000000000000000000000000000000000000000000000900000000000000000000000000000000000000000000000000000000000000e000000000000000000000000000000000000000000000000000000000000001200000000000000000000000000000000000000000000000000000000000000140000000000000000000000000000000000000000000000000000000000000018000000000000000000000000000000000000000000000000000000000000001c0000000000000000000000000000000000000000000000000000000000000020000000000000000000000000000000000000000000000000000000000000000117368613235363a736d6b2d7265706f72740000000000000000000000000000000000000000000000000000000000000000000000000000000000000000000000000000000000000000000000000000000000000000000000000000000000000a534d4b2d5245504f5254000000000000000000000000000000000000000000000000000000000000000000000000000000000000000000000000000000000013536d6f6b65205465737420417274696661637400000000000000000000000000000000000000000000000000000000000000000000000000000000000000000949616e204d6f6f726500000000000000000000000000000000000000000000000000000000000000000000000000000000000000000000000000000000000000000000000000000000000000000000000000000000000000000000000000030000000000000000000000000000000000000000000000000000000000000001000000000000000000000000000000000000000000000000000000000000000140000000000000000000000000000000000000000000000000000000000000018000000000000000000000000000000000000000000000000000000000000001c000000000000000000000000000000000000000000000000000000000000002000000000000000000000000000000000000000000000000000000000000000240000000000000000000000000000000000000000000000000000000000000028000000000000000000000000000000000000000000000000000000000000002c0000000000000000000000000000000000000000000000000000000000000000a434f4e53554c54494e4700000000000000000000000000000000000000000000000000000000000000000000000000000000000000000000000000000000000941636d6520436f72700000000000000000000000000000000000000000000000000000000000000000000000000000000000000000000000000000000000000b534d4b2d454e472d303031000000000000000000000000000000000000000000000000000000000000000000000000000000000000000000000000000000000566696e616c000000000000000000000000000000000000000000000000000000000000000000000000000000000000000000000000000000000000000000000949616e204d6f6f72650000000000000000000000000000000000000000000000000000000000000000000000000000000000000000000000000000000000000d486976652041647669736f727900000000000000000000000000000000000000000000000000000000000000000000000000000000000000000000000000001a68747470733a2f2f6578616d706c652e636f6d2f7265706f7274000000000000000000000000000000000000000000000000000000000000000000000000001d7368613235363a7265706f72742d6d616e69666573742d616263313233000000",
        "nonce": "0x3f",
        "chainId": "0xaa36a7"
      },
      "additionalContracts": [],
      "isFixedGasLimit": false
    },
    {
      "hash": "0x7a236f1644c8d551c9e5f05379ef3a790051d97694b0fe4013f0ca68654dfe99",
      "transactionType": "CALL",
      "contractName": "AnchorRegistry",
      "contractAddress": "0x44468d4e98f04ed644146f76f0903e56e8434804",
      "function": "registerContent(string,(uint8,string,string,string,string,string,string),bytes)",
      "arguments": [
        "AR-SMK-NOTE",
        "(10, sha256:smk-note, , SMK-NOTE, Smoke Test Artifact, Ian Moore, )",
        "0x00000000000000000000000000000000000000000000000000000000000000a000000000000000000000000000000000000000000000000000000000000000e00000000000000000000000000000000000000000000000000000000000000120000000000000000000000000000000000000000000000000000000000000016000000000000000000000000000000000000000000000000000000000000001a000000000000000000000000000000000000000000000000000000000000000074d454554494e4700000000000000000000000000000000000000000000000000000000000000000000000000000000000000000000000000000000000000000a323032362d30332d333000000000000000000000000000000000000000000000000000000000000000000000000000000000000000000000000000000000001549616e204d6f6f72652c204a616e6520536d6974680000000000000000000000000000000000000000000000000000000000000000000000000000000000001968747470733a2f2f6578616d706c652e636f6d2f6e6f74657300000000000000000000000000000000000000000000000000000000000000000000000000001b7368613235363a6e6f74652d6d616e69666573742d6465663435360000000000"
      ],
      "transaction": {
        "from": "0xc7a7afde1177fbf0bb265ea5a616d1b8d7ed8c44",
        "to": "0x44468d4e98f04ed644146f76f0903e56e8434804",
        "gas": "0x94b6a",
        "value": "0x0",
        "input": "0x9555824c000000000000000000000000000000000000000000000000000000000000006000000000000000000000000000000000000000000000000000000000000000a000000000000000000000000000000000000000000000000000000000000002c0000000000000000000000000000000000000000000000000000000000000000b41522d534d4b2d4e4f5445000000000000000000000000000000000000000000000000000000000000000000000000000000000000000000000000000000000a00000000000000000000000000000000000000000000000000000000000000e000000000000000000000000000000000000000000000000000000000000001200000000000000000000000000000000000000000000000000000000000000140000000000000000000000000000000000000000000000000000000000000018000000000000000000000000000000000000000000000000000000000000001c00000000000000000000000000000000000000000000000000000000000000200000000000000000000000000000000000000000000000000000000000000000f7368613235363a736d6b2d6e6f7465000000000000000000000000000000000000000000000000000000000000000000000000000000000000000000000000000000000000000000000000000000000000000000000000000000000000000008534d4b2d4e4f54450000000000000000000000000000000000000000000000000000000000000000000000000000000000000000000000000000000000000013536d6f6b65205465737420417274696661637400000000000000000000000000000000000000000000000000000000000000000000000000000000000000000949616e204d6f6f72650000000000000000000000000000000000000000000000000000000000000000000000000000000000000000000000000000000000000000000000000000000000000000000000000000000000000000000000000001e000000000000000000000000000000000000000000000000000000000000000a000000000000000000000000000000000000000000000000000000000000000e00000000000000000000000000000000000000000000000000000000000000120000000000000000000000000000000000000000000000000000000000000016000000000000000000000000000000000000000000000000000000000000001a000000000000000000000000000000000000000000000000000000000000000074d454554494e4700000000000000000000000000000000000000000000000000000000000000000000000000000000000000000000000000000000000000000a323032362d30332d333000000000000000000000000000000000000000000000000000000000000000000000000000000000000000000000000000000000001549616e204d6f6f72652c204a616e6520536d6974680000000000000000000000000000000000000000000000000000000000000000000000000000000000001968747470733a2f2f6578616d706c652e636f6d2f6e6f74657300000000000000000000000000000000000000000000000000000000000000000000000000001b7368613235363a6e6f74652d6d616e69666573742d6465663435360000000000",
        "nonce": "0x40",
        "chainId": "0xaa36a7"
      },
      "additionalContracts": [],
      "isFixedGasLimit": false
    },
    {
      "hash": "0xb8e6376bae692ae8393711ce19f9791b988565ddcc6a635e476b7cf549b26554",
      "transactionType": "CALL",
      "contractName": "AnchorRegistry",
      "contractAddress": "0x44468d4e98f04ed644146f76f0903e56e8434804",
      "function": "registerContent(string,(uint8,string,string,string,string,string,string),bytes)",
      "arguments": [
        "AR-SMK-RECEIPT",
        "(13, sha256:smk-receipt, , SMK-RECEIPT, Smoke Test Artifact, Ian Moore, )",
        "0x00000000000000000000000000000000000000000000000000000000000001000000000000000000000000000000000000000000000000000000000000000140000000000000000000000000000000000000000000000000000000000000018000000000000000000000000000000000000000000000000000000000000001c000000000000000000000000000000000000000000000000000000000000002000000000000000000000000000000000000000000000000000000000000000240000000000000000000000000000000000000000000000000000000000000028000000000000000000000000000000000000000000000000000000000000002c000000000000000000000000000000000000000000000000000000000000000085055524348415345000000000000000000000000000000000000000000000000000000000000000000000000000000000000000000000000000000000000000757617966616972000000000000000000000000000000000000000000000000000000000000000000000000000000000000000000000000000000000000000007313239392e39390000000000000000000000000000000000000000000000000000000000000000000000000000000000000000000000000000000000000000034341440000000000000000000000000000000000000000000000000000000000000000000000000000000000000000000000000000000000000000000000000b4f52442d534d4b2d303031000000000000000000000000000000000000000000000000000000000000000000000000000000000000000000000000000000000773686f7069667900000000000000000000000000000000000000000000000000000000000000000000000000000000000000000000000000000000000000001c68747470733a2f2f776179666169722e636f6d2f6f72646572732f3100000000000000000000000000000000000000000000000000000000000000000000001e7368613235363a726563656970742d6d616e69666573742d6768693738390000"
      ],
      "transaction": {
        "from": "0xc7a7afde1177fbf0bb265ea5a616d1b8d7ed8c44",
        "to": "0x44468d4e98f04ed644146f76f0903e56e8434804",
        "gas": "0xe5499",
        "value": "0x0",
        "input": "0x9555824c000000000000000000000000000000000000000000000000000000000000006000000000000000000000000000000000000000000000000000000000000000a000000000000000000000000000000000000000000000000000000000000002c0000000000000000000000000000000000000000000000000000000000000000e41522d534d4b2d52454345495054000000000000000000000000000000000000000000000000000000000000000000000000000000000000000000000000000d00000000000000000000000000000000000000000000000000000000000000e000000000000000000000000000000000000000000000000000000000000001200000000000000000000000000000000000000000000000000000000000000140000000000000000000000000000000000000000000000000000000000000018000000000000000000000000000000000000000000000000000000000000001c0000000000000000000000000000000000000000000000000000000000000020000000000000000000000000000000000000000000000000000000000000000127368613235363a736d6b2d7265636569707400000000000000000000000000000000000000000000000000000000000000000000000000000000000000000000000000000000000000000000000000000000000000000000000000000000000b534d4b2d524543454950540000000000000000000000000000000000000000000000000000000000000000000000000000000000000000000000000000000013536d6f6b65205465737420417274696661637400000000000000000000000000000000000000000000000000000000000000000000000000000000000000000949616e204d6f6f726500000000000000000000000000000000000000000000000000000000000000000000000000000000000000000000000000000000000000000000000000000000000000000000000000000000000000000000000000030000000000000000000000000000000000000000000000000000000000000001000000000000000000000000000000000000000000000000000000000000000140000000000000000000000000000000000000000000000000000000000000018000000000000000000000000000000000000000000000000000000000000001c000000000000000000000000000000000000000000000000000000000000002000000000000000000000000000000000000000000000000000000000000000240000000000000000000000000000000000000000000000000000000000000028000000000000000000000000000000000000000000000000000000000000002c000000000000000000000000000000000000000000000000000000000000000085055524348415345000000000000000000000000000000000000000000000000000000000000000000000000000000000000000000000000000000000000000757617966616972000000000000000000000000000000000000000000000000000000000000000000000000000000000000000000000000000000000000000007313239392e39390000000000000000000000000000000000000000000000000000000000000000000000000000000000000000000000000000000000000000034341440000000000000000000000000000000000000000000000000000000000000000000000000000000000000000000000000000000000000000000000000b4f52442d534d4b2d303031000000000000000000000000000000000000000000000000000000000000000000000000000000000000000000000000000000000773686f7069667900000000000000000000000000000000000000000000000000000000000000000000000000000000000000000000000000000000000000001c68747470733a2f2f776179666169722e636f6d2f6f72646572732f3100000000000000000000000000000000000000000000000000000000000000000000001e7368613235363a726563656970742d6d616e69666573742d6768693738390000",
        "nonce": "0x41",
        "chainId": "0xaa36a7"
      },
      "additionalContracts": [],
      "isFixedGasLimit": false
    },
    {
      "hash": "0xf709dce8aa91e2e3916bc599e30a875725706bcc292dfef50c909f2e4577896a",
      "transactionType": "CALL",
      "contractName": "AnchorRegistry",
      "contractAddress": "0x44468d4e98f04ed644146f76f0903e56e8434804",
      "function": "registerContent(string,(uint8,string,string,string,string,string,string),bytes)",
      "arguments": [
        "AR-SMK-OTHER",
        "(22, sha256:smk-other, , SMK-OTHER, Smoke Test Artifact, Ian Moore, )",
        "0x00000000000000000000000000000000000000000000000000000000000000a000000000000000000000000000000000000000000000000000000000000000e00000000000000000000000000000000000000000000000000000000000000120000000000000000000000000000000000000000000000000000000000000016000000000000000000000000000000000000000000000000000000000000001a00000000000000000000000000000000000000000000000000000000000000006636f75727365000000000000000000000000000000000000000000000000000000000000000000000000000000000000000000000000000000000000000000095468696e6b696669630000000000000000000000000000000000000000000000000000000000000000000000000000000000000000000000000000000000001a68747470733a2f2f7468696e6b696669632e636f6d2f7465737400000000000000000000000000000000000000000000000000000000000000000000000000084465466920313031000000000000000000000000000000000000000000000000000000000000000000000000000000000000000000000000000000000000001c7368613235363a6f746865722d6d616e69666573742d6a6b6c30313200000000"
      ],
      "transaction": {
        "from": "0xc7a7afde1177fbf0bb265ea5a616d1b8d7ed8c44",
        "to": "0x44468d4e98f04ed644146f76f0903e56e8434804",
        "gas": "0x9d720",
        "value": "0x0",
        "input": "0x9555824c000000000000000000000000000000000000000000000000000000000000006000000000000000000000000000000000000000000000000000000000000000a000000000000000000000000000000000000000000000000000000000000002c0000000000000000000000000000000000000000000000000000000000000000c41522d534d4b2d4f544845520000000000000000000000000000000000000000000000000000000000000000000000000000000000000000000000000000001600000000000000000000000000000000000000000000000000000000000000e000000000000000000000000000000000000000000000000000000000000001200000000000000000000000000000000000000000000000000000000000000140000000000000000000000000000000000000000000000000000000000000018000000000000000000000000000000000000000000000000000000000000001c0000000000000000000000000000000000000000000000000000000000000020000000000000000000000000000000000000000000000000000000000000000107368613235363a736d6b2d6f746865720000000000000000000000000000000000000000000000000000000000000000000000000000000000000000000000000000000000000000000000000000000000000000000000000000000000000009534d4b2d4f5448455200000000000000000000000000000000000000000000000000000000000000000000000000000000000000000000000000000000000013536d6f6b65205465737420417274696661637400000000000000000000000000000000000000000000000000000000000000000000000000000000000000000949616e204d6f6f72650000000000000000000000000000000000000000000000000000000000000000000000000000000000000000000000000000000000000000000000000000000000000000000000000000000000000000000000000001e000000000000000000000000000000000000000000000000000000000000000a000000000000000000000000000000000000000000000000000000000000000e00000000000000000000000000000000000000000000000000000000000000120000000000000000000000000000000000000000000000000000000000000016000000000000000000000000000000000000000000000000000000000000001a00000000000000000000000000000000000000000000000000000000000000006636f75727365000000000000000000000000000000000000000000000000000000000000000000000000000000000000000000000000000000000000000000095468696e6b696669630000000000000000000000000000000000000000000000000000000000000000000000000000000000000000000000000000000000001a68747470733a2f2f7468696e6b696669632e636f6d2f7465737400000000000000000000000000000000000000000000000000000000000000000000000000084465466920313031000000000000000000000000000000000000000000000000000000000000000000000000000000000000000000000000000000000000001c7368613235363a6f746865722d6d616e69666573742d6a6b6c30313200000000",
        "nonce": "0x42",
        "chainId": "0xaa36a7"
      },
      "additionalContracts": [],
      "isFixedGasLimit": false
    }
  ],
  "receipts": [
    {
      "type": "0x2",
      "status": "0x1",
      "cumulativeGasUsed": "0xed6647",
      "logs": [
        {
          "address": "0x44468d4e98f04ed644146f76f0903e56e8434804",
          "topics": [
            "0x6425ba460ad4eeed7b9429a92916324281ddeca07590245e131b03374f7a05e4",
            "0x4ccbf0e3221225e11677ab0775940551b3f3baeb43004a6c80079ec057564d0c",
            "0x000000000000000000000000c7a7afde1177fbf0bb265ea5a616d1b8d7ed8c44"
          ],
          "data": "0x000000000000000000000000000000000000000000000000000000000000000000000000000000000000000000000000000000000000000000000000000001000000000000000000000000000000000000000000000000000000000000000140000000000000000000000000000000000000000000000000000000000000018000000000000000000000000000000000000000000000000000000000000001c0000000000000000000000000000000000000000000000000000000000000020000000000000000000000000000000000000000000000000000000000000002400000000000000000000000000000000000000000000000000000000000000260000000000000000000000000000000000000000000000000000000000000000b41522d534d4b2d434f44450000000000000000000000000000000000000000000000000000000000000000000000000000000000000000000000000000000008534d4b2d434f44450000000000000000000000000000000000000000000000000000000000000000000000000000000000000000000000000000000000000013536d6f6b65205465737420417274696661637400000000000000000000000000000000000000000000000000000000000000000000000000000000000000000949616e204d6f6f72650000000000000000000000000000000000000000000000000000000000000000000000000000000000000000000000000000000000000f7368613235363a736d6b2d636f6465000000000000000000000000000000000000000000000000000000000000000000000000000000000000000000000000000000000000000000000000000000000000000000000000000000000000000000",
          "blockHash": "0x67e21125dd21d62963a8d8176b34608aa3e76513183c0df738be9fdc93e3c178",
          "blockNumber": "0xa11408",
          "blockTimestamp": "0x69caf680",
          "transactionHash": "0x3c66e0598a827275e3ec90bd5907740422fb54e092fd50d25b614b117983bea8",
          "transactionIndex": "0x53",
          "logIndex": "0x1c2",
          "removed": false
        }
      ],
      "logsBloom": "0x00000000000000000000000000080000000004000000000000000200000000000000020000000000000000000000000000000000000000000000000040000000000000000000000000000000000000000000000000000800000000000080000000000000000000000000000000000000000000000000000000000000000000000000000000000000000000000000000000020000000000000100000000000000000000000000000000000000000000000000000000000000000100000000000000000000000000000040000000000000000100000000000000000000000000000000000000000000000000000000000000000000000000000000000000000000",
      "transactionHash": "0x3c66e0598a827275e3ec90bd5907740422fb54e092fd50d25b614b117983bea8",
      "transactionIndex": "0x53",
      "blockHash": "0x67e21125dd21d62963a8d8176b34608aa3e76513183c0df738be9fdc93e3c178",
      "blockNumber": "0xa11408",
      "gasUsed": "0x66af4",
      "effectiveGasPrice": "0xf424a",
      "from": "0xc7a7afde1177fbf0bb265ea5a616d1b8d7ed8c44",
      "to": "0x44468d4e98f04ed644146f76f0903e56e8434804",
      "contractAddress": null
    },
    {
      "type": "0x2",
      "status": "0x1",
      "cumulativeGasUsed": "0xf52511",
      "logs": [
        {
          "address": "0x44468d4e98f04ed644146f76f0903e56e8434804",
          "topics": [
            "0x6425ba460ad4eeed7b9429a92916324281ddeca07590245e131b03374f7a05e4",
            "0xa158ebd164c9156dd89ec77d602bac49e0452487baa72b8a0eef9c49846763c4",
            "0x000000000000000000000000c7a7afde1177fbf0bb265ea5a616d1b8d7ed8c44"
          ],
          "data": "0x000000000000000000000000000000000000000000000000000000000000000500000000000000000000000000000000000000000000000000000000000001000000000000000000000000000000000000000000000000000000000000000140000000000000000000000000000000000000000000000000000000000000018000000000000000000000000000000000000000000000000000000000000001c0000000000000000000000000000000000000000000000000000000000000020000000000000000000000000000000000000000000000000000000000000002400000000000000000000000000000000000000000000000000000000000000260000000000000000000000000000000000000000000000000000000000000000c41522d534d4b2d4d4544494100000000000000000000000000000000000000000000000000000000000000000000000000000000000000000000000000000009534d4b2d4d4544494100000000000000000000000000000000000000000000000000000000000000000000000000000000000000000000000000000000000013536d6f6b65205465737420417274696661637400000000000000000000000000000000000000000000000000000000000000000000000000000000000000000949616e204d6f6f7265000000000000000000000000000000000000000000000000000000000000000000000000000000000000000000000000000000000000107368613235363a736d6b2d6d656469610000000000000000000000000000000000000000000000000000000000000000000000000000000000000000000000000000000000000000000000000000000000000000000000000000000000000000",
          "blockHash": "0x67e21125dd21d62963a8d8176b34608aa3e76513183c0df738be9fdc93e3c178",
          "blockNumber": "0xa11408",
          "blockTimestamp": "0x69caf680",
          "transactionHash": "0x301866bb125ccc1de14884a7061984d09d6bcbe545fc680a05359cc48cfa7dec",
          "transactionIndex": "0x54",
          "logIndex": "0x1c3",
          "removed": false
        }
      ],
      "logsBloom": "0x00000000000000000000000000080000000004000000000000000000000000000000020000000000000000000000000000800000000000000000000040000000000000000000000000000000000000000000000000000800000000000080000000000000000000000010000000000000000000000000000000000000000000000000000000000000000000000000000000020000000000000000000000000000000000000000000000000000000000000000000000000000000000000000000000000000000000000040000000000000000100000000000000000000000020000000000000000000000000000000000000000000000000000000000000000000",
      "transactionHash": "0x301866bb125ccc1de14884a7061984d09d6bcbe545fc680a05359cc48cfa7dec",
      "transactionIndex": "0x54",
      "blockHash": "0x67e21125dd21d62963a8d8176b34608aa3e76513183c0df738be9fdc93e3c178",
      "blockNumber": "0xa11408",
      "gasUsed": "0x7beca",
      "effectiveGasPrice": "0xf424a",
      "from": "0xc7a7afde1177fbf0bb265ea5a616d1b8d7ed8c44",
      "to": "0x44468d4e98f04ed644146f76f0903e56e8434804",
      "contractAddress": null
    },
    {
      "type": "0x2",
      "status": "0x1",
      "cumulativeGasUsed": "0x112d17b",
      "logs": [
        {
          "address": "0x44468d4e98f04ed644146f76f0903e56e8434804",
          "topics": [
            "0x6425ba460ad4eeed7b9429a92916324281ddeca07590245e131b03374f7a05e4",
            "0x51127fadc670ccdad4d777fc676af421c597649c08af3569dcd6899e80b8cf50",
            "0x000000000000000000000000c7a7afde1177fbf0bb265ea5a616d1b8d7ed8c44"
          ],
          "data": "0x000000000000000000000000000000000000000000000000000000000000000600000000000000000000000000000000000000000000000000000000000001000000000000000000000000000000000000000000000000000000000000000140000000000000000000000000000000000000000000000000000000000000018000000000000000000000000000000000000000000000000000000000000001c0000000000000000000000000000000000000000000000000000000000000020000000000000000000000000000000000000000000000000000000000000002400000000000000000000000000000000000000000000000000000000000000260000000000000000000000000000000000000000000000000000000000000000b41522d534d4b2d544558540000000000000000000000000000000000000000000000000000000000000000000000000000000000000000000000000000000008534d4b2d544558540000000000000000000000000000000000000000000000000000000000000000000000000000000000000000000000000000000000000013536d6f6b65205465737420417274696661637400000000000000000000000000000000000000000000000000000000000000000000000000000000000000000949616e204d6f6f72650000000000000000000000000000000000000000000000000000000000000000000000000000000000000000000000000000000000000f7368613235363a736d6b2d74657874000000000000000000000000000000000000000000000000000000000000000000000000000000000000000000000000000000000000000000000000000000000000000000000000000000000000000000",
          "blockHash": "0x67e21125dd21d62963a8d8176b34608aa3e76513183c0df738be9fdc93e3c178",
          "blockNumber": "0xa11408",
          "blockTimestamp": "0x69caf680",
          "transactionHash": "0xf709dce8aa91e2e3916bc599e30a875725706bcc292dfef50c909f2e4577896a",
          "transactionIndex": "0x5a",
          "logIndex": "0x240",
          "removed": false
        }
      ],
      "logsBloom": "0x00000000000000000000000000080000000004000000000000000000000000000000020000000000000000000100000000000000000000000000000040000000000000000000000000000000000000000000000000000800000000000080000000000000000000000000000000000000000800000000000000000000000000000000000000000000000000000000000000020000000000000000000000000000000000000000000000000000000000004000000000000000000000000000000000000000000000000040000000000000000100000000000000000000000000000000000000000000000000000000000000000000000000000000000000000000",
      "transactionHash": "0xf709dce8aa91e2e3916bc599e30a875725706bcc292dfef50c909f2e4577896a",
      "transactionIndex": "0x5a",
      "blockHash": "0x67e21125dd21d62963a8d8176b34608aa3e76513183c0df738be9fdc93e3c178",
      "blockNumber": "0xa11408",
      "gasUsed": "0x6b988",
      "effectiveGasPrice": "0xf424a",
      "from": "0xc7a7afde1177fbf0bb265ea5a616d1b8d7ed8c44",
      "to": "0x44468d4e98f04ed644146f76f0903e56e8434804",
      "contractAddress": null
    },
    {
      "type": "0x2",
      "status": "0x1",
      "cumulativeGasUsed": "0x11c9e4d",
      "logs": [
        {
          "address": "0x44468d4e98f04ed644146f76f0903e56e8434804",
          "topics": [
            "0x6425ba460ad4eeed7b9429a92916324281ddeca07590245e131b03374f7a05e4",
            "0x9711e3e8de4b29c03711395bfc1bfe268780577eea8b8aa3c31f27465bd46b5d",
            "0x000000000000000000000000c7a7afde1177fbf0bb265ea5a616d1b8d7ed8c44"
          ],
          "data": "0x000000000000000000000000000000000000000000000000000000000000000900000000000000000000000000000000000000000000000000000000000001000000000000000000000000000000000000000000000000000000000000000140000000000000000000000000000000000000000000000000000000000000018000000000000000000000000000000000000000000000000000000000000001c0000000000000000000000000000000000000000000000000000000000000020000000000000000000000000000000000000000000000000000000000000002400000000000000000000000000000000000000000000000000000000000000260000000000000000000000000000000000000000000000000000000000000000d41522d534d4b2d5245504f525400000000000000000000000000000000000000000000000000000000000000000000000000000000000000000000000000000a534d4b2d5245504f5254000000000000000000000000000000000000000000000000000000000000000000000000000000000000000000000000000000000013536d6f6b65205465737420417274696661637400000000000000000000000000000000000000000000000000000000000000000000000000000000000000000949616e204d6f6f7265000000000000000000000000000000000000000000000000000000000000000000000000000000000000000000000000000000000000117368613235363a736d6b2d7265706f727400000000000000000000000000000000000000000000000000000000000000000000000000000000000000000000000000000000000000000000000000000000000000000000000000000000000000",
          "blockHash": "0x67e21125dd21d62963a8d8176b34608aa3e76513183c0df738be9fdc93e3c178",
          "blockNumber": "0xa11408",
          "blockTimestamp": "0x69caf680",
          "transactionHash": "0x55be947ab43493ac67f520cc99efb31f56d7f8959d2178949a7bd4347a216c9f",
          "transactionIndex": "0x5b",
          "logIndex": "0x241",
          "removed": false
        }
      ],
      "logsBloom": "0x00000000000000000000000000080800000004000000000000000000000080000000020000000000000000000000000000000000000000000000000040000000000000000000000000000000000000200000000000000800000000000080000000000000000000000000000000000000000000000000000000000000000000000000000000000000000000000000000000020000000000000000000000000000000000000000000000000000000000000000000000000000000000000000000000000000000000000040000000000000000100000000000000000000000000000000000000000000000000000000000000000000000000000000000000000000",
      "transactionHash": "0x55be947ab43493ac67f520cc99efb31f56d7f8959d2178949a7bd4347a216c9f",
      "transactionIndex": "0x5b",
      "blockHash": "0x67e21125dd21d62963a8d8176b34608aa3e76513183c0df738be9fdc93e3c178",
      "blockNumber": "0xa11408",
      "gasUsed": "0x9ccd2",
      "effectiveGasPrice": "0xf424a",
      "from": "0xc7a7afde1177fbf0bb265ea5a616d1b8d7ed8c44",
      "to": "0x44468d4e98f04ed644146f76f0903e56e8434804",
      "contractAddress": null
    },
    {
      "type": "0x2",
      "status": "0x1",
      "cumulativeGasUsed": "0x12358f5",
      "logs": [
        {
          "address": "0x44468d4e98f04ed644146f76f0903e56e8434804",
          "topics": [
            "0x6425ba460ad4eeed7b9429a92916324281ddeca07590245e131b03374f7a05e4",
            "0x413be863eb1debf7baee72dc23a8d28c128164fee2f4157b7df57acb86284cb4",
            "0x000000000000000000000000c7a7afde1177fbf0bb265ea5a616d1b8d7ed8c44"
          ],
          "data": "0x000000000000000000000000000000000000000000000000000000000000000a00000000000000000000000000000000000000000000000000000000000001000000000000000000000000000000000000000000000000000000000000000140000000000000000000000000000000000000000000000000000000000000018000000000000000000000000000000000000000000000000000000000000001c0000000000000000000000000000000000000000000000000000000000000020000000000000000000000000000000000000000000000000000000000000002400000000000000000000000000000000000000000000000000000000000000260000000000000000000000000000000000000000000000000000000000000000b41522d534d4b2d4e4f54450000000000000000000000000000000000000000000000000000000000000000000000000000000000000000000000000000000008534d4b2d4e4f54450000000000000000000000000000000000000000000000000000000000000000000000000000000000000000000000000000000000000013536d6f6b65205465737420417274696661637400000000000000000000000000000000000000000000000000000000000000000000000000000000000000000949616e204d6f6f72650000000000000000000000000000000000000000000000000000000000000000000000000000000000000000000000000000000000000f7368613235363a736d6b2d6e6f7465000000000000000000000000000000000000000000000000000000000000000000000000000000000000000000000000000000000000000000000000000000000000000000000000000000000000000000",
          "blockHash": "0x67e21125dd21d62963a8d8176b34608aa3e76513183c0df738be9fdc93e3c178",
          "blockNumber": "0xa11408",
          "blockTimestamp": "0x69caf680",
          "transactionHash": "0x7a236f1644c8d551c9e5f05379ef3a790051d97694b0fe4013f0ca68654dfe99",
          "transactionIndex": "0x5c",
          "logIndex": "0x242",
          "removed": false
        }
      ],
      "logsBloom": "0x00000000000000000000000000080000000004000000000000000000000000000000020000000000000000000000000000000000000000000000040040000000000000000000000000000000000000000000000000000800000000000080000000000000000000000000000000000000000000040000000000000000000000000000000000000000000000000000000000020000000000000000000000000000000000000000000000000000000000000000000000000000000000000000000000000000000000000040000000000000000100000000000000000000000000000000000000000000000080000000000000000000000000000000000000000000",
      "transactionHash": "0x7a236f1644c8d551c9e5f05379ef3a790051d97694b0fe4013f0ca68654dfe99",
      "transactionIndex": "0x5c",
      "blockHash": "0x67e21125dd21d62963a8d8176b34608aa3e76513183c0df738be9fdc93e3c178",
      "blockNumber": "0xa11408",
      "gasUsed": "0x6baa8",
      "effectiveGasPrice": "0xf424a",
      "from": "0xc7a7afde1177fbf0bb265ea5a616d1b8d7ed8c44",
      "to": "0x44468d4e98f04ed644146f76f0903e56e8434804",
      "contractAddress": null
    },
    {
      "type": "0x2",
      "status": "0x1",
      "cumulativeGasUsed": "0x12d2567",
      "logs": [
        {
          "address": "0x44468d4e98f04ed644146f76f0903e56e8434804",
          "topics": [
            "0x6425ba460ad4eeed7b9429a92916324281ddeca07590245e131b03374f7a05e4",
            "0x186c4688e09059d804662a727a2b0a146299d1e95f7419ab55e230d49cb72611",
            "0x000000000000000000000000c7a7afde1177fbf0bb265ea5a616d1b8d7ed8c44"
          ],
          "data": "0x000000000000000000000000000000000000000000000000000000000000000d00000000000000000000000000000000000000000000000000000000000001000000000000000000000000000000000000000000000000000000000000000140000000000000000000000000000000000000000000000000000000000000018000000000000000000000000000000000000000000000000000000000000001c0000000000000000000000000000000000000000000000000000000000000020000000000000000000000000000000000000000000000000000000000000002400000000000000000000000000000000000000000000000000000000000000260000000000000000000000000000000000000000000000000000000000000000e41522d534d4b2d52454345495054000000000000000000000000000000000000000000000000000000000000000000000000000000000000000000000000000b534d4b2d524543454950540000000000000000000000000000000000000000000000000000000000000000000000000000000000000000000000000000000013536d6f6b65205465737420417274696661637400000000000000000000000000000000000000000000000000000000000000000000000000000000000000000949616e204d6f6f7265000000000000000000000000000000000000000000000000000000000000000000000000000000000000000000000000000000000000127368613235363a736d6b2d72656365697074000000000000000000000000000000000000000000000000000000000000000000000000000000000000000000000000000000000000000000000000000000000000000000000000000000000000",
          "blockHash": "0x67e21125dd21d62963a8d8176b34608aa3e76513183c0df738be9fdc93e3c178",
          "blockNumber": "0xa11408",
          "blockTimestamp": "0x69caf680",
          "transactionHash": "0x44632da407c9186a9c1953f8708e466ca21f79dcdaa467feaa1421d2553b13ab",
          "transactionIndex": "0x5d",
          "logIndex": "0x243",
          "removed": false
        }
      ],
      "logsBloom": "0x00000000000000000000000000080000000004000000000000000000000000000000020000000000000001000000000000000000000000000000000040000000000000000000000000000000000000000000000000000800000000000080000000000000400000000000000000000000000000000000000000000000000000000000000000000000000000000000000000020000000000000000000000000000000000000000000000000000000000000000000000000000000000000000000000000000000000000040000000000000000100000000000000000040000000000000000000000000000000000000000000000000000000000000000000000000",
      "transactionHash": "0x44632da407c9186a9c1953f8708e466ca21f79dcdaa467feaa1421d2553b13ab",
      "transactionIndex": "0x5d",
      "blockHash": "0x67e21125dd21d62963a8d8176b34608aa3e76513183c0df738be9fdc93e3c178",
      "blockNumber": "0xa11408",
      "gasUsed": "0x9cc72",
      "effectiveGasPrice": "0xf424a",
      "from": "0xc7a7afde1177fbf0bb265ea5a616d1b8d7ed8c44",
      "to": "0x44468d4e98f04ed644146f76f0903e56e8434804",
      "contractAddress": null
    },
    {
      "type": "0x2",
      "status": "0x1",
      "cumulativeGasUsed": "0x133dfe2",
      "logs": [
        {
          "address": "0x44468d4e98f04ed644146f76f0903e56e8434804",
          "topics": [
            "0x6425ba460ad4eeed7b9429a92916324281ddeca07590245e131b03374f7a05e4",
            "0xa15ebd6df38d24807fa9d05662eeeda4b63432ec096b4ef42999f904839f2442",
            "0x000000000000000000000000c7a7afde1177fbf0bb265ea5a616d1b8d7ed8c44"
          ],
          "data": "0x000000000000000000000000000000000000000000000000000000000000001600000000000000000000000000000000000000000000000000000000000001000000000000000000000000000000000000000000000000000000000000000140000000000000000000000000000000000000000000000000000000000000018000000000000000000000000000000000000000000000000000000000000001c0000000000000000000000000000000000000000000000000000000000000020000000000000000000000000000000000000000000000000000000000000002400000000000000000000000000000000000000000000000000000000000000260000000000000000000000000000000000000000000000000000000000000000c41522d534d4b2d4f5448455200000000000000000000000000000000000000000000000000000000000000000000000000000000000000000000000000000009534d4b2d4f5448455200000000000000000000000000000000000000000000000000000000000000000000000000000000000000000000000000000000000013536d6f6b65205465737420417274696661637400000000000000000000000000000000000000000000000000000000000000000000000000000000000000000949616e204d6f6f7265000000000000000000000000000000000000000000000000000000000000000000000000000000000000000000000000000000000000107368613235363a736d6b2d6f746865720000000000000000000000000000000000000000000000000000000000000000000000000000000000000000000000000000000000000000000000000000000000000000000000000000000000000000",
          "blockHash": "0x67e21125dd21d62963a8d8176b34608aa3e76513183c0df738be9fdc93e3c178",
          "blockNumber": "0xa11408",
          "blockTimestamp": "0x69caf680",
          "transactionHash": "0xb8e6376bae692ae8393711ce19f9791b988565ddcc6a635e476b7cf549b26554",
          "transactionIndex": "0x5e",
          "logIndex": "0x244",
          "removed": false
        }
      ],
      "logsBloom": "0x00000000000000000004000000080000000004000000000000000000000000000000020000000000000000000002000000000000000000000000000040000000000020000000000000000000000000000000000000000800000000000080000000000000000000000000000000000000000000000000000000000000000000000000000000000000000000000000000000020000000000000000000000000000000000000000000000000000000000000000000000000000000000000000000000000000000000000040000000000000000100000000000000000000000000000000000000000000000000000000000000000000000000000000000000000000",
      "transactionHash": "0xb8e6376bae692ae8393711ce19f9791b988565ddcc6a635e476b7cf549b26554",
      "transactionIndex": "0x5e",
      "blockHash": "0x67e21125dd21d62963a8d8176b34608aa3e76513183c0df738be9fdc93e3c178",
      "blockNumber": "0xa11408",
      "gasUsed": "0x6ba7b",
      "effectiveGasPrice": "0xf424a",
      "from": "0xc7a7afde1177fbf0bb265ea5a616d1b8d7ed8c44",
      "to": "0x44468d4e98f04ed644146f76f0903e56e8434804",
      "contractAddress": null
    }
  ],
  "libraries": [],
  "pending": [],
  "returns": {},
  "timestamp": 1774909058183,
  "chain": 11155111,
  "commit": "9cbe453"
}