{
  "transactions": [
    {
      "hash": "0xf81e0256f157356f03cb72f88481e1bfcd116b8f4876572ddf1f94b315411091",
      "transactionType": "CALL",
      "contractName": null,
      "contractAddress": "0x9e1f48d3c46bc69a540d16511faa76add25a8451",
      "function": "registerContent(string,(uint8,string,string,string,string,string,string),bytes,bytes32)",
      "arguments": [
        "AR-SMK-CODE",
        "(0, sha256:smk-code, , SMK-CODE, Smoke Test Artifact, Ian Moore, )",
        "0x00000000000000000000000000000000000000000000000000000000000000a000000000000000000000000000000000000000000000000000000000000000e00000000000000000000000000000000000000000000000000000000000000120000000000000000000000000000000000000000000000000000000000000016000000000000000000000000000000000000000000000000000000000000001a000000000000000000000000000000000000000000000000000000000000000096769743a736d6f6b65000000000000000000000000000000000000000000000000000000000000000000000000000000000000000000000000000000000000034d495400000000000000000000000000000000000000000000000000000000000000000000000000000000000000000000000000000000000000000000000008536f6c6964697479000000000000000000000000000000000000000000000000000000000000000000000000000000000000000000000000000000000000000676312e302e300000000000000000000000000000000000000000000000000000000000000000000000000000000000000000000000000000000000000000001768747470733a2f2f6769746875622e636f6d2f74657374000000000000000000",
        "0x0000000000000000000000000000000000000000000000000000000000000001"
      ],
      "transaction": {
        "from": "0xc7a7afde1177fbf0bb265ea5a616d1b8d7ed8c44",
        "to": "0x9e1f48d3c46bc69a540d16511faa76add25a8451",
        "gas": "0x95c1f",
        "value": "0x0",
        "input": "0xcf8bc4b6000000000000000000000000000000000000000000000000000000000000008000000000000000000000000000000000000000000000000000000000000000c000000000000000000000000000000000000000000000000000000000000002e00000000000000000000000000000000000000000000000000000000000000001000000000000000000000000000000000000000000000000000000000000000b41522d534d4b2d434f4445000000000000000000000000000000000000000000000000000000000000000000000000000000000000000000000000000000000000000000000000000000000000000000000000000000000000000000000000e000000000000000000000000000000000000000000000000000000000000001200000000000000000000000000000000000000000000000000000000000000140000000000000000000000000000000000000000000000000000000000000018000000000000000000000000000000000000000000000000000000000000001c00000000000000000000000000000000000000000000000000000000000000200000000000000000000000000000000000000000000000000000000000000000f7368613235363a736d6b2d636f6465000000000000000000000000000000000000000000000000000000000000000000000000000000000000000000000000000000000000000000000000000000000000000000000000000000000000000008534d4b2d434f44450000000000000000000000000000000000000000000000000000000000000000000000000000000000000000000000000000000000000013536d6f6b65205465737420417274696661637400000000000000000000000000000000000000000000000000000000000000000000000000000000000000000949616e204d6f6f72650000000000000000000000000000000000000000000000000000000000000000000000000000000000000000000000000000000000000000000000000000000000000000000000000000000000000000000000000001e000000000000000000000000000000000000000000000000000000000000000a000000000000000000000000000000000000000000000000000000000000000e00000000000000000000000000000000000000000000000000000000000000120000000000000000000000000000000000000000000000000000000000000016000000000000000000000000000000000000000000000000000000000000001a000000000000000000000000000000000000000000000000000000000000000096769743a736d6f6b65000000000000000000000000000000000000000000000000000000000000000000000000000000000000000000000000000000000000034d495400000000000000000000000000000000000000000000000000000000000000000000000000000000000000000000000000000000000000000000000008536f6c6964697479000000000000000000000000000000000000000000000000000000000000000000000000000000000000000000000000000000000000000676312e302e300000000000000000000000000000000000000000000000000000000000000000000000000000000000000000000000000000000000000000001768747470733a2f2f6769746875622e636f6d2f74657374000000000000000000",
        "nonce": "0x48",
        "chainId": "0xaa36a7"
      },
      "additionalContracts": [],
      "isFixedGasLimit": false
    },
    {
      "hash": "0xd7ac498f108a7aaf3d2b9c879ce4768a5b074385d634ca68985a383a5d5a8ad3",
      "transactionType": "CALL",
      "contractName": null,
      "contractAddress": "0x9e1f48d3c46bc69a540d16511faa76add25a8451",
      "function": "registerContent(string,(uint8,string,string,string,string,string,string),bytes,bytes32)",
      "arguments": [
        "AR-SMK-MEDIA",
        "(5, sha256:smk-media, , SMK-MEDIA, Smoke Test Artifact, Ian Moore, )",
        "0x00000000000000000000000000000000000000000000000000000000000000c000000000000000000000000000000000000000000000000000000000000001000000000000000000000000000000000000000000000000000000000000000140000000000000000000000000000000000000000000000000000000000000018000000000000000000000000000000000000000000000000000000000000001c000000000000000000000000000000000000000000000000000000000000002000000000000000000000000000000000000000000000000000000000000000009766964656f2f6d703400000000000000000000000000000000000000000000000000000000000000000000000000000000000000000000000000000000000007596f75547562650000000000000000000000000000000000000000000000000000000000000000000000000000000000000000000000000000000000000000034d503400000000000000000000000000000000000000000000000000000000000000000000000000000000000000000000000000000000000000000000000004333a34350000000000000000000000000000000000000000000000000000000000000000000000000000000000000000000000000000000000000000000000095553524331323334350000000000000000000000000000000000000000000000000000000000000000000000000000000000000000000000000000000000001868747470733a2f2f796f75747562652e636f6d2f746573740000000000000000",
        "0x0000000000000000000000000000000000000000000000000000000000000001"
      ],
      "transaction": {
        "from": "0xc7a7afde1177fbf0bb265ea5a616d1b8d7ed8c44",
        "to": "0x9e1f48d3c46bc69a540d16511faa76add25a8451",
        "gas": "0xb3185",
        "value": "0x0",
        "input": "0xcf8bc4b6000000000000000000000000000000000000000000000000000000000000008000000000000000000000000000000000000000000000000000000000000000c000000000000000000000000000000000000000000000000000000000000002e00000000000000000000000000000000000000000000000000000000000000001000000000000000000000000000000000000000000000000000000000000000c41522d534d4b2d4d454449410000000000000000000000000000000000000000000000000000000000000000000000000000000000000000000000000000000500000000000000000000000000000000000000000000000000000000000000e000000000000000000000000000000000000000000000000000000000000001200000000000000000000000000000000000000000000000000000000000000140000000000000000000000000000000000000000000000000000000000000018000000000000000000000000000000000000000000000000000000000000001c0000000000000000000000000000000000000000000000000000000000000020000000000000000000000000000000000000000000000000000000000000000107368613235363a736d6b2d6d656469610000000000000000000000000000000000000000000000000000000000000000000000000000000000000000000000000000000000000000000000000000000000000000000000000000000000000009534d4b2d4d4544494100000000000000000000000000000000000000000000000000000000000000000000000000000000000000000000000000000000000013536d6f6b65205465737420417274696661637400000000000000000000000000000000000000000000000000000000000000000000000000000000000000000949616e204d6f6f726500000000000000000000000000000000000000000000000000000000000000000000000000000000000000000000000000000000000000000000000000000000000000000000000000000000000000000000000000024000000000000000000000000000000000000000000000000000000000000000c000000000000000000000000000000000000000000000000000000000000001000000000000000000000000000000000000000000000000000000000000000140000000000000000000000000000000000000000000000000000000000000018000000000000000000000000000000000000000000000000000000000000001c000000000000000000000000000000000000000000000000000000000000002000000000000000000000000000000000000000000000000000000000000000009766964656f2f6d703400000000000000000000000000000000000000000000000000000000000000000000000000000000000000000000000000000000000007596f75547562650000000000000000000000000000000000000000000000000000000000000000000000000000000000000000000000000000000000000000034d503400000000000000000000000000000000000000000000000000000000000000000000000000000000000000000000000000000000000000000000000004333a34350000000000000000000000000000000000000000000000000000000000000000000000000000000000000000000000000000000000000000000000095553524331323334350000000000000000000000000000000000000000000000000000000000000000000000000000000000000000000000000000000000001868747470733a2f2f796f75747562652e636f6d2f746573740000000000000000",
        "nonce": "0x49",
        "chainId": "0xaa36a7"
      },
      "additionalContracts": [],
      "isFixedGasLimit": false
    },
    {
      "hash": "0x0ac751f10e23c228d480d576c80eb5733f6e0d85e2dde72b3b258353d44822c9",
      "transactionType": "CALL",
      "contractName": null,
      "contractAddress": "0x9e1f48d3c46bc69a540d16511faa76add25a8451",
      "function": "registerContent(string,(uint8,string,string,string,string,string,string),bytes,bytes32)",
      "arguments": [
        "AR-SMK-TEXT",
        "(6, sha256:smk-text, , SMK-TEXT, Smoke Test Artifact, Ian Moore, )",
        "0x00000000000000000000000000000000000000000000000000000000000000a000000000000000000000000000000000000000000000000000000000000000e00000000000000000000000000000000000000000000000000000000000000120000000000000000000000000000000000000000000000000000000000000016000000000000000000000000000000000000000000000000000000000000001a0000000000000000000000000000000000000000000000000000000000000000741525449434c450000000000000000000000000000000000000000000000000000000000000000000000000000000000000000000000000000000000000000113937382d332d31362d3134383431302d3000000000000000000000000000000000000000000000000000000000000000000000000000000000000000000000084f275265696c6c790000000000000000000000000000000000000000000000000000000000000000000000000000000000000000000000000000000000000007456e676c69736800000000000000000000000000000000000000000000000000000000000000000000000000000000000000000000000000000000000000001b68747470733a2f2f6578616d706c652e636f6d2f61727469636c650000000000",
        "0x0000000000000000000000000000000000000000000000000000000000000001"
      ],
      "transaction": {
        "from": "0xc7a7afde1177fbf0bb265ea5a616d1b8d7ed8c44",
        "to": "0x9e1f48d3c46bc69a540d16511faa76add25a8451",
        "gas": "0x9c8a8",
        "value": "0x0",
        "input": "0xcf8bc4b6000000000000000000000000000000000000000000000000000000000000008000000000000000000000000000000000000000000000000000000000000000c000000000000000000000000000000000000000000000000000000000000002e00000000000000000000000000000000000000000000000000000000000000001000000000000000000000000000000000000000000000000000000000000000b41522d534d4b2d54455854000000000000000000000000000000000000000000000000000000000000000000000000000000000000000000000000000000000600000000000000000000000000000000000000000000000000000000000000e000000000000000000000000000000000000000000000000000000000000001200000000000000000000000000000000000000000000000000000000000000140000000000000000000000000000000000000000000000000000000000000018000000000000000000000000000000000000000000000000000000000000001c00000000000000000000000000000000000000000000000000000000000000200000000000000000000000000000000000000000000000000000000000000000f7368613235363a736d6b2d74657874000000000000000000000000000000000000000000000000000000000000000000000000000000000000000000000000000000000000000000000000000000000000000000000000000000000000000008534d4b2d544558540000000000000000000000000000000000000000000000000000000000000000000000000000000000000000000000000000000000000013536d6f6b65205465737420417274696661637400000000000000000000000000000000000000000000000000000000000000000000000000000000000000000949616e204d6f6f72650000000000000000000000000000000000000000000000000000000000000000000000000000000000000000000000000000000000000000000000000000000000000000000000000000000000000000000000000001e000000000000000000000000000000000000000000000000000000000000000a000000000000000000000000000000000000000000000000000000000000000e00000000000000000000000000000000000000000000000000000000000000120000000000000000000000000000000000000000000000000000000000000016000000000000000000000000000000000000000000000000000000000000001a0000000000000000000000000000000000000000000000000000000000000000741525449434c450000000000000000000000000000000000000000000000000000000000000000000000000000000000000000000000000000000000000000113937382d332d31362d3134383431302d3000000000000000000000000000000000000000000000000000000000000000000000000000000000000000000000084f275265696c6c790000000000000000000000000000000000000000000000000000000000000000000000000000000000000000000000000000000000000007456e676c69736800000000000000000000000000000000000000000000000000000000000000000000000000000000000000000000000000000000000000001b68747470733a2f2f6578616d706c652e636f6d2f61727469636c650000000000",
        "nonce": "0x4a",
        "chainId": "0xaa36a7"
      },
      "additionalContracts": [],
      "isFixedGasLimit": false
    },
    {
      "hash": "0x42cdc0c5a667dbc9d0eb912e6ca85f298d5625154b8840b99792db35c01453df",
      "transactionType": "CALL",
      "contractName": null,
      "contractAddress": "0x9e1f48d3c46bc69a540d16511faa76add25a8451",
      "function": "registerContent(string,(uint8,string,string,string,string,string,string),bytes,bytes32)",
      "arguments": [
        "AR-SMK-REPORT",
        "(9, sha256:smk-report, , SMK-REPORT, Smoke Test Artifact, Ian Moore, )",
        "0x00000000000000000000000000000000000000000000000000000000000001000000000000000000000000000000000000000000000000000000000000000140000000000000000000000000000000000000000000000000000000000000018000000000000000000000000000000000000000000000000000000000000001c000000000000000000000000000000000000000000000000000000000000002000000000000000000000000000000000000000000000000000000000000000240000000000000000000000000000000000000000000000000000000000000028000000000000000000000000000000000000000000000000000000000000002c0000000000000000000000000000000000000000000000000000000000000000a434f4e53554c54494e4700000000000000000000000000000000000000000000000000000000000000000000000000000000000000000000000000000000000941636d6520436f72700000000000000000000000000000000000000000000000000000000000000000000000000000000000000000000000000000000000000b534d4b2d454e472d303031000000000000000000000000000000000000000000000000000000000000000000000000000000000000000000000000000000000566696e616c000000000000000000000000000000000000000000000000000000000000000000000000000000000000000000000000000000000000000000000949616e204d6f6f72650000000000000000000000000000000000000000000000000000000000000000000000000000000000000000000000000000000000000d486976652041647669736f727900000000000000000000000000000000000000000000000000000000000000000000000000000000000000000000000000001a68747470733a2f2f6578616d706c652e636f6d2f7265706f7274000000000000000000000000000000000000000000000000000000000000000000000000001d7368613235363a7265706f72742d6d616e69666573742d616263313233000000",
        "0x0000000000000000000000000000000000000000000000000000000000000001"
      ],
      "transaction": {
        "from": "0xc7a7afde1177fbf0bb265ea5a616d1b8d7ed8c44",
        "to": "0x9e1f48d3c46bc69a540d16511faa76add25a8451",
        "gas": "0xe0819",
        "value": "0x0",
        "input": "0xcf8bc4b6000000000000000000000000000000000000000000000000000000000000008000000000000000000000000000000000000000000000000000000000000000c000000000000000000000000000000000000000000000000000000000000002e00000000000000000000000000000000000000000000000000000000000000001000000000000000000000000000000000000000000000000000000000000000d41522d534d4b2d5245504f525400000000000000000000000000000000000000000000000000000000000000000000000000000000000000000000000000000900000000000000000000000000000000000000000000000000000000000000e000000000000000000000000000000000000000000000000000000000000001200000000000000000000000000000000000000000000000000000000000000140000000000000000000000000000000000000000000000000000000000000018000000000000000000000000000000000000000000000000000000000000001c0000000000000000000000000000000000000000000000000000000000000020000000000000000000000000000000000000000000000000000000000000000117368613235363a736d6b2d7265706f72740000000000000000000000000000000000000000000000000000000000000000000000000000000000000000000000000000000000000000000000000000000000000000000000000000000000000a534d4b2d5245504f5254000000000000000000000000000000000000000000000000000000000000000000000000000000000000000000000000000000000013536d6f6b65205465737420417274696661637400000000000000000000000000000000000000000000000000000000000000000000000000000000000000000949616e204d6f6f726500000000000000000000000000000000000000000000000000000000000000000000000000000000000000000000000000000000000000000000000000000000000000000000000000000000000000000000000000030000000000000000000000000000000000000000000000000000000000000001000000000000000000000000000000000000000000000000000000000000000140000000000000000000000000000000000000000000000000000000000000018000000000000000000000000000000000000000000000000000000000000001c000000000000000000000000000000000000000000000000000000000000002000000000000000000000000000000000000000000000000000000000000000240000000000000000000000000000000000000000000000000000000000000028000000000000000000000000000000000000000000000000000000000000002c0000000000000000000000000000000000000000000000000000000000000000a434f4e53554c54494e4700000000000000000000000000000000000000000000000000000000000000000000000000000000000000000000000000000000000941636d6520436f72700000000000000000000000000000000000000000000000000000000000000000000000000000000000000000000000000000000000000b534d4b2d454e472d303031000000000000000000000000000000000000000000000000000000000000000000000000000000000000000000000000000000000566696e616c000000000000000000000000000000000000000000000000000000000000000000000000000000000000000000000000000000000000000000000949616e204d6f6f72650000000000000000000000000000000000000000000000000000000000000000000000000000000000000000000000000000000000000d486976652041647669736f727900000000000000000000000000000000000000000000000000000000000000000000000000000000000000000000000000001a68747470733a2f2f6578616d706c652e636f6d2f7265706f7274000000000000000000000000000000000000000000000000000000000000000000000000001d7368613235363a7265706f72742d6d616e69666573742d616263313233000000",
        "nonce": "0x4b",
        "chainId": "0xaa36a7"
      },
      "additionalContracts": [],
      "isFixedGasLimit": false
    },
    {
      "hash": "0x0a63c7ded377046716233eb657b3ebc14c2e478c9189be957f053e9b936868a0",
      "transactionType": "CALL",
      "contractName": null,
      "contractAddress": "0x9e1f48d3c46bc69a540d16511faa76add25a8451",
      "function": "registerContent(string,(uint8,string,string,string,string,string,string),bytes,bytes32)",
      "arguments": [
        "AR-SMK-NOTE",
        "(10, sha256:smk-note, , SMK-NOTE, Smoke Test Artifact, Ian Moore, )",
        "0x00000000000000000000000000000000000000000000000000000000000000a000000000000000000000000000000000000000000000000000000000000000e00000000000000000000000000000000000000000000000000000000000000120000000000000000000000000000000000000000000000000000000000000016000000000000000000000000000000000000000000000000000000000000001a000000000000000000000000000000000000000000000000000000000000000074d454554494e4700000000000000000000000000000000000000000000000000000000000000000000000000000000000000000000000000000000000000000a323032362d30332d333000000000000000000000000000000000000000000000000000000000000000000000000000000000000000000000000000000000001549616e204d6f6f72652c204a616e6520536d6974680000000000000000000000000000000000000000000000000000000000000000000000000000000000001968747470733a2f2f6578616d706c652e636f6d2f6e6f74657300000000000000000000000000000000000000000000000000000000000000000000000000001b7368613235363a6e6f74652d6d616e69666573742d6465663435360000000000",
        "0x0000000000000000000000000000000000000000000000000000000000000001"
      ],
      "transaction": {
        "from": "0xc7a7afde1177fbf0bb265ea5a616d1b8d7ed8c44",
        "to": "0x9e1f48d3c46bc69a540d16511faa76add25a8451",
        "gas": "0x9ca36",
        "value": "0x0",
        "input": "0xcf8bc4b6000000000000000000000000000000000000000000000000000000000000008000000000000000000000000000000000000000000000000000000000000000c000000000000000000000000000000000000000000000000000000000000002e00000000000000000000000000000000000000000000000000000000000000001000000000000000000000000000000000000000000000000000000000000000b41522d534d4b2d4e4f5445000000000000000000000000000000000000000000000000000000000000000000000000000000000000000000000000000000000a00000000000000000000000000000000000000000000000000000000000000e000000000000000000000000000000000000000000000000000000000000001200000000000000000000000000000000000000000000000000000000000000140000000000000000000000000000000000000000000000000000000000000018000000000000000000000000000000000000000000000000000000000000001c00000000000000000000000000000000000000000000000000000000000000200000000000000000000000000000000000000000000000000000000000000000f7368613235363a736d6b2d6e6f7465000000000000000000000000000000000000000000000000000000000000000000000000000000000000000000000000000000000000000000000000000000000000000000000000000000000000000008534d4b2d4e4f54450000000000000000000000000000000000000000000000000000000000000000000000000000000000000000000000000000000000000013536d6f6b65205465737420417274696661637400000000000000000000000000000000000000000000000000000000000000000000000000000000000000000949616e204d6f6f72650000000000000000000000000000000000000000000000000000000000000000000000000000000000000000000000000000000000000000000000000000000000000000000000000000000000000000000000000001e000000000000000000000000000000000000000000000000000000000000000a000000000000000000000000000000000000000000000000000000000000000e00000000000000000000000000000000000000000000000000000000000000120000000000000000000000000000000000000000000000000000000000000016000000000000000000000000000000000000000000000000000000000000001a000000000000000000000000000000000000000000000000000000000000000074d454554494e4700000000000000000000000000000000000000000000000000000000000000000000000000000000000000000000000000000000000000000a323032362d30332d333000000000000000000000000000000000000000000000000000000000000000000000000000000000000000000000000000000000001549616e204d6f6f72652c204a616e6520536d6974680000000000000000000000000000000000000000000000000000000000000000000000000000000000001968747470733a2f2f6578616d706c652e636f6d2f6e6f74657300000000000000000000000000000000000000000000000000000000000000000000000000001b7368613235363a6e6f74652d6d616e69666573742d6465663435360000000000",
        "nonce": "0x4c",
        "chainId": "0xaa36a7"
      },
      "additionalContracts": [],
      "isFixedGasLimit": false
    },
    {
      "hash": "0x50f95da36a47c1027dfb8715c95460337071d8615249013d9b50d68ab6f5d894",
      "transactionType": "CALL",
      "contractName": null,
      "contractAddress": "0x9e1f48d3c46bc69a540d16511faa76add25a8451",
      "function": "registerContent(string,(uint8,string,string,string,string,string,string),bytes,bytes32)",
      "arguments": [
        "AR-SMK-RECEIPT",
        "(13, sha256:smk-receipt, , SMK-RECEIPT, Smoke Test Artifact, Ian Moore, )",
        "0x00000000000000000000000000000000000000000000000000000000000001000000000000000000000000000000000000000000000000000000000000000140000000000000000000000000000000000000000000000000000000000000018000000000000000000000000000000000000000000000000000000000000001c000000000000000000000000000000000000000000000000000000000000002000000000000000000000000000000000000000000000000000000000000000240000000000000000000000000000000000000000000000000000000000000028000000000000000000000000000000000000000000000000000000000000002c000000000000000000000000000000000000000000000000000000000000000085055524348415345000000000000000000000000000000000000000000000000000000000000000000000000000000000000000000000000000000000000000757617966616972000000000000000000000000000000000000000000000000000000000000000000000000000000000000000000000000000000000000000007313239392e39390000000000000000000000000000000000000000000000000000000000000000000000000000000000000000000000000000000000000000034341440000000000000000000000000000000000000000000000000000000000000000000000000000000000000000000000000000000000000000000000000b4f52442d534d4b2d303031000000000000000000000000000000000000000000000000000000000000000000000000000000000000000000000000000000000773686f7069667900000000000000000000000000000000000000000000000000000000000000000000000000000000000000000000000000000000000000001c68747470733a2f2f776179666169722e636f6d2f6f72646572732f3100000000000000000000000000000000000000000000000000000000000000000000001e7368613235363a726563656970742d6d616e69666573742d6768693738390000",
        "0x0000000000000000000000000000000000000000000000000000000000000001"
      ],
      "transaction": {
        "from": "0xc7a7afde1177fbf0bb265ea5a616d1b8d7ed8c44",
        "to": "0x9e1f48d3c46bc69a540d16511faa76add25a8451",
        "gas": "0xe0794",
        "value": "0x0",
        "input": "0xcf8bc4b6000000000000000000000000000000000000000000000000000000000000008000000000000000000000000000000000000000000000000000000000000000c000000000000000000000000000000000000000000000000000000000000002e00000000000000000000000000000000000000000000000000000000000000001000000000000000000000000000000000000000000000000000000000000000e41522d534d4b2d52454345495054000000000000000000000000000000000000000000000000000000000000000000000000000000000000000000000000000d00000000000000000000000000000000000000000000000000000000000000e000000000000000000000000000000000000000000000000000000000000001200000000000000000000000000000000000000000000000000000000000000140000000000000000000000000000000000000000000000000000000000000018000000000000000000000000000000000000000000000000000000000000001c0000000000000000000000000000000000000000000000000000000000000020000000000000000000000000000000000000000000000000000000000000000127368613235363a736d6b2d7265636569707400000000000000000000000000000000000000000000000000000000000000000000000000000000000000000000000000000000000000000000000000000000000000000000000000000000000b534d4b2d524543454950540000000000000000000000000000000000000000000000000000000000000000000000000000000000000000000000000000000013536d6f6b65205465737420417274696661637400000000000000000000000000000000000000000000000000000000000000000000000000000000000000000949616e204d6f6f726500000000000000000000000000000000000000000000000000000000000000000000000000000000000000000000000000000000000000000000000000000000000000000000000000000000000000000000000000030000000000000000000000000000000000000000000000000000000000000001000000000000000000000000000000000000000000000000000000000000000140000000000000000000000000000000000000000000000000000000000000018000000000000000000000000000000000000000000000000000000000000001c000000000000000000000000000000000000000000000000000000000000002000000000000000000000000000000000000000000000000000000000000000240000000000000000000000000000000000000000000000000000000000000028000000000000000000000000000000000000000000000000000000000000002c000000000000000000000000000000000000000000000000000000000000000085055524348415345000000000000000000000000000000000000000000000000000000000000000000000000000000000000000000000000000000000000000757617966616972000000000000000000000000000000000000000000000000000000000000000000000000000000000000000000000000000000000000000007313239392e39390000000000000000000000000000000000000000000000000000000000000000000000000000000000000000000000000000000000000000034341440000000000000000000000000000000000000000000000000000000000000000000000000000000000000000000000000000000000000000000000000b4f52442d534d4b2d303031000000000000000000000000000000000000000000000000000000000000000000000000000000000000000000000000000000000773686f7069667900000000000000000000000000000000000000000000000000000000000000000000000000000000000000000000000000000000000000001c68747470733a2f2f776179666169722e636f6d2f6f72646572732f3100000000000000000000000000000000000000000000000000000000000000000000001e7368613235363a726563656970742d6d616e69666573742d6768693738390000",
        "nonce": "0x4d",
        "chainId": "0xaa36a7"
      },
      "additionalContracts": [],
      "isFixedGasLimit": false
    },
    {
      "hash": "0x03c15b0ac3642f1291d4acbfc0d91132f600aacdb14589d3fe3029dc74189f08",
      "transactionType": "CALL",
      "contractName": null,
      "contractAddress": "0x9e1f48d3c46bc69a540d16511faa76add25a8451",
      "function": "registerContent(string,(uint8,string,string,string,string,string,string),bytes,bytes32)",
      "arguments": [
        "AR-SMK-OTHER",
        "(22, sha256:smk-other, , SMK-OTHER, Smoke Test Artifact, Ian Moore, )",
        "0x00000000000000000000000000000000000000000000000000000000000000a000000000000000000000000000000000000000000000000000000000000000e00000000000000000000000000000000000000000000000000000000000000120000000000000000000000000000000000000000000000000000000000000016000000000000000000000000000000000000000000000000000000000000001a00000000000000000000000000000000000000000000000000000000000000006636f75727365000000000000000000000000000000000000000000000000000000000000000000000000000000000000000000000000000000000000000000095468696e6b696669630000000000000000000000000000000000000000000000000000000000000000000000000000000000000000000000000000000000001a68747470733a2f2f7468696e6b696669632e636f6d2f7465737400000000000000000000000000000000000000000000000000000000000000000000000000084465466920313031000000000000000000000000000000000000000000000000000000000000000000000000000000000000000000000000000000000000001c7368613235363a6f746865722d6d616e69666573742d6a6b6c30313200000000",
        "0x0000000000000000000000000000000000000000000000000000000000000001"
      ],
      "transaction": {
        "from": "0xc7a7afde1177fbf0bb265ea5a616d1b8d7ed8c44",
        "to": "0x9e1f48d3c46bc69a540d16511faa76add25a8451",
        "gas": "0x9c9f7",
        "value": "0x0",
        "input": "0xcf8bc4b6000000000000000000000000000000000000000000000000000000000000008000000000000000000000000000000000000000000000000000000000000000c000000000000000000000000000000000000000000000000000000000000002e00000000000000000000000000000000000000000000000000000000000000001000000000000000000000000000000000000000000000000000000000000000c41522d534d4b2d4f544845520000000000000000000000000000000000000000000000000000000000000000000000000000000000000000000000000000001600000000000000000000000000000000000000000000000000000000000000e000000000000000000000000000000000000000000000000000000000000001200000000000000000000000000000000000000000000000000000000000000140000000000000000000000000000000000000000000000000000000000000018000000000000000000000000000000000000000000000000000000000000001c0000000000000000000000000000000000000000000000000000000000000020000000000000000000000000000000000000000000000000000000000000000107368613235363a736d6b2d6f746865720000000000000000000000000000000000000000000000000000000000000000000000000000000000000000000000000000000000000000000000000000000000000000000000000000000000000009534d4b2d4f5448455200000000000000000000000000000000000000000000000000000000000000000000000000000000000000000000000000000000000013536d6f6b65205465737420417274696661637400000000000000000000000000000000000000000000000000000000000000000000000000000000000000000949616e204d6f6f72650000000000000000000000000000000000000000000000000000000000000000000000000000000000000000000000000000000000000000000000000000000000000000000000000000000000000000000000000001e000000000000000000000000000000000000000000000000000000000000000a000000000000000000000000000000000000000000000000000000000000000e00000000000000000000000000000000000000000000000000000000000000120000000000000000000000000000000000000000000000000000000000000016000000000000000000000000000000000000000000000000000000000000001a00000000000000000000000000000000000000000000000000000000000000006636f75727365000000000000000000000000000000000000000000000000000000000000000000000000000000000000000000000000000000000000000000095468696e6b696669630000000000000000000000000000000000000000000000000000000000000000000000000000000000000000000000000000000000001a68747470733a2f2f7468696e6b696669632e636f6d2f7465737400000000000000000000000000000000000000000000000000000000000000000000000000084465466920313031000000000000000000000000000000000000000000000000000000000000000000000000000000000000000000000000000000000000001c7368613235363a6f746865722d6d616e69666573742d6a6b6c30313200000000",
        "nonce": "0x4e",
        "chainId": "0xaa36a7"
      },
      "additionalContracts": [],
      "isFixedGasLimit": false
    },
    {
      "hash": "0x0f99953ae09d8e649084257b97ac9547d4a3ac59bca4a1118b77a4238f261edd",
      "transactionType": "CALL",
      "contractName": null,
      "contractAddress": "0x9e1f48d3c46bc69a540d16511faa76add25a8451",
      "function": "registerContent(string,(uint8,string,string,string,string,string,string),bytes,bytes32)",
      "arguments": [
        "AR-SMK-WEBSITE",
        "(11, sha256:smk-website, , SMK-WEBSITE, Smoke Test Artifact, Ian Moore, )",
        "0x000000000000000000000000000000000000000000000000000000000000006000000000000000000000000000000000000000000000000000000000000000a000000000000000000000000000000000000000000000000000000000000000e0000000000000000000000000000000000000000000000000000000000000001a68747470733a2f2f616e63686f7272656769737472792e636f6d0000000000000000000000000000000000000000000000000000000000000000000000000006637573746f6d0000000000000000000000000000000000000000000000000000000000000000000000000000000000000000000000000000000000000000001c4f6e2d636861696e2070726f76656e616e636520726567697374727900000000",
        "0x0000000000000000000000000000000000000000000000000000000000000001"
      ],
      "transaction": {
        "from": "0xc7a7afde1177fbf0bb265ea5a616d1b8d7ed8c44",
        "to": "0x9e1f48d3c46bc69a540d16511faa76add25a8451",
        "gas": "0x6f606",
        "value": "0x0",
        "input": "0xcf8bc4b6000000000000000000000000000000000000000000000000000000000000008000000000000000000000000000000000000000000000000000000000000000c000000000000000000000000000000000000000000000000000000000000002e00000000000000000000000000000000000000000000000000000000000000001000000000000000000000000000000000000000000000000000000000000000e41522d534d4b2d57454253495445000000000000000000000000000000000000000000000000000000000000000000000000000000000000000000000000000b00000000000000000000000000000000000000000000000000000000000000e000000000000000000000000000000000000000000000000000000000000001200000000000000000000000000000000000000000000000000000000000000140000000000000000000000000000000000000000000000000000000000000018000000000000000000000000000000000000000000000000000000000000001c0000000000000000000000000000000000000000000000000000000000000020000000000000000000000000000000000000000000000000000000000000000127368613235363a736d6b2d7765627369746500000000000000000000000000000000000000000000000000000000000000000000000000000000000000000000000000000000000000000000000000000000000000000000000000000000000b534d4b2d574542534954450000000000000000000000000000000000000000000000000000000000000000000000000000000000000000000000000000000013536d6f6b65205465737420417274696661637400000000000000000000000000000000000000000000000000000000000000000000000000000000000000000949616e204d6f6f7265000000000000000000000000000000000000000000000000000000000000000000000000000000000000000000000000000000000000000000000000000000000000000000000000000000000000000000000000000120000000000000000000000000000000000000000000000000000000000000006000000000000000000000000000000000000000000000000000000000000000a000000000000000000000000000000000000000000000000000000000000000e0000000000000000000000000000000000000000000000000000000000000001a68747470733a2f2f616e63686f7272656769737472792e636f6d0000000000000000000000000000000000000000000000000000000000000000000000000006637573746f6d0000000000000000000000000000000000000000000000000000000000000000000000000000000000000000000000000000000000000000001c4f6e2d636861696e2070726f76656e616e636520726567697374727900000000",
        "nonce": "0x4f",
        "chainId": "0xaa36a7"
      },
      "additionalContracts": [],
      "isFixedGasLimit": false
    },
    {
      "hash": "0xe7bc11097b07a8e1c35e7d13086591fcdd263694484b9a057225ddbd6bbd8a7a",
      "transactionType": "CALL",
      "contractName": null,
      "contractAddress": "0x9e1f48d3c46bc69a540d16511faa76add25a8451",
      "function": "registerTargeted(string,(uint8,string,string,string,string,string,string),string,bytes,bytes32)",
      "arguments": [
        "AR-SMK-RETRACT",
        "(17, sha256:smk-retract, AR-SMK-CODE, SMK-RETRACT, Smoke Test Artifact, Ian Moore, )",
        "AR-SMK-CODE",
        "0x00000000000000000000000000000000000000000000000000000000000000400000000000000000000000000000000000000000000000000000000000000080000000000000000000000000000000000000000000000000000000000000001973757065727365646564206279206e65772076657273696f6e000000000000000000000000000000000000000000000000000000000000000000000000000000",
        "0x00000000000000000000000000000000000000000000000000000000deadbeef"
      ],
      "transaction": {
        "from": "0xc7a7afde1177fbf0bb265ea5a616d1b8d7ed8c44",
        "to": "0x9e1f48d3c46bc69a540d16511faa76add25a8451",
        "gas": "0x514a2",
        "value": "0x0",
        "input": "0x7bd4c63000000000000000000000000000000000000000000000000000000000000000a000000000000000000000000000000000000000000000000000000000000000e00000000000000000000000000000000000000000000000000000000000000320000000000000000000000000000000000000000000000000000000000000036000000000000000000000000000000000000000000000000000000000deadbeef000000000000000000000000000000000000000000000000000000000000000e41522d534d4b2d52455452414354000000000000000000000000000000000000000000000000000000000000000000000000000000000000000000000000001100000000000000000000000000000000000000000000000000000000000000e00000000000000000000000000000000000000000000000000000000000000120000000000000000000000000000000000000000000000000000000000000016000000000000000000000000000000000000000000000000000000000000001a000000000000000000000000000000000000000000000000000000000000001e0000000000000000000000000000000000000000000000000000000000000022000000000000000000000000000000000000000000000000000000000000000127368613235363a736d6b2d726574726163740000000000000000000000000000000000000000000000000000000000000000000000000000000000000000000b41522d534d4b2d434f4445000000000000000000000000000000000000000000000000000000000000000000000000000000000000000000000000000000000b534d4b2d524554524143540000000000000000000000000000000000000000000000000000000000000000000000000000000000000000000000000000000013536d6f6b65205465737420417274696661637400000000000000000000000000000000000000000000000000000000000000000000000000000000000000000949616e204d6f6f726500000000000000000000000000000000000000000000000000000000000000000000000000000000000000000000000000000000000000000000000000000000000000000000000000000000000000000000000000000b41522d534d4b2d434f444500000000000000000000000000000000000000000000000000000000000000000000000000000000000000000000000000000000a000000000000000000000000000000000000000000000000000000000000000400000000000000000000000000000000000000000000000000000000000000080000000000000000000000000000000000000000000000000000000000000001973757065727365646564206279206e65772076657273696f6e000000000000000000000000000000000000000000000000000000000000000000000000000000",
        "nonce": "0x50",
        "chainId": "0xaa36a7"
      },
      "additionalContracts": [],
      "isFixedGasLimit": false
    }
  ],
  "receipts": [],
  "libraries": [],
  "pending": [],
  "returns": {},
  "timestamp": 1775147177543,
  "chain": 11155111,
  "commit": "f017090"
}